{
	"data": {
		"bytecode": {
			"linkReferences": {},
			"object": "608060405260016008555f600955348015610018575f80fd5b50604051614f44380380614f44833981810160405281019061003a9190610331565b336040518060400160405280601681526020017f526f636b506170657253636973736f7273546f6b656e000000000000000000008152506040518060400160405280600381526020017f5250530000000000000000000000000000000000000000000000000000000000815250815f90816100b591906105bb565b5080600190816100c591906105bb565b5050505f73ffffffffffffffffffffffffffffffffffffffff168173ffffffffffffffffffffffffffffffffffffffff1603610138575f6040517f1e4fbdf700000000000000000000000000000000000000000000000000000000815260040161012f9190610699565b60405180910390fd5b6101478161021060201b60201c565b5082600a5f6101000a81548173ffffffffffffffffffffffffffffffffffffffff021916908373ffffffffffffffffffffffffffffffffffffffff16021790555081600b5f6101000a81548173ffffffffffffffffffffffffffffffffffffffff021916908373ffffffffffffffffffffffffffffffffffffffff16021790555080600c5f6101000a81548173ffffffffffffffffffffffffffffffffffffffff021916908373ffffffffffffffffffffffffffffffffffffffff1602179055505050506106b2565b5f60065f9054906101000a900473ffffffffffffffffffffffffffffffffffffffff1690508160065f6101000a81548173ffffffffffffffffffffffffffffffffffffffff021916908373ffffffffffffffffffffffffffffffffffffffff1602179055508173ffffffffffffffffffffffffffffffffffffffff168173ffffffffffffffffffffffffffffffffffffffff167f8be0079c531659141344cd1fd0a4f28419497f9722a3daafe3b4186f6b6457e060405160405180910390a35050565b5f80fd5b5f73ffffffffffffffffffffffffffffffffffffffff82169050919050565b5f610300826102d7565b9050919050565b610310816102f6565b811461031a575f80fd5b50565b5f8151905061032b81610307565b92915050565b5f805f60608486031215610348576103476102d3565b5b5f6103558682870161031d565b93505060206103668682870161031d565b92505060406103778682870161031d565b9150509250925092565b5f81519050919050565b7f4e487b71000000000000000000000000000000000000000000000000000000005f52604160045260245ffd5b7f4e487b71000000000000000000000000000000000000000000000000000000005f52602260045260245ffd5b5f60028204905060018216806103fc57607f821691505b60208210810361040f5761040e6103b8565b5b50919050565b5f819050815f5260205f209050919050565b5f6020601f8301049050919050565b5f82821b905092915050565b5f600883026104717fffffffffffffffffffffffffffffffffffffffffffffffffffffffffffffffff82610436565b61047b8683610436565b95508019841693508086168417925050509392505050565b5f819050919050565b5f819050919050565b5f6104bf6104ba6104b584610493565b61049c565b610493565b9050919050565b5f819050919050565b6104d8836104a5565b6104ec6104e4826104c6565b848454610442565b825550505050565b5f90565b6105006104f4565b61050b8184846104cf565b505050565b5b8181101561052e576105235f826104f8565b600181019050610511565b5050565b601f8211156105735761054481610415565b61054d84610427565b8101602085101561055c578190505b61057061056885610427565b830182610510565b50505b505050565b5f82821c905092915050565b5f6105935f1984600802610578565b1980831691505092915050565b5f6105ab8383610584565b9150826002028217905092915050565b6105c482610381565b67ffffffffffffffff8111156105dd576105dc61038b565b5b6105e782546103e5565b6105f2828285610532565b5f60209050601f831160018114610623575f8415610611578287015190505b61061b85826105a0565b865550610682565b601f19841661063186610415565b5f5b8281101561065857848901518255600182019150602085019450602081019050610633565b868310156106755784890151610671601f891682610584565b8355505b6001600288020188555050505b505050505050565b610693816102f6565b82525050565b5f6020820190506106ac5f83018461068a565b92915050565b614885806106bf5f395ff3fe608060405234801561000f575f80fd5b5060043610610171575f3560e01c80638eb507bc116100dc578063b88d4fde11610095578063d7c81b551161006f578063d7c81b551461040f578063e985e9c51461042d578063efaa55a01461045d578063f2fde38b1461047957610171565b8063b88d4fde146103b9578063bcfa2208146103d5578063c87b56dd146103df57610171565b80638eb507bc1461030957806390e22eef1461032757806395d89b411461034357806398255e1514610361578063a22cb4651461037f578063a7214bc21461039b57610171565b80635873533d1161012e5780635873533d146102475780636352211e1461026357806370a0823114610293578063715018a6146102c35780637255d729146102cd5780638da5cb5b146102eb57610171565b806301ffc9a71461017557806306fdde03146101a5578063081812fc146101c3578063095ea7b3146101f357806323b872dd1461020f57806342842e0e1461022b575b5f80fd5b61018f600480360381019061018a91906137fb565b610495565b60405161019c9190613840565b60405180910390f35b6101ad610576565b6040516101ba91906138c9565b60405180910390f35b6101dd60048036038101906101d8919061391c565b610605565b6040516101ea9190613986565b60405180910390f35b61020d600480360381019061020891906139c9565b610620565b005b61022960048036038101906102249190613a07565b610636565b005b61024560048036038101906102409190613a07565b610735565b005b610261600480360381019061025c919061391c565b610754565b005b61027d6004803603810190610278919061391c565b61177b565b60405161028a9190613986565b60405180910390f35b6102ad60048036038101906102a89190613a57565b61178c565b6040516102ba9190613a91565b60405180910390f35b6102cb611842565b005b6102d5611855565b6040516102e29190613a91565b60405180910390f35b6102f36118ff565b6040516103009190613986565b60405180910390f35b610311611927565b60405161031e9190613b05565b60405180910390f35b610341600480360381019061033c919061391c565b61194c565b005b61034b611f53565b60405161035891906138c9565b60405180910390f35b610369611fe3565b6040516103769190613b3e565b60405180910390f35b61039960048036038101906103949190613b81565b612008565b005b6103a361201e565b6040516103b09190613bdf565b60405180910390f35b6103d360048036038101906103ce9190613d24565b612043565b005b6103dd612060565b005b6103f960048036038101906103f4919061391c565b6124d7565b60405161040691906138c9565b60405180910390f35b61041761253d565b6040516104249190613a91565b60405180910390f35b61044760048036038101906104429190613da4565b612543565b6040516104549190613840565b60405180910390f35b6104776004803603810190610472919061391c565b6125d1565b005b610493600480360381019061048e9190613a57565b612840565b005b5f7f80ac58cd000000000000000000000000000000000000000000000000000000007bffffffffffffffffffffffffffffffffffffffffffffffffffffffff1916827bffffffffffffffffffffffffffffffffffffffffffffffffffffffff1916148061055f57507f5b5e139f000000000000000000000000000000000000000000000000000000007bffffffffffffffffffffffffffffffffffffffffffffffffffffffff1916827bffffffffffffffffffffffffffffffffffffffffffffffffffffffff1916145b8061056f575061056e826128c4565b5b9050919050565b60605f805461058490613e0f565b80601f01602080910402602001604051908101604052809291908181526020018280546105b090613e0f565b80156105fb5780601f106105d2576101008083540402835291602001916105fb565b820191905f5260205f20905b8154815290600101906020018083116105de57829003601f168201915b5050505050905090565b5f61060f8261292d565b50610619826129b3565b9050919050565b610632828261062d6129ec565b6129f3565b5050565b5f73ffffffffffffffffffffffffffffffffffffffff168273ffffffffffffffffffffffffffffffffffffffff16036106a6575f6040517f64a0ae9200000000000000000000000000000000000000000000000000000000815260040161069d9190613986565b60405180910390fd5b5f6106b983836106b46129ec565b612a05565b90508373ffffffffffffffffffffffffffffffffffffffff168173ffffffffffffffffffffffffffffffffffffffff161461072f578382826040517f64283d7b00000000000000000000000000000000000000000000000000000000815260040161072693929190613e3f565b60405180910390fd5b50505050565b61074f83838360405180602001604052805f815250612043565b505050565b5f73ffffffffffffffffffffffffffffffffffffffff1660075f600160085461077d9190613ea1565b81526020019081526020015f205f015f9054906101000a900473ffffffffffffffffffffffffffffffffffffffff1673ffffffffffffffffffffffffffffffffffffffff1603610802576040517f08c379a00000000000000000000000000000000000000000000000000000000081526004016107f990613f1e565b60405180910390fd5b5f151560075f60016008546108179190613ea1565b81526020019081526020015f2060010160169054906101000a900460ff16151514610877576040517f08c379a000000000000000000000000000000000000000000000000000000000815260040161086e90613f86565b60405180910390fd5b60018110158015610889575060038111155b6108c8576040517f08c379a00000000000000000000000000000000000000000000000000000000081526004016108bf90613fee565b60405180910390fd5b60075f60016008546108da9190613ea1565b81526020019081526020015f205f015f9054906101000a900473ffffffffffffffffffffffffffffffffffffffff1673ffffffffffffffffffffffffffffffffffffffff163373ffffffffffffffffffffffffffffffffffffffff1614806109ae575060075f600160085461094f9190613ea1565b81526020019081526020015f206001015f9054906101000a900473ffffffffffffffffffffffffffffffffffffffff1673ffffffffffffffffffffffffffffffffffffffff163373ffffffffffffffffffffffffffffffffffffffff16145b6109ed576040517f08c379a00000000000000000000000000000000000000000000000000000000081526004016109e49061407c565b60405180910390fd5b60075f60016008546109ff9190613ea1565b81526020019081526020015f205f015f9054906101000a900473ffffffffffffffffffffffffffffffffffffffff1673ffffffffffffffffffffffffffffffffffffffff163373ffffffffffffffffffffffffffffffffffffffff1603610e09575f6003811115610a7357610a7261409a565b5b60075f6001600854610a859190613ea1565b81526020019081526020015f2060010160149054906101000a900460ff166003811115610ab557610ab461409a565b5b14610af5576040517f08c379a0000000000000000000000000000000000000000000000000000000008152600401610aec90614111565b60405180910390fd5b60018103610bdc575f600a5f9054906101000a900473ffffffffffffffffffffffffffffffffffffffff1673ffffffffffffffffffffffffffffffffffffffff166370a08231336040518263ffffffff1660e01b8152600401610b589190613986565b602060405180830381865afa158015610b73573d5f803e3d5ffd5b505050506040513d601f19601f82011682018060405250810190610b979190614143565b11610bd7576040517f08c379a0000000000000000000000000000000000000000000000000000000008152600401610bce906141b8565b60405180910390fd5b610da8565b60028103610cc3575f600b5f9054906101000a900473ffffffffffffffffffffffffffffffffffffffff1673ffffffffffffffffffffffffffffffffffffffff166370a08231336040518263ffffffff1660e01b8152600401610c3f9190613986565b602060405180830381865afa158015610c5a573d5f803e3d5ffd5b505050506040513d601f19601f82011682018060405250810190610c7e9190614143565b11610cbe576040517f08c379a0000000000000000000000000000000000000000000000000000000008152600401610cb590614220565b60405180910390fd5b610da7565b60038103610da6575f600c5f9054906101000a900473ffffffffffffffffffffffffffffffffffffffff1673ffffffffffffffffffffffffffffffffffffffff166370a08231336040518263ffffffff1660e01b8152600401610d269190613986565b602060405180830381865afa158015610d41573d5f803e3d5ffd5b505050506040513d601f19601f82011682018060405250810190610d659190614143565b11610da5576040517f08c379a0000000000000000000000000000000000000000000000000000000008152600401610d9c90614288565b60405180910390fd5b5b5b5b806003811115610dbb57610dba61409a565b5b60075f6001600854610dcd9190613ea1565b81526020019081526020015f2060010160146101000a81548160ff02191690836003811115610dff57610dfe61409a565b5b02179055506111ae565b5f6003811115610e1c57610e1b61409a565b5b60075f6001600854610e2e9190613ea1565b81526020019081526020015f2060010160159054906101000a900460ff166003811115610e5e57610e5d61409a565b5b14610e9e576040517f08c379a0000000000000000000000000000000000000000000000000000000008152600401610e9590614111565b60405180910390fd5b60018103610f85575f600a5f9054906101000a900473ffffffffffffffffffffffffffffffffffffffff1673ffffffffffffffffffffffffffffffffffffffff166370a08231336040518263ffffffff1660e01b8152600401610f019190613986565b602060405180830381865afa158015610f1c573d5f803e3d5ffd5b505050506040513d601f19601f82011682018060405250810190610f409190614143565b11610f80576040517f08c379a0000000000000000000000000000000000000000000000000000000008152600401610f77906141b8565b60405180910390fd5b611151565b6002810361106c575f600b5f9054906101000a900473ffffffffffffffffffffffffffffffffffffffff1673ffffffffffffffffffffffffffffffffffffffff166370a08231336040518263ffffffff1660e01b8152600401610fe89190613986565b602060405180830381865afa158015611003573d5f803e3d5ffd5b505050506040513d601f19601f820116820180604052508101906110279190614143565b11611067576040517f08c379a000000000000000000000000000000000000000000000000000000000815260040161105e90614220565b60405180910390fd5b611150565b6003810361114f575f600c5f9054906101000a900473ffffffffffffffffffffffffffffffffffffffff1673ffffffffffffffffffffffffffffffffffffffff166370a08231336040518263ffffffff1660e01b81526004016110cf9190613986565b602060405180830381865afa1580156110ea573d5f803e3d5ffd5b505050506040513d601f19601f8201168201806040525081019061110e9190614143565b1161114e576040517f08c379a000000000000000000000000000000000000000000000000000000000815260040161114590614288565b60405180910390fd5b5b5b5b8060038111156111645761116361409a565b5b60075f60016008546111769190613ea1565b81526020019081526020015f2060010160156101000a81548160ff021916908360038111156111a8576111a761409a565b5b02179055505b7fa6e7005509cadc41086129610194d39ff0b053ed97e916ca2c33fae378ef83bb60016008546111de9190613ea1565b338360038111156111f2576111f161409a565b5b604051611201939291906142ec565b60405180910390a15f600381111561121c5761121b61409a565b5b60075f600160085461122e9190613ea1565b81526020019081526020015f2060010160149054906101000a900460ff16600381111561125e5761125d61409a565b5b141580156112bf57505f600381111561127a5761127961409a565b5b60075f600160085461128c9190613ea1565b81526020019081526020015f2060010160159054906101000a900460ff1660038111156112bc576112bb61409a565b5b14155b15611778575f606060075f60016008546112d99190613ea1565b81526020019081526020015f2060010160159054906101000a900460ff1660038111156113095761130861409a565b5b60075f600160085461131b9190613ea1565b81526020019081526020015f2060010160149054906101000a900460ff16600381111561134b5761134a61409a565b5b03611390575f91506040518060400160405280600b81526020017f497427732061207469652100000000000000000000000000000000000000000081525090506116f1565b600160038111156113a4576113a361409a565b5b60075f60016008546113b69190613ea1565b81526020019081526020015f2060010160149054906101000a900460ff1660038111156113e6576113e561409a565b5b14801561144557506003808111156114015761140061409a565b5b60075f60016008546114139190613ea1565b81526020019081526020015f2060010160159054906101000a900460ff1660038111156114435761144261409a565b5b145b8061150257506002600381111561145f5761145e61409a565b5b60075f60016008546114719190613ea1565b81526020019081526020015f2060010160149054906101000a900460ff1660038111156114a1576114a061409a565b5b1480156115015750600160038111156114bd576114bc61409a565b5b60075f60016008546114cf9190613ea1565b81526020019081526020015f2060010160159054906101000a900460ff1660038111156114ff576114fe61409a565b5b145b5b806115be575060038081111561151b5761151a61409a565b5b60075f600160085461152d9190613ea1565b81526020019081526020015f2060010160149054906101000a900460ff16600381111561155d5761155c61409a565b5b1480156115bd5750600260038111156115795761157861409a565b5b60075f600160085461158b9190613ea1565b81526020019081526020015f2060010160159054906101000a900460ff1660038111156115bb576115ba61409a565b5b145b5b1561165b5760075f60016008546115d59190613ea1565b81526020019081526020015f205f015f9054906101000a900473ffffffffffffffffffffffffffffffffffffffff1691506040518060400160405280600e81526020017f506c6179657220312077696e732100000000000000000000000000000000000081525090506116568260016008546116519190613ea1565b612c10565b6116f0565b60075f600160085461166d9190613ea1565b81526020019081526020015f206001015f9054906101000a900473ffffffffffffffffffffffffffffffffffffffff1691506040518060400160405280600e81526020017f506c6179657220322077696e732100000000000000000000000000000000000081525090506116ef8260016008546116ea9190613ea1565b612c10565b5b5b7f9e58cde61339304c976b975a6387e3b7d0be6e96e75824bf92a53d0028f77c1060016008546117219190613ea1565b838360405161173293929190614321565b60405180910390a1600160075f600160085461174e9190613ea1565b81526020019081526020015f2060010160166101000a81548160ff02191690831515021790555050505b50565b5f6117858261292d565b9050919050565b5f8073ffffffffffffffffffffffffffffffffffffffff168273ffffffffffffffffffffffffffffffffffffffff16036117fd575f6040517f89c62b640000000000000000000000000000000000000000000000000000000081526004016117f49190613986565b60405180910390fd5b60035f8373ffffffffffffffffffffffffffffffffffffffff1673ffffffffffffffffffffffffffffffffffffffff1681526020019081526020015f20549050919050565b61184a612c2d565b6118535f612cb4565b565b5f3360075f60085481526020019081526020015f205f015f6101000a81548173ffffffffffffffffffffffffffffffffffffffff021916908373ffffffffffffffffffffffffffffffffffffffff1602179055507fc3e0f84839dc888c892a013d10c8f9d6dc05a21a879d0ce468ca558013e9121c600854336040516118dc92919061435d565b60405180910390a160085f8154809291906118f690614384565b91905055905090565b5f60065f9054906101000a900473ffffffffffffffffffffffffffffffffffffffff16905090565b600c5f9054906101000a900473ffffffffffffffffffffffffffffffffffffffff1681565b6001811015801561195e575060038111155b61199d576040517f08c379a000000000000000000000000000000000000000000000000000000000815260040161199490613fee565b60405180910390fd5b60018103611a84575f600a5f9054906101000a900473ffffffffffffffffffffffffffffffffffffffff1673ffffffffffffffffffffffffffffffffffffffff166370a08231336040518263ffffffff1660e01b8152600401611a009190613986565b602060405180830381865afa158015611a1b573d5f803e3d5ffd5b505050506040513d601f19601f82011682018060405250810190611a3f9190614143565b11611a7f576040517f08c379a0000000000000000000000000000000000000000000000000000000008152600401611a76906141b8565b60405180910390fd5b611c50565b60028103611b6b575f600b5f9054906101000a900473ffffffffffffffffffffffffffffffffffffffff1673ffffffffffffffffffffffffffffffffffffffff166370a08231336040518263ffffffff1660e01b8152600401611ae79190613986565b602060405180830381865afa158015611b02573d5f803e3d5ffd5b505050506040513d601f19601f82011682018060405250810190611b269190614143565b11611b66576040517f08c379a0000000000000000000000000000000000000000000000000000000008152600401611b5d90614220565b60405180910390fd5b611c4f565b60038103611c4e575f600c5f9054906101000a900473ffffffffffffffffffffffffffffffffffffffff1673ffffffffffffffffffffffffffffffffffffffff166370a08231336040518263ffffffff1660e01b8152600401611bce9190613986565b602060405180830381865afa158015611be9573d5f803e3d5ffd5b505050506040513d601f19601f82011682018060405250810190611c0d9190614143565b11611c4d576040517f08c379a0000000000000000000000000000000000000000000000000000000008152600401611c4490614288565b60405180910390fd5b5b5b5b5f816003811115611c6457611c6361409a565b5b90505f611c6f612d77565b6003811115611c8157611c8061409a565b5b90507fa6e7005509cadc41086129610194d39ff0b053ed97e916ca2c33fae378ef83bb5f3384604051611cb693929190614404565b60405180910390a17fa6e7005509cadc41086129610194d39ff0b053ed97e916ca2c33fae378ef83bb5f3083604051611cf193929190614404565b60405180910390a15f6060826003811115611d0f57611d0e61409a565b5b846003811115611d2257611d2161409a565b5b03611d67575f91506040518060400160405280600b81526020017f49742773206120746965210000000000000000000000000000000000000000008152509050611f11565b60016003811115611d7b57611d7a61409a565b5b846003811115611d8e57611d8d61409a565b5b148015611dbe5750600380811115611da957611da861409a565b5b836003811115611dbc57611dbb61409a565b5b145b80611e1d575060026003811115611dd857611dd761409a565b5b846003811115611deb57611dea61409a565b5b148015611e1c575060016003811115611e0757611e0661409a565b5b836003811115611e1a57611e1961409a565b5b145b5b80611e7b5750600380811115611e3657611e3561409a565b5b846003811115611e4957611e4861409a565b5b148015611e7a575060026003811115611e6557611e6461409a565b5b836003811115611e7857611e7761409a565b5b145b5b15611eca573391506040518060400160405280600881526020017f596f752077696e210000000000000000000000000000000000000000000000008152509050611ec5335f612c10565b611f10565b3091506040518060400160405280600981526020017f596f75206c6f73652100000000000000000000000000000000000000000000008152509050611f0f305f612c10565b5b5b7f9e58cde61339304c976b975a6387e3b7d0be6e96e75824bf92a53d0028f77c105f8383604051611f4493929190614439565b60405180910390a15050505050565b606060018054611f6290613e0f565b80601f0160208091040260200160405190810160405280929190818152602001828054611f8e90613e0f565b8015611fd95780601f10611fb057610100808354040283529160200191611fd9565b820191905f5260205f20905b815481529060010190602001808311611fbc57829003601f168201915b5050505050905090565b600b5f9054906101000a900473ffffffffffffffffffffffffffffffffffffffff1681565b61201a6120136129ec565b8383612dc0565b5050565b600a5f9054906101000a900473ffffffffffffffffffffffffffffffffffffffff1681565b61204e848484610636565b61205a84848484612f29565b50505050565b6001151560075f60016008546120769190613ea1565b81526020019081526020015f2060010160169054906101000a900460ff161515146120d6576040517f08c379a00000000000000000000000000000000000000000000000000000000081526004016120cd906144bf565b60405180910390fd5b60075f60016008546120e89190613ea1565b81526020019081526020015f205f015f9054906101000a900473ffffffffffffffffffffffffffffffffffffffff1673ffffffffffffffffffffffffffffffffffffffff163373ffffffffffffffffffffffffffffffffffffffff1614806121bc575060075f600160085461215d9190613ea1565b81526020019081526020015f206001015f9054906101000a900473ffffffffffffffffffffffffffffffffffffffff1673ffffffffffffffffffffffffffffffffffffffff163373ffffffffffffffffffffffffffffffffffffffff16145b6121fb576040517f08c379a00000000000000000000000000000000000000000000000000000000081526004016121f290614527565b60405180910390fd5b60075f600160085461220d9190613ea1565b81526020019081526020015f205f015f9054906101000a900473ffffffffffffffffffffffffffffffffffffffff1673ffffffffffffffffffffffffffffffffffffffff163373ffffffffffffffffffffffffffffffffffffffff16036122ae57600160075f60016008546122829190613ea1565b81526020019081526020015f2060010160176101000a81548160ff0219169083151502179055506122ea565b600160075f60016008546122c29190613ea1565b81526020019081526020015f2060010160186101000a81548160ff0219169083151502179055505b60075f60016008546122fc9190613ea1565b81526020019081526020015f2060010160179054906101000a900460ff168015612352575060075f60016008546123339190613ea1565b81526020019081526020015f2060010160189054906101000a900460ff165b156124d5575f60075f600160085461236a9190613ea1565b81526020019081526020015f2060010160146101000a81548160ff0219169083600381111561239c5761239b61409a565b5b02179055505f60075f60016008546123b49190613ea1565b81526020019081526020015f2060010160156101000a81548160ff021916908360038111156123e6576123e561409a565b5b02179055505f60075f60016008546123fe9190613ea1565b81526020019081526020015f2060010160166101000a81548160ff0219169083151502179055505f60075f60016008546124389190613ea1565b81526020019081526020015f2060010160176101000a81548160ff0219169083151502179055505f60075f60016008546124729190613ea1565b81526020019081526020015f2060010160186101000a81548160ff0219169083151502179055507fc3e0f84839dc888c892a013d10c8f9d6dc05a21a879d0ce468ca558013e9121c600854336040516124cc92919061435d565b60405180910390a15b565b60606124e28261292d565b505f6124ec6130db565b90505f81511161250a5760405180602001604052805f815250612535565b80612514846130f1565b60405160200161252592919061457f565b6040516020818303038152906040525b915050919050565b60085481565b5f60055f8473ffffffffffffffffffffffffffffffffffffffff1673ffffffffffffffffffffffffffffffffffffffff1681526020019081526020015f205f8373ffffffffffffffffffffffffffffffffffffffff1673ffffffffffffffffffffffffffffffffffffffff1681526020019081526020015f205f9054906101000a900460ff16905092915050565b5f73ffffffffffffffffffffffffffffffffffffffff1660075f8381526020019081526020015f205f015f9054906101000a900473ffffffffffffffffffffffffffffffffffffffff1673ffffffffffffffffffffffffffffffffffffffff1603612671576040517f08c379a000000000000000000000000000000000000000000000000000000000815260040161266890613f1e565b60405180910390fd5b5f73ffffffffffffffffffffffffffffffffffffffff1660075f8381526020019081526020015f206001015f9054906101000a900473ffffffffffffffffffffffffffffffffffffffff1673ffffffffffffffffffffffffffffffffffffffff1614612712576040517f08c379a0000000000000000000000000000000000000000000000000000000008152600401612709906145ec565b60405180910390fd5b3373ffffffffffffffffffffffffffffffffffffffff1660075f8381526020019081526020015f205f015f9054906101000a900473ffffffffffffffffffffffffffffffffffffffff1673ffffffffffffffffffffffffffffffffffffffff16036127b2576040517f08c379a00000000000000000000000000000000000000000000000000000000081526004016127a990614654565b60405180910390fd5b3360075f8381526020019081526020015f206001015f6101000a81548173ffffffffffffffffffffffffffffffffffffffff021916908373ffffffffffffffffffffffffffffffffffffffff1602179055507f45c4f9cbafe186141862608c493f28b823fde4c2142bedc3f5169961a73fdd22813360405161283592919061435d565b60405180910390a150565b612848612c2d565b5f73ffffffffffffffffffffffffffffffffffffffff168173ffffffffffffffffffffffffffffffffffffffff16036128b8575f6040517f1e4fbdf70000000000000000000000000000000000000000000000000000000081526004016128af9190613986565b60405180910390fd5b6128c181612cb4565b50565b5f7f01ffc9a7000000000000000000000000000000000000000000000000000000007bffffffffffffffffffffffffffffffffffffffffffffffffffffffff1916827bffffffffffffffffffffffffffffffffffffffffffffffffffffffff1916149050919050565b5f80612938836131bb565b90505f73ffffffffffffffffffffffffffffffffffffffff168173ffffffffffffffffffffffffffffffffffffffff16036129aa57826040517f7e2732890000000000000000000000000000000000000000000000000000000081526004016129a19190613a91565b60405180910390fd5b80915050919050565b5f60045f8381526020019081526020015f205f9054906101000a900473ffffffffffffffffffffffffffffffffffffffff169050919050565b5f33905090565b612a0083838360016131f4565b505050565b5f80612a10846131bb565b90505f73ffffffffffffffffffffffffffffffffffffffff168373ffffffffffffffffffffffffffffffffffffffff1614612a5157612a508184866133b3565b5b5f73ffffffffffffffffffffffffffffffffffffffff168173ffffffffffffffffffffffffffffffffffffffff1614612adc57612a905f855f806131f4565b600160035f8373ffffffffffffffffffffffffffffffffffffffff1673ffffffffffffffffffffffffffffffffffffffff1681526020019081526020015f205f82825403925050819055505b5f73ffffffffffffffffffffffffffffffffffffffff168573ffffffffffffffffffffffffffffffffffffffff1614612b5b57600160035f8773ffffffffffffffffffffffffffffffffffffffff1673ffffffffffffffffffffffffffffffffffffffff1681526020019081526020015f205f82825401925050819055505b8460025f8681526020019081526020015f205f6101000a81548173ffffffffffffffffffffffffffffffffffffffff021916908373ffffffffffffffffffffffffffffffffffffffff160217905550838573ffffffffffffffffffffffffffffffffffffffff168273ffffffffffffffffffffffffffffffffffffffff167fddf252ad1be2c89b69c2b068fc378daa952ba7f163c4a11628f55a4df523b3ef60405160405180910390a4809150509392505050565b612c29828260405180602001604052805f815250613476565b5050565b612c356129ec565b73ffffffffffffffffffffffffffffffffffffffff16612c536118ff565b73ffffffffffffffffffffffffffffffffffffffff1614612cb257612c766129ec565b6040517f118cdaa7000000000000000000000000000000000000000000000000000000008152600401612ca99190613986565b60405180910390fd5b565b5f60065f9054906101000a900473ffffffffffffffffffffffffffffffffffffffff1690508160065f6101000a81548173ffffffffffffffffffffffffffffffffffffffff021916908373ffffffffffffffffffffffffffffffffffffffff1602179055508173ffffffffffffffffffffffffffffffffffffffff168173ffffffffffffffffffffffffffffffffffffffff167f8be0079c531659141344cd1fd0a4f28419497f9722a3daafe3b4186f6b6457e060405160405180910390a35050565b5f600160034244604051602001612d8f929190614692565b604051602081830303815290604052805190602001205f1c612db191906146ea565b612dbb919061471a565b905090565b5f73ffffffffffffffffffffffffffffffffffffffff168273ffffffffffffffffffffffffffffffffffffffff1603612e3057816040517f5b08ba18000000000000000000000000000000000000000000000000000000008152600401612e279190613986565b60405180910390fd5b8060055f8573ffffffffffffffffffffffffffffffffffffffff1673ffffffffffffffffffffffffffffffffffffffff1681526020019081526020015f205f8473ffffffffffffffffffffffffffffffffffffffff1673ffffffffffffffffffffffffffffffffffffffff1681526020019081526020015f205f6101000a81548160ff0219169083151502179055508173ffffffffffffffffffffffffffffffffffffffff168373ffffffffffffffffffffffffffffffffffffffff167f17307eab39ab6107e8899845ad3d59bd9653f200f220920489ca2b5937696c3183604051612f1c9190613840565b60405180910390a3505050565b5f8373ffffffffffffffffffffffffffffffffffffffff163b11156130d5578273ffffffffffffffffffffffffffffffffffffffff1663150b7a02612f6c6129ec565b8685856040518563ffffffff1660e01b8152600401612f8e949392919061479f565b6020604051808303815f875af1925050508015612fc957506040513d601f19601f82011682018060405250810190612fc691906147fd565b60015b61304a573d805f8114612ff7576040519150601f19603f3d011682016040523d82523d5f602084013e612ffc565b606091505b505f81510361304257836040517f64a0ae920000000000000000000000000000000000000000000000000000000081526004016130399190613986565b60405180910390fd5b805181602001fd5b63150b7a0260e01b7bffffffffffffffffffffffffffffffffffffffffffffffffffffffff1916817bffffffffffffffffffffffffffffffffffffffffffffffffffffffff1916146130d357836040517f64a0ae920000000000000000000000000000000000000000000000000000000081526004016130ca9190613986565b60405180910390fd5b505b50505050565b606060405180602001604052805f815250905090565b60605f60016130ff84613491565b0190505f8167ffffffffffffffff81111561311d5761311c613c00565b5b6040519080825280601f01601f19166020018201604052801561314f5781602001600182028036833780820191505090505b5090505f82602001820190505b6001156131b0578080600190039150507f3031323334353637383961626364656600000000000000000000000000000000600a86061a8153600a85816131a5576131a46146bd565b5b0494505f850361315c575b819350505050919050565b5f60025f8381526020019081526020015f205f9054906101000a900473ffffffffffffffffffffffffffffffffffffffff169050919050565b808061322c57505f73ffffffffffffffffffffffffffffffffffffffff168273ffffffffffffffffffffffffffffffffffffffff1614155b1561335e575f61323b8461292d565b90505f73ffffffffffffffffffffffffffffffffffffffff168373ffffffffffffffffffffffffffffffffffffffff16141580156132a557508273ffffffffffffffffffffffffffffffffffffffff168173ffffffffffffffffffffffffffffffffffffffff1614155b80156132b857506132b68184612543565b155b156132fa57826040517fa9fbf51f0000000000000000000000000000000000000000000000000000000081526004016132f19190613986565b60405180910390fd5b811561335c57838573ffffffffffffffffffffffffffffffffffffffff168273ffffffffffffffffffffffffffffffffffffffff167f8c5be1e5ebec7d5bd14f71427d1e84f3dd0314c0f7b2291e5b200ac8c7c3b92560405160405180910390a45b505b8360045f8581526020019081526020015f205f6101000a81548173ffffffffffffffffffffffffffffffffffffffff021916908373ffffffffffffffffffffffffffffffffffffffff16021790555050505050565b6133be8383836135e2565b613471575f73ffffffffffffffffffffffffffffffffffffffff168373ffffffffffffffffffffffffffffffffffffffff160361343257806040517f7e2732890000000000000000000000000000000000000000000000000000000081526004016134299190613a91565b60405180910390fd5b81816040517f177e802f000000000000000000000000000000000000000000000000000000008152600401613468929190614828565b60405180910390fd5b505050565b61348083836136a2565b61348c5f848484612f29565b505050565b5f805f90507a184f03e93ff9f4daa797ed6e38ed64bf6a1f01000000000000000083106134ed577a184f03e93ff9f4daa797ed6e38ed64bf6a1f01000000000000000083816134e3576134e26146bd565b5b0492506040810190505b6d04ee2d6d415b85acef8100000000831061352a576d04ee2d6d415b85acef810000000083816135205761351f6146bd565b5b0492506020810190505b662386f26fc10000831061355957662386f26fc10000838161354f5761354e6146bd565b5b0492506010810190505b6305f5e1008310613582576305f5e1008381613578576135776146bd565b5b0492506008810190505b61271083106135a757612710838161359d5761359c6146bd565b5b0492506004810190505b606483106135ca57606483816135c0576135bf6146bd565b5b0492506002810190505b600a83106135d9576001810190505b80915050919050565b5f8073ffffffffffffffffffffffffffffffffffffffff168373ffffffffffffffffffffffffffffffffffffffff161415801561369957508273ffffffffffffffffffffffffffffffffffffffff168473ffffffffffffffffffffffffffffffffffffffff16148061365a57506136598484612543565b5b8061369857508273ffffffffffffffffffffffffffffffffffffffff16613680836129b3565b73ffffffffffffffffffffffffffffffffffffffff16145b5b90509392505050565b5f73ffffffffffffffffffffffffffffffffffffffff168273ffffffffffffffffffffffffffffffffffffffff1603613712575f6040517f64a0ae920000000000000000000000000000000000000000000000000000000081526004016137099190613986565b60405180910390fd5b5f61371e83835f612a05565b90505f73ffffffffffffffffffffffffffffffffffffffff168173ffffffffffffffffffffffffffffffffffffffff1614613790575f6040517f73c6ac6e0000000000000000000000000000000000000000000000000000000081526004016137879190613986565b60405180910390fd5b505050565b5f604051905090565b5f80fd5b5f80fd5b5f7fffffffff0000000000000000000000000000000000000000000000000000000082169050919050565b6137da816137a6565b81146137e4575f80fd5b50565b5f813590506137f5816137d1565b92915050565b5f602082840312156138105761380f61379e565b5b5f61381d848285016137e7565b91505092915050565b5f8115159050919050565b61383a81613826565b82525050565b5f6020820190506138535f830184613831565b92915050565b5f81519050919050565b5f82825260208201905092915050565b8281835e5f83830152505050565b5f601f19601f8301169050919050565b5f61389b82613859565b6138a58185613863565b93506138b5818560208601613873565b6138be81613881565b840191505092915050565b5f6020820190508181035f8301526138e18184613891565b905092915050565b5f819050919050565b6138fb816138e9565b8114613905575f80fd5b50565b5f81359050613916816138f2565b92915050565b5f602082840312156139315761393061379e565b5b5f61393e84828501613908565b91505092915050565b5f73ffffffffffffffffffffffffffffffffffffffff82169050919050565b5f61397082613947565b9050919050565b61398081613966565b82525050565b5f6020820190506139995f830184613977565b92915050565b6139a881613966565b81146139b2575f80fd5b50565b5f813590506139c38161399f565b92915050565b5f80604083850312156139df576139de61379e565b5b5f6139ec858286016139b5565b92505060206139fd85828601613908565b9150509250929050565b5f805f60608486031215613a1e57613a1d61379e565b5b5f613a2b868287016139b5565b9350506020613a3c868287016139b5565b9250506040613a4d86828701613908565b9150509250925092565b5f60208284031215613a6c57613a6b61379e565b5b5f613a79848285016139b5565b91505092915050565b613a8b816138e9565b82525050565b5f602082019050613aa45f830184613a82565b92915050565b5f819050919050565b5f613acd613ac8613ac384613947565b613aaa565b613947565b9050919050565b5f613ade82613ab3565b9050919050565b5f613aef82613ad4565b9050919050565b613aff81613ae5565b82525050565b5f602082019050613b185f830184613af6565b92915050565b5f613b2882613ad4565b9050919050565b613b3881613b1e565b82525050565b5f602082019050613b515f830184613b2f565b92915050565b613b6081613826565b8114613b6a575f80fd5b50565b5f81359050613b7b81613b57565b92915050565b5f8060408385031215613b9757613b9661379e565b5b5f613ba4858286016139b5565b9250506020613bb585828601613b6d565b9150509250929050565b5f613bc982613ad4565b9050919050565b613bd981613bbf565b82525050565b5f602082019050613bf25f830184613bd0565b92915050565b5f80fd5b5f80fd5b7f4e487b71000000000000000000000000000000000000000000000000000000005f52604160045260245ffd5b613c3682613881565b810181811067ffffffffffffffff82111715613c5557613c54613c00565b5b80604052505050565b5f613c67613795565b9050613c738282613c2d565b919050565b5f67ffffffffffffffff821115613c9257613c91613c00565b5b613c9b82613881565b9050602081019050919050565b828183375f83830152505050565b5f613cc8613cc384613c78565b613c5e565b905082815260208101848484011115613ce457613ce3613bfc565b5b613cef848285613ca8565b509392505050565b5f82601f830112613d0b57613d0a613bf8565b5b8135613d1b848260208601613cb6565b91505092915050565b5f805f8060808587031215613d3c57613d3b61379e565b5b5f613d49878288016139b5565b9450506020613d5a878288016139b5565b9350506040613d6b87828801613908565b925050606085013567ffffffffffffffff811115613d8c57613d8b6137a2565b5b613d9887828801613cf7565b91505092959194509250565b5f8060408385031215613dba57613db961379e565b5b5f613dc7858286016139b5565b9250506020613dd8858286016139b5565b9150509250929050565b7f4e487b71000000000000000000000000000000000000000000000000000000005f52602260045260245ffd5b5f6002820490506001821680613e2657607f821691505b602082108103613e3957613e38613de2565b5b50919050565b5f606082019050613e525f830186613977565b613e5f6020830185613a82565b613e6c6040830184613977565b949350505050565b7f4e487b71000000000000000000000000000000000000000000000000000000005f52601160045260245ffd5b5f613eab826138e9565b9150613eb6836138e9565b9250828203905081811115613ece57613ecd613e74565b5b92915050565b7f47616d6520646f6573206e6f74206578697374000000000000000000000000005f82015250565b5f613f08601383613863565b9150613f1382613ed4565b602082019050919050565b5f6020820190508181035f830152613f3581613efc565b9050919050565b7f47616d652068617320616c7265616479206265656e20706c61796564000000005f82015250565b5f613f70601c83613863565b9150613f7b82613f3c565b602082019050919050565b5f6020820190508181035f830152613f9d81613f64565b9050919050565b7f496e76616c6964206d6f766500000000000000000000000000000000000000005f82015250565b5f613fd8600c83613863565b9150613fe382613fa4565b602082019050919050565b5f6020820190508181035f83015261400581613fcc565b9050919050565b7f596f7520617265206e6f7420616c6c6f77656420746f20706c617920746869735f8201527f2067616d65000000000000000000000000000000000000000000000000000000602082015250565b5f614066602583613863565b91506140718261400c565b604082019050919050565b5f6020820190508181035f8301526140938161405a565b9050919050565b7f4e487b71000000000000000000000000000000000000000000000000000000005f52602160045260245ffd5b7f596f75206861766520616c72656164792073656c65637465642061206d6f76655f82015250565b5f6140fb602083613863565b9150614106826140c7565b602082019050919050565b5f6020820190508181035f830152614128816140ef565b9050919050565b5f8151905061413d816138f2565b92915050565b5f602082840312156141585761415761379e565b5b5f6141658482850161412f565b91505092915050565b7f596f7520646f6e277420686176652074686520526f636b20746f6b656e0000005f82015250565b5f6141a2601d83613863565b91506141ad8261416e565b602082019050919050565b5f6020820190508181035f8301526141cf81614196565b9050919050565b7f596f7520646f6e277420686176652074686520506170657220746f6b656e00005f82015250565b5f61420a601e83613863565b9150614215826141d6565b602082019050919050565b5f6020820190508181035f830152614237816141fe565b9050919050565b7f596f7520646f6e27742068617665207468652053636973736f7220746f6b656e5f82015250565b5f614272602083613863565b915061427d8261423e565b602082019050919050565b5f6020820190508181035f83015261429f81614266565b9050919050565b600481106142b7576142b661409a565b5b50565b5f8190506142c7826142a6565b919050565b5f6142d6826142ba565b9050919050565b6142e6816142cc565b82525050565b5f6060820190506142ff5f830186613a82565b61430c6020830185613977565b61431960408301846142dd565b949350505050565b5f6060820190506143345f830186613a82565b6143416020830185613977565b81810360408301526143538184613891565b9050949350505050565b5f6040820190506143705f830185613a82565b61437d6020830184613977565b9392505050565b5f61438e826138e9565b91507fffffffffffffffffffffffffffffffffffffffffffffffffffffffffffffffff82036143c0576143bf613e74565b5b600182019050919050565b5f819050919050565b5f6143ee6143e96143e4846143cb565b613aaa565b6138e9565b9050919050565b6143fe816143d4565b82525050565b5f6060820190506144175f8301866143f5565b6144246020830185613977565b61443160408301846142dd565b949350505050565b5f60608201905061444c5f8301866143f5565b6144596020830185613977565b818103604083015261446b8184613891565b9050949350505050565b7f47616d65206973207374696c6c20696e2070726f6772657373000000000000005f82015250565b5f6144a9601983613863565b91506144b482614475565b602082019050919050565b5f6020820190508181035f8301526144d68161449d565b9050919050565b7f596f7520617265206e6f742070617274206f6620746869732067616d650000005f82015250565b5f614511601d83613863565b915061451c826144dd565b602082019050919050565b5f6020820190508181035f83015261453e81614505565b9050919050565b5f81905092915050565b5f61455982613859565b6145638185614545565b9350614573818560208601613873565b80840191505092915050565b5f61458a828561454f565b9150614596828461454f565b91508190509392505050565b7f47616d6520616c7265616479206861732074776f20706c6179657273000000005f82015250565b5f6145d6601c83613863565b91506145e1826145a2565b602082019050919050565b5f6020820190508181035f830152614603816145ca565b9050919050565b7f596f752063616e6e6f74206a6f696e20796f7572206f776e2067616d650000005f82015250565b5f61463e601d83613863565b91506146498261460a565b602082019050919050565b5f6020820190508181035f83015261466b81614632565b9050919050565b5f819050919050565b61468c614687826138e9565b614672565b82525050565b5f61469d828561467b565b6020820191506146ad828461467b565b6020820191508190509392505050565b7f4e487b71000000000000000000000000000000000000000000000000000000005f52601260045260245ffd5b5f6146f4826138e9565b91506146ff836138e9565b92508261470f5761470e6146bd565b5b828206905092915050565b5f614724826138e9565b915061472f836138e9565b925082820190508082111561474757614746613e74565b5b92915050565b5f81519050919050565b5f82825260208201905092915050565b5f6147718261474d565b61477b8185614757565b935061478b818560208601613873565b61479481613881565b840191505092915050565b5f6080820190506147b25f830187613977565b6147bf6020830186613977565b6147cc6040830185613a82565b81810360608301526147de8184614767565b905095945050505050565b5f815190506147f7816137d1565b92915050565b5f602082840312156148125761481161379e565b5b5f61481f848285016147e9565b91505092915050565b5f60408201905061483b5f830185613977565b6148486020830184613a82565b939250505056fea2646970667358221220ad05527afa1db0fede1bf9546a1de3b6a1f0c50f0e468bbc2fa74fe94ddafe0164736f6c63430008190033",
			"opcodes": "PUSH1 0x80 PUSH1 0x40 MSTORE PUSH1 0x1 PUSH1 0x8 SSTORE PUSH0 PUSH1 0x9 SSTORE CALLVALUE DUP1 ISZERO PUSH2 0x18 JUMPI PUSH0 DUP1 REVERT JUMPDEST POP PUSH1 0x40 MLOAD PUSH2 0x4F44 CODESIZE SUB DUP1 PUSH2 0x4F44 DUP4 CODECOPY DUP2 DUP2 ADD PUSH1 0x40 MSTORE DUP2 ADD SWAP1 PUSH2 0x3A SWAP2 SWAP1 PUSH2 0x331 JUMP JUMPDEST CALLER PUSH1 0x40 MLOAD DUP1 PUSH1 0x40 ADD PUSH1 0x40 MSTORE DUP1 PUSH1 0x16 DUP2 MSTORE PUSH1 0x20 ADD PUSH32 0x526F636B506170657253636973736F7273546F6B656E00000000000000000000 DUP2 MSTORE POP PUSH1 0x40 MLOAD DUP1 PUSH1 0x40 ADD PUSH1 0x40 MSTORE DUP1 PUSH1 0x3 DUP2 MSTORE PUSH1 0x20 ADD PUSH32 0x5250530000000000000000000000000000000000000000000000000000000000 DUP2 MSTORE POP DUP2 PUSH0 SWAP1 DUP2 PUSH2 0xB5 SWAP2 SWAP1 PUSH2 0x5BB JUMP JUMPDEST POP DUP1 PUSH1 0x1 SWAP1 DUP2 PUSH2 0xC5 SWAP2 SWAP1 PUSH2 0x5BB JUMP JUMPDEST POP POP POP PUSH0 PUSH20 0xFFFFFFFFFFFFFFFFFFFFFFFFFFFFFFFFFFFFFFFF AND DUP2 PUSH20 0xFFFFFFFFFFFFFFFFFFFFFFFFFFFFFFFFFFFFFFFF AND SUB PUSH2 0x138 JUMPI PUSH0 PUSH1 0x40 MLOAD PUSH32 0x1E4FBDF700000000000000000000000000000000000000000000000000000000 DUP2 MSTORE PUSH1 0x4 ADD PUSH2 0x12F SWAP2 SWAP1 PUSH2 0x699 JUMP JUMPDEST PUSH1 0x40 MLOAD DUP1 SWAP2 SUB SWAP1 REVERT JUMPDEST PUSH2 0x147 DUP2 PUSH2 0x210 PUSH1 0x20 SHL PUSH1 0x20 SHR JUMP JUMPDEST POP DUP3 PUSH1 0xA PUSH0 PUSH2 0x100 EXP DUP2 SLOAD DUP2 PUSH20 0xFFFFFFFFFFFFFFFFFFFFFFFFFFFFFFFFFFFFFFFF MUL NOT AND SWAP1 DUP4 PUSH20 0xFFFFFFFFFFFFFFFFFFFFFFFFFFFFFFFFFFFFFFFF AND MUL OR SWAP1 SSTORE POP DUP2 PUSH1 0xB PUSH0 PUSH2 0x100 EXP DUP2 SLOAD DUP2 PUSH20 0xFFFFFFFFFFFFFFFFFFFFFFFFFFFFFFFFFFFFFFFF MUL NOT AND SWAP1 DUP4 PUSH20 0xFFFFFFFFFFFFFFFFFFFFFFFFFFFFFFFFFFFFFFFF AND MUL OR SWAP1 SSTORE POP DUP1 PUSH1 0xC PUSH0 PUSH2 0x100 EXP DUP2 SLOAD DUP2 PUSH20 0xFFFFFFFFFFFFFFFFFFFFFFFFFFFFFFFFFFFFFFFF MUL NOT AND SWAP1 DUP4 PUSH20 0xFFFFFFFFFFFFFFFFFFFFFFFFFFFFFFFFFFFFFFFF AND MUL OR SWAP1 SSTORE POP POP POP POP PUSH2 0x6B2 JUMP JUMPDEST PUSH0 PUSH1 0x6 PUSH0 SWAP1 SLOAD SWAP1 PUSH2 0x100 EXP SWAP1 DIV PUSH20 0xFFFFFFFFFFFFFFFFFFFFFFFFFFFFFFFFFFFFFFFF AND SWAP1 POP DUP2 PUSH1 0x6 PUSH0 PUSH2 0x100 EXP DUP2 SLOAD DUP2 PUSH20 0xFFFFFFFFFFFFFFFFFFFFFFFFFFFFFFFFFFFFFFFF MUL NOT AND SWAP1 DUP4 PUSH20 0xFFFFFFFFFFFFFFFFFFFFFFFFFFFFFFFFFFFFFFFF AND MUL OR SWAP1 SSTORE POP DUP2 PUSH20 0xFFFFFFFFFFFFFFFFFFFFFFFFFFFFFFFFFFFFFFFF AND DUP2 PUSH20 0xFFFFFFFFFFFFFFFFFFFFFFFFFFFFFFFFFFFFFFFF AND PUSH32 0x8BE0079C531659141344CD1FD0A4F28419497F9722A3DAAFE3B4186F6B6457E0 PUSH1 0x40 MLOAD PUSH1 0x40 MLOAD DUP1 SWAP2 SUB SWAP1 LOG3 POP POP JUMP JUMPDEST PUSH0 DUP1 REVERT JUMPDEST PUSH0 PUSH20 0xFFFFFFFFFFFFFFFFFFFFFFFFFFFFFFFFFFFFFFFF DUP3 AND SWAP1 POP SWAP2 SWAP1 POP JUMP JUMPDEST PUSH0 PUSH2 0x300 DUP3 PUSH2 0x2D7 JUMP JUMPDEST SWAP1 POP SWAP2 SWAP1 POP JUMP JUMPDEST PUSH2 0x310 DUP2 PUSH2 0x2F6 JUMP JUMPDEST DUP2 EQ PUSH2 0x31A JUMPI PUSH0 DUP1 REVERT JUMPDEST POP JUMP JUMPDEST PUSH0 DUP2 MLOAD SWAP1 POP PUSH2 0x32B DUP2 PUSH2 0x307 JUMP JUMPDEST SWAP3 SWAP2 POP POP JUMP JUMPDEST PUSH0 DUP1 PUSH0 PUSH1 0x60 DUP5 DUP7 SUB SLT ISZERO PUSH2 0x348 JUMPI PUSH2 0x347 PUSH2 0x2D3 JUMP JUMPDEST JUMPDEST PUSH0 PUSH2 0x355 DUP7 DUP3 DUP8 ADD PUSH2 0x31D JUMP JUMPDEST SWAP4 POP POP PUSH1 0x20 PUSH2 0x366 DUP7 DUP3 DUP8 ADD PUSH2 0x31D JUMP JUMPDEST SWAP3 POP POP PUSH1 0x40 PUSH2 0x377 DUP7 DUP3 DUP8 ADD PUSH2 0x31D JUMP JUMPDEST SWAP2 POP POP SWAP3 POP SWAP3 POP SWAP3 JUMP JUMPDEST PUSH0 DUP2 MLOAD SWAP1 POP SWAP2 SWAP1 POP JUMP JUMPDEST PUSH32 0x4E487B7100000000000000000000000000000000000000000000000000000000 PUSH0 MSTORE PUSH1 0x41 PUSH1 0x4 MSTORE PUSH1 0x24 PUSH0 REVERT JUMPDEST PUSH32 0x4E487B7100000000000000000000000000000000000000000000000000000000 PUSH0 MSTORE PUSH1 0x22 PUSH1 0x4 MSTORE PUSH1 0x24 PUSH0 REVERT JUMPDEST PUSH0 PUSH1 0x2 DUP3 DIV SWAP1 POP PUSH1 0x1 DUP3 AND DUP1 PUSH2 0x3FC JUMPI PUSH1 0x7F DUP3 AND SWAP2 POP JUMPDEST PUSH1 0x20 DUP3 LT DUP2 SUB PUSH2 0x40F JUMPI PUSH2 0x40E PUSH2 0x3B8 JUMP JUMPDEST JUMPDEST POP SWAP2 SWAP1 POP JUMP JUMPDEST PUSH0 DUP2 SWAP1 POP DUP2 PUSH0 MSTORE PUSH1 0x20 PUSH0 KECCAK256 SWAP1 POP SWAP2 SWAP1 POP JUMP JUMPDEST PUSH0 PUSH1 0x20 PUSH1 0x1F DUP4 ADD DIV SWAP1 POP SWAP2 SWAP1 POP JUMP JUMPDEST PUSH0 DUP3 DUP3 SHL SWAP1 POP SWAP3 SWAP2 POP POP JUMP JUMPDEST PUSH0 PUSH1 0x8 DUP4 MUL PUSH2 0x471 PUSH32 0xFFFFFFFFFFFFFFFFFFFFFFFFFFFFFFFFFFFFFFFFFFFFFFFFFFFFFFFFFFFFFFFF DUP3 PUSH2 0x436 JUMP JUMPDEST PUSH2 0x47B DUP7 DUP4 PUSH2 0x436 JUMP JUMPDEST SWAP6 POP DUP1 NOT DUP5 AND SWAP4 POP DUP1 DUP7 AND DUP5 OR SWAP3 POP POP POP SWAP4 SWAP3 POP POP POP JUMP JUMPDEST PUSH0 DUP2 SWAP1 POP SWAP2 SWAP1 POP JUMP JUMPDEST PUSH0 DUP2 SWAP1 POP SWAP2 SWAP1 POP JUMP JUMPDEST PUSH0 PUSH2 0x4BF PUSH2 0x4BA PUSH2 0x4B5 DUP5 PUSH2 0x493 JUMP JUMPDEST PUSH2 0x49C JUMP JUMPDEST PUSH2 0x493 JUMP JUMPDEST SWAP1 POP SWAP2 SWAP1 POP JUMP JUMPDEST PUSH0 DUP2 SWAP1 POP SWAP2 SWAP1 POP JUMP JUMPDEST PUSH2 0x4D8 DUP4 PUSH2 0x4A5 JUMP JUMPDEST PUSH2 0x4EC PUSH2 0x4E4 DUP3 PUSH2 0x4C6 JUMP JUMPDEST DUP5 DUP5 SLOAD PUSH2 0x442 JUMP JUMPDEST DUP3 SSTORE POP POP POP POP JUMP JUMPDEST PUSH0 SWAP1 JUMP JUMPDEST PUSH2 0x500 PUSH2 0x4F4 JUMP JUMPDEST PUSH2 0x50B DUP2 DUP5 DUP5 PUSH2 0x4CF JUMP JUMPDEST POP POP POP JUMP JUMPDEST JUMPDEST DUP2 DUP2 LT ISZERO PUSH2 0x52E JUMPI PUSH2 0x523 PUSH0 DUP3 PUSH2 0x4F8 JUMP JUMPDEST PUSH1 0x1 DUP2 ADD SWAP1 POP PUSH2 0x511 JUMP JUMPDEST POP POP JUMP JUMPDEST PUSH1 0x1F DUP3 GT ISZERO PUSH2 0x573 JUMPI PUSH2 0x544 DUP2 PUSH2 0x415 JUMP JUMPDEST PUSH2 0x54D DUP5 PUSH2 0x427 JUMP JUMPDEST DUP2 ADD PUSH1 0x20 DUP6 LT ISZERO PUSH2 0x55C JUMPI DUP2 SWAP1 POP JUMPDEST PUSH2 0x570 PUSH2 0x568 DUP6 PUSH2 0x427 JUMP JUMPDEST DUP4 ADD DUP3 PUSH2 0x510 JUMP JUMPDEST POP POP JUMPDEST POP POP POP JUMP JUMPDEST PUSH0 DUP3 DUP3 SHR SWAP1 POP SWAP3 SWAP2 POP POP JUMP JUMPDEST PUSH0 PUSH2 0x593 PUSH0 NOT DUP5 PUSH1 0x8 MUL PUSH2 0x578 JUMP JUMPDEST NOT DUP1 DUP4 AND SWAP2 POP POP SWAP3 SWAP2 POP POP JUMP JUMPDEST PUSH0 PUSH2 0x5AB DUP4 DUP4 PUSH2 0x584 JUMP JUMPDEST SWAP2 POP DUP3 PUSH1 0x2 MUL DUP3 OR SWAP1 POP SWAP3 SWAP2 POP POP JUMP JUMPDEST PUSH2 0x5C4 DUP3 PUSH2 0x381 JUMP JUMPDEST PUSH8 0xFFFFFFFFFFFFFFFF DUP2 GT ISZERO PUSH2 0x5DD JUMPI PUSH2 0x5DC PUSH2 0x38B JUMP JUMPDEST JUMPDEST PUSH2 0x5E7 DUP3 SLOAD PUSH2 0x3E5 JUMP JUMPDEST PUSH2 0x5F2 DUP3 DUP3 DUP6 PUSH2 0x532 JUMP JUMPDEST PUSH0 PUSH1 0x20 SWAP1 POP PUSH1 0x1F DUP4 GT PUSH1 0x1 DUP2 EQ PUSH2 0x623 JUMPI PUSH0 DUP5 ISZERO PUSH2 0x611 JUMPI DUP3 DUP8 ADD MLOAD SWAP1 POP JUMPDEST PUSH2 0x61B DUP6 DUP3 PUSH2 0x5A0 JUMP JUMPDEST DUP7 SSTORE POP PUSH2 0x682 JUMP JUMPDEST PUSH1 0x1F NOT DUP5 AND PUSH2 0x631 DUP7 PUSH2 0x415 JUMP JUMPDEST PUSH0 JUMPDEST DUP3 DUP2 LT ISZERO PUSH2 0x658 JUMPI DUP5 DUP10 ADD MLOAD DUP3 SSTORE PUSH1 0x1 DUP3 ADD SWAP2 POP PUSH1 0x20 DUP6 ADD SWAP5 POP PUSH1 0x20 DUP2 ADD SWAP1 POP PUSH2 0x633 JUMP JUMPDEST DUP7 DUP4 LT ISZERO PUSH2 0x675 JUMPI DUP5 DUP10 ADD MLOAD PUSH2 0x671 PUSH1 0x1F DUP10 AND DUP3 PUSH2 0x584 JUMP JUMPDEST DUP4 SSTORE POP JUMPDEST PUSH1 0x1 PUSH1 0x2 DUP9 MUL ADD DUP9 SSTORE POP POP POP JUMPDEST POP POP POP POP POP POP JUMP JUMPDEST PUSH2 0x693 DUP2 PUSH2 0x2F6 JUMP JUMPDEST DUP3 MSTORE POP POP JUMP JUMPDEST PUSH0 PUSH1 0x20 DUP3 ADD SWAP1 POP PUSH2 0x6AC PUSH0 DUP4 ADD DUP5 PUSH2 0x68A JUMP JUMPDEST SWAP3 SWAP2 POP POP JUMP JUMPDEST PUSH2 0x4885 DUP1 PUSH2 0x6BF PUSH0 CODECOPY PUSH0 RETURN INVALID PUSH1 0x80 PUSH1 0x40 MSTORE CALLVALUE DUP1 ISZERO PUSH2 0xF JUMPI PUSH0 DUP1 REVERT JUMPDEST POP PUSH1 0x4 CALLDATASIZE LT PUSH2 0x171 JUMPI PUSH0 CALLDATALOAD PUSH1 0xE0 SHR DUP1 PUSH4 0x8EB507BC GT PUSH2 0xDC JUMPI DUP1 PUSH4 0xB88D4FDE GT PUSH2 0x95 JUMPI DUP1 PUSH4 0xD7C81B55 GT PUSH2 0x6F JUMPI DUP1 PUSH4 0xD7C81B55 EQ PUSH2 0x40F JUMPI DUP1 PUSH4 0xE985E9C5 EQ PUSH2 0x42D JUMPI DUP1 PUSH4 0xEFAA55A0 EQ PUSH2 0x45D JUMPI DUP1 PUSH4 0xF2FDE38B EQ PUSH2 0x479 JUMPI PUSH2 0x171 JUMP JUMPDEST DUP1 PUSH4 0xB88D4FDE EQ PUSH2 0x3B9 JUMPI DUP1 PUSH4 0xBCFA2208 EQ PUSH2 0x3D5 JUMPI DUP1 PUSH4 0xC87B56DD EQ PUSH2 0x3DF JUMPI PUSH2 0x171 JUMP JUMPDEST DUP1 PUSH4 0x8EB507BC EQ PUSH2 0x309 JUMPI DUP1 PUSH4 0x90E22EEF EQ PUSH2 0x327 JUMPI DUP1 PUSH4 0x95D89B41 EQ PUSH2 0x343 JUMPI DUP1 PUSH4 0x98255E15 EQ PUSH2 0x361 JUMPI DUP1 PUSH4 0xA22CB465 EQ PUSH2 0x37F JUMPI DUP1 PUSH4 0xA7214BC2 EQ PUSH2 0x39B JUMPI PUSH2 0x171 JUMP JUMPDEST DUP1 PUSH4 0x5873533D GT PUSH2 0x12E JUMPI DUP1 PUSH4 0x5873533D EQ PUSH2 0x247 JUMPI DUP1 PUSH4 0x6352211E EQ PUSH2 0x263 JUMPI DUP1 PUSH4 0x70A08231 EQ PUSH2 0x293 JUMPI DUP1 PUSH4 0x715018A6 EQ PUSH2 0x2C3 JUMPI DUP1 PUSH4 0x7255D729 EQ PUSH2 0x2CD JUMPI DUP1 PUSH4 0x8DA5CB5B EQ PUSH2 0x2EB JUMPI PUSH2 0x171 JUMP JUMPDEST DUP1 PUSH4 0x1FFC9A7 EQ PUSH2 0x175 JUMPI DUP1 PUSH4 0x6FDDE03 EQ PUSH2 0x1A5 JUMPI DUP1 PUSH4 0x81812FC EQ PUSH2 0x1C3 JUMPI DUP1 PUSH4 0x95EA7B3 EQ PUSH2 0x1F3 JUMPI DUP1 PUSH4 0x23B872DD EQ PUSH2 0x20F JUMPI DUP1 PUSH4 0x42842E0E EQ PUSH2 0x22B JUMPI JUMPDEST PUSH0 DUP1 REVERT JUMPDEST PUSH2 0x18F PUSH1 0x4 DUP1 CALLDATASIZE SUB DUP2 ADD SWAP1 PUSH2 0x18A SWAP2 SWAP1 PUSH2 0x37FB JUMP JUMPDEST PUSH2 0x495 JUMP JUMPDEST PUSH1 0x40 MLOAD PUSH2 0x19C SWAP2 SWAP1 PUSH2 0x3840 JUMP JUMPDEST PUSH1 0x40 MLOAD DUP1 SWAP2 SUB SWAP1 RETURN JUMPDEST PUSH2 0x1AD PUSH2 0x576 JUMP JUMPDEST PUSH1 0x40 MLOAD PUSH2 0x1BA SWAP2 SWAP1 PUSH2 0x38C9 JUMP JUMPDEST PUSH1 0x40 MLOAD DUP1 SWAP2 SUB SWAP1 RETURN JUMPDEST PUSH2 0x1DD PUSH1 0x4 DUP1 CALLDATASIZE SUB DUP2 ADD SWAP1 PUSH2 0x1D8 SWAP2 SWAP1 PUSH2 0x391C JUMP JUMPDEST PUSH2 0x605 JUMP JUMPDEST PUSH1 0x40 MLOAD PUSH2 0x1EA SWAP2 SWAP1 PUSH2 0x3986 JUMP JUMPDEST PUSH1 0x40 MLOAD DUP1 SWAP2 SUB SWAP1 RETURN JUMPDEST PUSH2 0x20D PUSH1 0x4 DUP1 CALLDATASIZE SUB DUP2 ADD SWAP1 PUSH2 0x208 SWAP2 SWAP1 PUSH2 0x39C9 JUMP JUMPDEST PUSH2 0x620 JUMP JUMPDEST STOP JUMPDEST PUSH2 0x229 PUSH1 0x4 DUP1 CALLDATASIZE SUB DUP2 ADD SWAP1 PUSH2 0x224 SWAP2 SWAP1 PUSH2 0x3A07 JUMP JUMPDEST PUSH2 0x636 JUMP JUMPDEST STOP JUMPDEST PUSH2 0x245 PUSH1 0x4 DUP1 CALLDATASIZE SUB DUP2 ADD SWAP1 PUSH2 0x240 SWAP2 SWAP1 PUSH2 0x3A07 JUMP JUMPDEST PUSH2 0x735 JUMP JUMPDEST STOP JUMPDEST PUSH2 0x261 PUSH1 0x4 DUP1 CALLDATASIZE SUB DUP2 ADD SWAP1 PUSH2 0x25C SWAP2 SWAP1 PUSH2 0x391C JUMP JUMPDEST PUSH2 0x754 JUMP JUMPDEST STOP JUMPDEST PUSH2 0x27D PUSH1 0x4 DUP1 CALLDATASIZE SUB DUP2 ADD SWAP1 PUSH2 0x278 SWAP2 SWAP1 PUSH2 0x391C JUMP JUMPDEST PUSH2 0x177B JUMP JUMPDEST PUSH1 0x40 MLOAD PUSH2 0x28A SWAP2 SWAP1 PUSH2 0x3986 JUMP JUMPDEST PUSH1 0x40 MLOAD DUP1 SWAP2 SUB SWAP1 RETURN JUMPDEST PUSH2 0x2AD PUSH1 0x4 DUP1 CALLDATASIZE SUB DUP2 ADD SWAP1 PUSH2 0x2A8 SWAP2 SWAP1 PUSH2 0x3A57 JUMP JUMPDEST PUSH2 0x178C JUMP JUMPDEST PUSH1 0x40 MLOAD PUSH2 0x2BA SWAP2 SWAP1 PUSH2 0x3A91 JUMP JUMPDEST PUSH1 0x40 MLOAD DUP1 SWAP2 SUB SWAP1 RETURN JUMPDEST PUSH2 0x2CB PUSH2 0x1842 JUMP JUMPDEST STOP JUMPDEST PUSH2 0x2D5 PUSH2 0x1855 JUMP JUMPDEST PUSH1 0x40 MLOAD PUSH2 0x2E2 SWAP2 SWAP1 PUSH2 0x3A91 JUMP JUMPDEST PUSH1 0x40 MLOAD DUP1 SWAP2 SUB SWAP1 RETURN JUMPDEST PUSH2 0x2F3 PUSH2 0x18FF JUMP JUMPDEST PUSH1 0x40 MLOAD PUSH2 0x300 SWAP2 SWAP1 PUSH2 0x3986 JUMP JUMPDEST PUSH1 0x40 MLOAD DUP1 SWAP2 SUB SWAP1 RETURN JUMPDEST PUSH2 0x311 PUSH2 0x1927 JUMP JUMPDEST PUSH1 0x40 MLOAD PUSH2 0x31E SWAP2 SWAP1 PUSH2 0x3B05 JUMP JUMPDEST PUSH1 0x40 MLOAD DUP1 SWAP2 SUB SWAP1 RETURN JUMPDEST PUSH2 0x341 PUSH1 0x4 DUP1 CALLDATASIZE SUB DUP2 ADD SWAP1 PUSH2 0x33C SWAP2 SWAP1 PUSH2 0x391C JUMP JUMPDEST PUSH2 0x194C JUMP JUMPDEST STOP JUMPDEST PUSH2 0x34B PUSH2 0x1F53 JUMP JUMPDEST PUSH1 0x40 MLOAD PUSH2 0x358 SWAP2 SWAP1 PUSH2 0x38C9 JUMP JUMPDEST PUSH1 0x40 MLOAD DUP1 SWAP2 SUB SWAP1 RETURN JUMPDEST PUSH2 0x369 PUSH2 0x1FE3 JUMP JUMPDEST PUSH1 0x40 MLOAD PUSH2 0x376 SWAP2 SWAP1 PUSH2 0x3B3E JUMP JUMPDEST PUSH1 0x40 MLOAD DUP1 SWAP2 SUB SWAP1 RETURN JUMPDEST PUSH2 0x399 PUSH1 0x4 DUP1 CALLDATASIZE SUB DUP2 ADD SWAP1 PUSH2 0x394 SWAP2 SWAP1 PUSH2 0x3B81 JUMP JUMPDEST PUSH2 0x2008 JUMP JUMPDEST STOP JUMPDEST PUSH2 0x3A3 PUSH2 0x201E JUMP JUMPDEST PUSH1 0x40 MLOAD PUSH2 0x3B0 SWAP2 SWAP1 PUSH2 0x3BDF JUMP JUMPDEST PUSH1 0x40 MLOAD DUP1 SWAP2 SUB SWAP1 RETURN JUMPDEST PUSH2 0x3D3 PUSH1 0x4 DUP1 CALLDATASIZE SUB DUP2 ADD SWAP1 PUSH2 0x3CE SWAP2 SWAP1 PUSH2 0x3D24 JUMP JUMPDEST PUSH2 0x2043 JUMP JUMPDEST STOP JUMPDEST PUSH2 0x3DD PUSH2 0x2060 JUMP JUMPDEST STOP JUMPDEST PUSH2 0x3F9 PUSH1 0x4 DUP1 CALLDATASIZE SUB DUP2 ADD SWAP1 PUSH2 0x3F4 SWAP2 SWAP1 PUSH2 0x391C JUMP JUMPDEST PUSH2 0x24D7 JUMP JUMPDEST PUSH1 0x40 MLOAD PUSH2 0x406 SWAP2 SWAP1 PUSH2 0x38C9 JUMP JUMPDEST PUSH1 0x40 MLOAD DUP1 SWAP2 SUB SWAP1 RETURN JUMPDEST PUSH2 0x417 PUSH2 0x253D JUMP JUMPDEST PUSH1 0x40 MLOAD PUSH2 0x424 SWAP2 SWAP1 PUSH2 0x3A91 JUMP JUMPDEST PUSH1 0x40 MLOAD DUP1 SWAP2 SUB SWAP1 RETURN JUMPDEST PUSH2 0x447 PUSH1 0x4 DUP1 CALLDATASIZE SUB DUP2 ADD SWAP1 PUSH2 0x442 SWAP2 SWAP1 PUSH2 0x3DA4 JUMP JUMPDEST PUSH2 0x2543 JUMP JUMPDEST PUSH1 0x40 MLOAD PUSH2 0x454 SWAP2 SWAP1 PUSH2 0x3840 JUMP JUMPDEST PUSH1 0x40 MLOAD DUP1 SWAP2 SUB SWAP1 RETURN JUMPDEST PUSH2 0x477 PUSH1 0x4 DUP1 CALLDATASIZE SUB DUP2 ADD SWAP1 PUSH2 0x472 SWAP2 SWAP1 PUSH2 0x391C JUMP JUMPDEST PUSH2 0x25D1 JUMP JUMPDEST STOP JUMPDEST PUSH2 0x493 PUSH1 0x4 DUP1 CALLDATASIZE SUB DUP2 ADD SWAP1 PUSH2 0x48E SWAP2 SWAP1 PUSH2 0x3A57 JUMP JUMPDEST PUSH2 0x2840 JUMP JUMPDEST STOP JUMPDEST PUSH0 PUSH32 0x80AC58CD00000000000000000000000000000000000000000000000000000000 PUSH28 0xFFFFFFFFFFFFFFFFFFFFFFFFFFFFFFFFFFFFFFFFFFFFFFFFFFFFFFFF NOT AND DUP3 PUSH28 0xFFFFFFFFFFFFFFFFFFFFFFFFFFFFFFFFFFFFFFFFFFFFFFFFFFFFFFFF NOT AND EQ DUP1 PUSH2 0x55F JUMPI POP PUSH32 0x5B5E139F00000000000000000000000000000000000000000000000000000000 PUSH28 0xFFFFFFFFFFFFFFFFFFFFFFFFFFFFFFFFFFFFFFFFFFFFFFFFFFFFFFFF NOT AND DUP3 PUSH28 0xFFFFFFFFFFFFFFFFFFFFFFFFFFFFFFFFFFFFFFFFFFFFFFFFFFFFFFFF NOT AND EQ JUMPDEST DUP1 PUSH2 0x56F JUMPI POP PUSH2 0x56E DUP3 PUSH2 0x28C4 JUMP JUMPDEST JUMPDEST SWAP1 POP SWAP2 SWAP1 POP JUMP JUMPDEST PUSH1 0x60 PUSH0 DUP1 SLOAD PUSH2 0x584 SWAP1 PUSH2 0x3E0F JUMP JUMPDEST DUP1 PUSH1 0x1F ADD PUSH1 0x20 DUP1 SWAP2 DIV MUL PUSH1 0x20 ADD PUSH1 0x40 MLOAD SWAP1 DUP2 ADD PUSH1 0x40 MSTORE DUP1 SWAP3 SWAP2 SWAP1 DUP2 DUP2 MSTORE PUSH1 0x20 ADD DUP3 DUP1 SLOAD PUSH2 0x5B0 SWAP1 PUSH2 0x3E0F JUMP JUMPDEST DUP1 ISZERO PUSH2 0x5FB JUMPI DUP1 PUSH1 0x1F LT PUSH2 0x5D2 JUMPI PUSH2 0x100 DUP1 DUP4 SLOAD DIV MUL DUP4 MSTORE SWAP2 PUSH1 0x20 ADD SWAP2 PUSH2 0x5FB JUMP JUMPDEST DUP3 ADD SWAP2 SWAP1 PUSH0 MSTORE PUSH1 0x20 PUSH0 KECCAK256 SWAP1 JUMPDEST DUP2 SLOAD DUP2 MSTORE SWAP1 PUSH1 0x1 ADD SWAP1 PUSH1 0x20 ADD DUP1 DUP4 GT PUSH2 0x5DE JUMPI DUP3 SWAP1 SUB PUSH1 0x1F AND DUP3 ADD SWAP2 JUMPDEST POP POP POP POP POP SWAP1 POP SWAP1 JUMP JUMPDEST PUSH0 PUSH2 0x60F DUP3 PUSH2 0x292D JUMP JUMPDEST POP PUSH2 0x619 DUP3 PUSH2 0x29B3 JUMP JUMPDEST SWAP1 POP SWAP2 SWAP1 POP JUMP JUMPDEST PUSH2 0x632 DUP3 DUP3 PUSH2 0x62D PUSH2 0x29EC JUMP JUMPDEST PUSH2 0x29F3 JUMP JUMPDEST POP POP JUMP JUMPDEST PUSH0 PUSH20 0xFFFFFFFFFFFFFFFFFFFFFFFFFFFFFFFFFFFFFFFF AND DUP3 PUSH20 0xFFFFFFFFFFFFFFFFFFFFFFFFFFFFFFFFFFFFFFFF AND SUB PUSH2 0x6A6 JUMPI PUSH0 PUSH1 0x40 MLOAD PUSH32 0x64A0AE9200000000000000000000000000000000000000000000000000000000 DUP2 MSTORE PUSH1 0x4 ADD PUSH2 0x69D SWAP2 SWAP1 PUSH2 0x3986 JUMP JUMPDEST PUSH1 0x40 MLOAD DUP1 SWAP2 SUB SWAP1 REVERT JUMPDEST PUSH0 PUSH2 0x6B9 DUP4 DUP4 PUSH2 0x6B4 PUSH2 0x29EC JUMP JUMPDEST PUSH2 0x2A05 JUMP JUMPDEST SWAP1 POP DUP4 PUSH20 0xFFFFFFFFFFFFFFFFFFFFFFFFFFFFFFFFFFFFFFFF AND DUP2 PUSH20 0xFFFFFFFFFFFFFFFFFFFFFFFFFFFFFFFFFFFFFFFF AND EQ PUSH2 0x72F JUMPI DUP4 DUP3 DUP3 PUSH1 0x40 MLOAD PUSH32 0x64283D7B00000000000000000000000000000000000000000000000000000000 DUP2 MSTORE PUSH1 0x4 ADD PUSH2 0x726 SWAP4 SWAP3 SWAP2 SWAP1 PUSH2 0x3E3F JUMP JUMPDEST PUSH1 0x40 MLOAD DUP1 SWAP2 SUB SWAP1 REVERT JUMPDEST POP POP POP POP JUMP JUMPDEST PUSH2 0x74F DUP4 DUP4 DUP4 PUSH1 0x40 MLOAD DUP1 PUSH1 0x20 ADD PUSH1 0x40 MSTORE DUP1 PUSH0 DUP2 MSTORE POP PUSH2 0x2043 JUMP JUMPDEST POP POP POP JUMP JUMPDEST PUSH0 PUSH20 0xFFFFFFFFFFFFFFFFFFFFFFFFFFFFFFFFFFFFFFFF AND PUSH1 0x7 PUSH0 PUSH1 0x1 PUSH1 0x8 SLOAD PUSH2 0x77D SWAP2 SWAP1 PUSH2 0x3EA1 JUMP JUMPDEST DUP2 MSTORE PUSH1 0x20 ADD SWAP1 DUP2 MSTORE PUSH1 0x20 ADD PUSH0 KECCAK256 PUSH0 ADD PUSH0 SWAP1 SLOAD SWAP1 PUSH2 0x100 EXP SWAP1 DIV PUSH20 0xFFFFFFFFFFFFFFFFFFFFFFFFFFFFFFFFFFFFFFFF AND PUSH20 0xFFFFFFFFFFFFFFFFFFFFFFFFFFFFFFFFFFFFFFFF AND SUB PUSH2 0x802 JUMPI PUSH1 0x40 MLOAD PUSH32 0x8C379A000000000000000000000000000000000000000000000000000000000 DUP2 MSTORE PUSH1 0x4 ADD PUSH2 0x7F9 SWAP1 PUSH2 0x3F1E JUMP JUMPDEST PUSH1 0x40 MLOAD DUP1 SWAP2 SUB SWAP1 REVERT JUMPDEST PUSH0 ISZERO ISZERO PUSH1 0x7 PUSH0 PUSH1 0x1 PUSH1 0x8 SLOAD PUSH2 0x817 SWAP2 SWAP1 PUSH2 0x3EA1 JUMP JUMPDEST DUP2 MSTORE PUSH1 0x20 ADD SWAP1 DUP2 MSTORE PUSH1 0x20 ADD PUSH0 KECCAK256 PUSH1 0x1 ADD PUSH1 0x16 SWAP1 SLOAD SWAP1 PUSH2 0x100 EXP SWAP1 DIV PUSH1 0xFF AND ISZERO ISZERO EQ PUSH2 0x877 JUMPI PUSH1 0x40 MLOAD PUSH32 0x8C379A000000000000000000000000000000000000000000000000000000000 DUP2 MSTORE PUSH1 0x4 ADD PUSH2 0x86E SWAP1 PUSH2 0x3F86 JUMP JUMPDEST PUSH1 0x40 MLOAD DUP1 SWAP2 SUB SWAP1 REVERT JUMPDEST PUSH1 0x1 DUP2 LT ISZERO DUP1 ISZERO PUSH2 0x889 JUMPI POP PUSH1 0x3 DUP2 GT ISZERO JUMPDEST PUSH2 0x8C8 JUMPI PUSH1 0x40 MLOAD PUSH32 0x8C379A000000000000000000000000000000000000000000000000000000000 DUP2 MSTORE PUSH1 0x4 ADD PUSH2 0x8BF SWAP1 PUSH2 0x3FEE JUMP JUMPDEST PUSH1 0x40 MLOAD DUP1 SWAP2 SUB SWAP1 REVERT JUMPDEST PUSH1 0x7 PUSH0 PUSH1 0x1 PUSH1 0x8 SLOAD PUSH2 0x8DA SWAP2 SWAP1 PUSH2 0x3EA1 JUMP JUMPDEST DUP2 MSTORE PUSH1 0x20 ADD SWAP1 DUP2 MSTORE PUSH1 0x20 ADD PUSH0 KECCAK256 PUSH0 ADD PUSH0 SWAP1 SLOAD SWAP1 PUSH2 0x100 EXP SWAP1 DIV PUSH20 0xFFFFFFFFFFFFFFFFFFFFFFFFFFFFFFFFFFFFFFFF AND PUSH20 0xFFFFFFFFFFFFFFFFFFFFFFFFFFFFFFFFFFFFFFFF AND CALLER PUSH20 0xFFFFFFFFFFFFFFFFFFFFFFFFFFFFFFFFFFFFFFFF AND EQ DUP1 PUSH2 0x9AE JUMPI POP PUSH1 0x7 PUSH0 PUSH1 0x1 PUSH1 0x8 SLOAD PUSH2 0x94F SWAP2 SWAP1 PUSH2 0x3EA1 JUMP JUMPDEST DUP2 MSTORE PUSH1 0x20 ADD SWAP1 DUP2 MSTORE PUSH1 0x20 ADD PUSH0 KECCAK256 PUSH1 0x1 ADD PUSH0 SWAP1 SLOAD SWAP1 PUSH2 0x100 EXP SWAP1 DIV PUSH20 0xFFFFFFFFFFFFFFFFFFFFFFFFFFFFFFFFFFFFFFFF AND PUSH20 0xFFFFFFFFFFFFFFFFFFFFFFFFFFFFFFFFFFFFFFFF AND CALLER PUSH20 0xFFFFFFFFFFFFFFFFFFFFFFFFFFFFFFFFFFFFFFFF AND EQ JUMPDEST PUSH2 0x9ED JUMPI PUSH1 0x40 MLOAD PUSH32 0x8C379A000000000000000000000000000000000000000000000000000000000 DUP2 MSTORE PUSH1 0x4 ADD PUSH2 0x9E4 SWAP1 PUSH2 0x407C JUMP JUMPDEST PUSH1 0x40 MLOAD DUP1 SWAP2 SUB SWAP1 REVERT JUMPDEST PUSH1 0x7 PUSH0 PUSH1 0x1 PUSH1 0x8 SLOAD PUSH2 0x9FF SWAP2 SWAP1 PUSH2 0x3EA1 JUMP JUMPDEST DUP2 MSTORE PUSH1 0x20 ADD SWAP1 DUP2 MSTORE PUSH1 0x20 ADD PUSH0 KECCAK256 PUSH0 ADD PUSH0 SWAP1 SLOAD SWAP1 PUSH2 0x100 EXP SWAP1 DIV PUSH20 0xFFFFFFFFFFFFFFFFFFFFFFFFFFFFFFFFFFFFFFFF AND PUSH20 0xFFFFFFFFFFFFFFFFFFFFFFFFFFFFFFFFFFFFFFFF AND CALLER PUSH20 0xFFFFFFFFFFFFFFFFFFFFFFFFFFFFFFFFFFFFFFFF AND SUB PUSH2 0xE09 JUMPI PUSH0 PUSH1 0x3 DUP2 GT ISZERO PUSH2 0xA73 JUMPI PUSH2 0xA72 PUSH2 0x409A JUMP JUMPDEST JUMPDEST PUSH1 0x7 PUSH0 PUSH1 0x1 PUSH1 0x8 SLOAD PUSH2 0xA85 SWAP2 SWAP1 PUSH2 0x3EA1 JUMP JUMPDEST DUP2 MSTORE PUSH1 0x20 ADD SWAP1 DUP2 MSTORE PUSH1 0x20 ADD PUSH0 KECCAK256 PUSH1 0x1 ADD PUSH1 0x14 SWAP1 SLOAD SWAP1 PUSH2 0x100 EXP SWAP1 DIV PUSH1 0xFF AND PUSH1 0x3 DUP2 GT ISZERO PUSH2 0xAB5 JUMPI PUSH2 0xAB4 PUSH2 0x409A JUMP JUMPDEST JUMPDEST EQ PUSH2 0xAF5 JUMPI PUSH1 0x40 MLOAD PUSH32 0x8C379A000000000000000000000000000000000000000000000000000000000 DUP2 MSTORE PUSH1 0x4 ADD PUSH2 0xAEC SWAP1 PUSH2 0x4111 JUMP JUMPDEST PUSH1 0x40 MLOAD DUP1 SWAP2 SUB SWAP1 REVERT JUMPDEST PUSH1 0x1 DUP2 SUB PUSH2 0xBDC JUMPI PUSH0 PUSH1 0xA PUSH0 SWAP1 SLOAD SWAP1 PUSH2 0x100 EXP SWAP1 DIV PUSH20 0xFFFFFFFFFFFFFFFFFFFFFFFFFFFFFFFFFFFFFFFF AND PUSH20 0xFFFFFFFFFFFFFFFFFFFFFFFFFFFFFFFFFFFFFFFF AND PUSH4 0x70A08231 CALLER PUSH1 0x40 MLOAD DUP3 PUSH4 0xFFFFFFFF AND PUSH1 0xE0 SHL DUP2 MSTORE PUSH1 0x4 ADD PUSH2 0xB58 SWAP2 SWAP1 PUSH2 0x3986 JUMP JUMPDEST PUSH1 0x20 PUSH1 0x40 MLOAD DUP1 DUP4 SUB DUP2 DUP7 GAS STATICCALL ISZERO DUP1 ISZERO PUSH2 0xB73 JUMPI RETURNDATASIZE PUSH0 DUP1 RETURNDATACOPY RETURNDATASIZE PUSH0 REVERT JUMPDEST POP POP POP POP PUSH1 0x40 MLOAD RETURNDATASIZE PUSH1 0x1F NOT PUSH1 0x1F DUP3 ADD AND DUP3 ADD DUP1 PUSH1 0x40 MSTORE POP DUP2 ADD SWAP1 PUSH2 0xB97 SWAP2 SWAP1 PUSH2 0x4143 JUMP JUMPDEST GT PUSH2 0xBD7 JUMPI PUSH1 0x40 MLOAD PUSH32 0x8C379A000000000000000000000000000000000000000000000000000000000 DUP2 MSTORE PUSH1 0x4 ADD PUSH2 0xBCE SWAP1 PUSH2 0x41B8 JUMP JUMPDEST PUSH1 0x40 MLOAD DUP1 SWAP2 SUB SWAP1 REVERT JUMPDEST PUSH2 0xDA8 JUMP JUMPDEST PUSH1 0x2 DUP2 SUB PUSH2 0xCC3 JUMPI PUSH0 PUSH1 0xB PUSH0 SWAP1 SLOAD SWAP1 PUSH2 0x100 EXP SWAP1 DIV PUSH20 0xFFFFFFFFFFFFFFFFFFFFFFFFFFFFFFFFFFFFFFFF AND PUSH20 0xFFFFFFFFFFFFFFFFFFFFFFFFFFFFFFFFFFFFFFFF AND PUSH4 0x70A08231 CALLER PUSH1 0x40 MLOAD DUP3 PUSH4 0xFFFFFFFF AND PUSH1 0xE0 SHL DUP2 MSTORE PUSH1 0x4 ADD PUSH2 0xC3F SWAP2 SWAP1 PUSH2 0x3986 JUMP JUMPDEST PUSH1 0x20 PUSH1 0x40 MLOAD DUP1 DUP4 SUB DUP2 DUP7 GAS STATICCALL ISZERO DUP1 ISZERO PUSH2 0xC5A JUMPI RETURNDATASIZE PUSH0 DUP1 RETURNDATACOPY RETURNDATASIZE PUSH0 REVERT JUMPDEST POP POP POP POP PUSH1 0x40 MLOAD RETURNDATASIZE PUSH1 0x1F NOT PUSH1 0x1F DUP3 ADD AND DUP3 ADD DUP1 PUSH1 0x40 MSTORE POP DUP2 ADD SWAP1 PUSH2 0xC7E SWAP2 SWAP1 PUSH2 0x4143 JUMP JUMPDEST GT PUSH2 0xCBE JUMPI PUSH1 0x40 MLOAD PUSH32 0x8C379A000000000000000000000000000000000000000000000000000000000 DUP2 MSTORE PUSH1 0x4 ADD PUSH2 0xCB5 SWAP1 PUSH2 0x4220 JUMP JUMPDEST PUSH1 0x40 MLOAD DUP1 SWAP2 SUB SWAP1 REVERT JUMPDEST PUSH2 0xDA7 JUMP JUMPDEST PUSH1 0x3 DUP2 SUB PUSH2 0xDA6 JUMPI PUSH0 PUSH1 0xC PUSH0 SWAP1 SLOAD SWAP1 PUSH2 0x100 EXP SWAP1 DIV PUSH20 0xFFFFFFFFFFFFFFFFFFFFFFFFFFFFFFFFFFFFFFFF AND PUSH20 0xFFFFFFFFFFFFFFFFFFFFFFFFFFFFFFFFFFFFFFFF AND PUSH4 0x70A08231 CALLER PUSH1 0x40 MLOAD DUP3 PUSH4 0xFFFFFFFF AND PUSH1 0xE0 SHL DUP2 MSTORE PUSH1 0x4 ADD PUSH2 0xD26 SWAP2 SWAP1 PUSH2 0x3986 JUMP JUMPDEST PUSH1 0x20 PUSH1 0x40 MLOAD DUP1 DUP4 SUB DUP2 DUP7 GAS STATICCALL ISZERO DUP1 ISZERO PUSH2 0xD41 JUMPI RETURNDATASIZE PUSH0 DUP1 RETURNDATACOPY RETURNDATASIZE PUSH0 REVERT JUMPDEST POP POP POP POP PUSH1 0x40 MLOAD RETURNDATASIZE PUSH1 0x1F NOT PUSH1 0x1F DUP3 ADD AND DUP3 ADD DUP1 PUSH1 0x40 MSTORE POP DUP2 ADD SWAP1 PUSH2 0xD65 SWAP2 SWAP1 PUSH2 0x4143 JUMP JUMPDEST GT PUSH2 0xDA5 JUMPI PUSH1 0x40 MLOAD PUSH32 0x8C379A000000000000000000000000000000000000000000000000000000000 DUP2 MSTORE PUSH1 0x4 ADD PUSH2 0xD9C SWAP1 PUSH2 0x4288 JUMP JUMPDEST PUSH1 0x40 MLOAD DUP1 SWAP2 SUB SWAP1 REVERT JUMPDEST JUMPDEST JUMPDEST JUMPDEST DUP1 PUSH1 0x3 DUP2 GT ISZERO PUSH2 0xDBB JUMPI PUSH2 0xDBA PUSH2 0x409A JUMP JUMPDEST JUMPDEST PUSH1 0x7 PUSH0 PUSH1 0x1 PUSH1 0x8 SLOAD PUSH2 0xDCD SWAP2 SWAP1 PUSH2 0x3EA1 JUMP JUMPDEST DUP2 MSTORE PUSH1 0x20 ADD SWAP1 DUP2 MSTORE PUSH1 0x20 ADD PUSH0 KECCAK256 PUSH1 0x1 ADD PUSH1 0x14 PUSH2 0x100 EXP DUP2 SLOAD DUP2 PUSH1 0xFF MUL NOT AND SWAP1 DUP4 PUSH1 0x3 DUP2 GT ISZERO PUSH2 0xDFF JUMPI PUSH2 0xDFE PUSH2 0x409A JUMP JUMPDEST JUMPDEST MUL OR SWAP1 SSTORE POP PUSH2 0x11AE JUMP JUMPDEST PUSH0 PUSH1 0x3 DUP2 GT ISZERO PUSH2 0xE1C JUMPI PUSH2 0xE1B PUSH2 0x409A JUMP JUMPDEST JUMPDEST PUSH1 0x7 PUSH0 PUSH1 0x1 PUSH1 0x8 SLOAD PUSH2 0xE2E SWAP2 SWAP1 PUSH2 0x3EA1 JUMP JUMPDEST DUP2 MSTORE PUSH1 0x20 ADD SWAP1 DUP2 MSTORE PUSH1 0x20 ADD PUSH0 KECCAK256 PUSH1 0x1 ADD PUSH1 0x15 SWAP1 SLOAD SWAP1 PUSH2 0x100 EXP SWAP1 DIV PUSH1 0xFF AND PUSH1 0x3 DUP2 GT ISZERO PUSH2 0xE5E JUMPI PUSH2 0xE5D PUSH2 0x409A JUMP JUMPDEST JUMPDEST EQ PUSH2 0xE9E JUMPI PUSH1 0x40 MLOAD PUSH32 0x8C379A000000000000000000000000000000000000000000000000000000000 DUP2 MSTORE PUSH1 0x4 ADD PUSH2 0xE95 SWAP1 PUSH2 0x4111 JUMP JUMPDEST PUSH1 0x40 MLOAD DUP1 SWAP2 SUB SWAP1 REVERT JUMPDEST PUSH1 0x1 DUP2 SUB PUSH2 0xF85 JUMPI PUSH0 PUSH1 0xA PUSH0 SWAP1 SLOAD SWAP1 PUSH2 0x100 EXP SWAP1 DIV PUSH20 0xFFFFFFFFFFFFFFFFFFFFFFFFFFFFFFFFFFFFFFFF AND PUSH20 0xFFFFFFFFFFFFFFFFFFFFFFFFFFFFFFFFFFFFFFFF AND PUSH4 0x70A08231 CALLER PUSH1 0x40 MLOAD DUP3 PUSH4 0xFFFFFFFF AND PUSH1 0xE0 SHL DUP2 MSTORE PUSH1 0x4 ADD PUSH2 0xF01 SWAP2 SWAP1 PUSH2 0x3986 JUMP JUMPDEST PUSH1 0x20 PUSH1 0x40 MLOAD DUP1 DUP4 SUB DUP2 DUP7 GAS STATICCALL ISZERO DUP1 ISZERO PUSH2 0xF1C JUMPI RETURNDATASIZE PUSH0 DUP1 RETURNDATACOPY RETURNDATASIZE PUSH0 REVERT JUMPDEST POP POP POP POP PUSH1 0x40 MLOAD RETURNDATASIZE PUSH1 0x1F NOT PUSH1 0x1F DUP3 ADD AND DUP3 ADD DUP1 PUSH1 0x40 MSTORE POP DUP2 ADD SWAP1 PUSH2 0xF40 SWAP2 SWAP1 PUSH2 0x4143 JUMP JUMPDEST GT PUSH2 0xF80 JUMPI PUSH1 0x40 MLOAD PUSH32 0x8C379A000000000000000000000000000000000000000000000000000000000 DUP2 MSTORE PUSH1 0x4 ADD PUSH2 0xF77 SWAP1 PUSH2 0x41B8 JUMP JUMPDEST PUSH1 0x40 MLOAD DUP1 SWAP2 SUB SWAP1 REVERT JUMPDEST PUSH2 0x1151 JUMP JUMPDEST PUSH1 0x2 DUP2 SUB PUSH2 0x106C JUMPI PUSH0 PUSH1 0xB PUSH0 SWAP1 SLOAD SWAP1 PUSH2 0x100 EXP SWAP1 DIV PUSH20 0xFFFFFFFFFFFFFFFFFFFFFFFFFFFFFFFFFFFFFFFF AND PUSH20 0xFFFFFFFFFFFFFFFFFFFFFFFFFFFFFFFFFFFFFFFF AND PUSH4 0x70A08231 CALLER PUSH1 0x40 MLOAD DUP3 PUSH4 0xFFFFFFFF AND PUSH1 0xE0 SHL DUP2 MSTORE PUSH1 0x4 ADD PUSH2 0xFE8 SWAP2 SWAP1 PUSH2 0x3986 JUMP JUMPDEST PUSH1 0x20 PUSH1 0x40 MLOAD DUP1 DUP4 SUB DUP2 DUP7 GAS STATICCALL ISZERO DUP1 ISZERO PUSH2 0x1003 JUMPI RETURNDATASIZE PUSH0 DUP1 RETURNDATACOPY RETURNDATASIZE PUSH0 REVERT JUMPDEST POP POP POP POP PUSH1 0x40 MLOAD RETURNDATASIZE PUSH1 0x1F NOT PUSH1 0x1F DUP3 ADD AND DUP3 ADD DUP1 PUSH1 0x40 MSTORE POP DUP2 ADD SWAP1 PUSH2 0x1027 SWAP2 SWAP1 PUSH2 0x4143 JUMP JUMPDEST GT PUSH2 0x1067 JUMPI PUSH1 0x40 MLOAD PUSH32 0x8C379A000000000000000000000000000000000000000000000000000000000 DUP2 MSTORE PUSH1 0x4 ADD PUSH2 0x105E SWAP1 PUSH2 0x4220 JUMP JUMPDEST PUSH1 0x40 MLOAD DUP1 SWAP2 SUB SWAP1 REVERT JUMPDEST PUSH2 0x1150 JUMP JUMPDEST PUSH1 0x3 DUP2 SUB PUSH2 0x114F JUMPI PUSH0 PUSH1 0xC PUSH0 SWAP1 SLOAD SWAP1 PUSH2 0x100 EXP SWAP1 DIV PUSH20 0xFFFFFFFFFFFFFFFFFFFFFFFFFFFFFFFFFFFFFFFF AND PUSH20 0xFFFFFFFFFFFFFFFFFFFFFFFFFFFFFFFFFFFFFFFF AND PUSH4 0x70A08231 CALLER PUSH1 0x40 MLOAD DUP3 PUSH4 0xFFFFFFFF AND PUSH1 0xE0 SHL DUP2 MSTORE PUSH1 0x4 ADD PUSH2 0x10CF SWAP2 SWAP1 PUSH2 0x3986 JUMP JUMPDEST PUSH1 0x20 PUSH1 0x40 MLOAD DUP1 DUP4 SUB DUP2 DUP7 GAS STATICCALL ISZERO DUP1 ISZERO PUSH2 0x10EA JUMPI RETURNDATASIZE PUSH0 DUP1 RETURNDATACOPY RETURNDATASIZE PUSH0 REVERT JUMPDEST POP POP POP POP PUSH1 0x40 MLOAD RETURNDATASIZE PUSH1 0x1F NOT PUSH1 0x1F DUP3 ADD AND DUP3 ADD DUP1 PUSH1 0x40 MSTORE POP DUP2 ADD SWAP1 PUSH2 0x110E SWAP2 SWAP1 PUSH2 0x4143 JUMP JUMPDEST GT PUSH2 0x114E JUMPI PUSH1 0x40 MLOAD PUSH32 0x8C379A000000000000000000000000000000000000000000000000000000000 DUP2 MSTORE PUSH1 0x4 ADD PUSH2 0x1145 SWAP1 PUSH2 0x4288 JUMP JUMPDEST PUSH1 0x40 MLOAD DUP1 SWAP2 SUB SWAP1 REVERT JUMPDEST JUMPDEST JUMPDEST JUMPDEST DUP1 PUSH1 0x3 DUP2 GT ISZERO PUSH2 0x1164 JUMPI PUSH2 0x1163 PUSH2 0x409A JUMP JUMPDEST JUMPDEST PUSH1 0x7 PUSH0 PUSH1 0x1 PUSH1 0x8 SLOAD PUSH2 0x1176 SWAP2 SWAP1 PUSH2 0x3EA1 JUMP JUMPDEST DUP2 MSTORE PUSH1 0x20 ADD SWAP1 DUP2 MSTORE PUSH1 0x20 ADD PUSH0 KECCAK256 PUSH1 0x1 ADD PUSH1 0x15 PUSH2 0x100 EXP DUP2 SLOAD DUP2 PUSH1 0xFF MUL NOT AND SWAP1 DUP4 PUSH1 0x3 DUP2 GT ISZERO PUSH2 0x11A8 JUMPI PUSH2 0x11A7 PUSH2 0x409A JUMP JUMPDEST JUMPDEST MUL OR SWAP1 SSTORE POP JUMPDEST PUSH32 0xA6E7005509CADC41086129610194D39FF0B053ED97E916CA2C33FAE378EF83BB PUSH1 0x1 PUSH1 0x8 SLOAD PUSH2 0x11DE SWAP2 SWAP1 PUSH2 0x3EA1 JUMP JUMPDEST CALLER DUP4 PUSH1 0x3 DUP2 GT ISZERO PUSH2 0x11F2 JUMPI PUSH2 0x11F1 PUSH2 0x409A JUMP JUMPDEST JUMPDEST PUSH1 0x40 MLOAD PUSH2 0x1201 SWAP4 SWAP3 SWAP2 SWAP1 PUSH2 0x42EC JUMP JUMPDEST PUSH1 0x40 MLOAD DUP1 SWAP2 SUB SWAP1 LOG1 PUSH0 PUSH1 0x3 DUP2 GT ISZERO PUSH2 0x121C JUMPI PUSH2 0x121B PUSH2 0x409A JUMP JUMPDEST JUMPDEST PUSH1 0x7 PUSH0 PUSH1 0x1 PUSH1 0x8 SLOAD PUSH2 0x122E SWAP2 SWAP1 PUSH2 0x3EA1 JUMP JUMPDEST DUP2 MSTORE PUSH1 0x20 ADD SWAP1 DUP2 MSTORE PUSH1 0x20 ADD PUSH0 KECCAK256 PUSH1 0x1 ADD PUSH1 0x14 SWAP1 SLOAD SWAP1 PUSH2 0x100 EXP SWAP1 DIV PUSH1 0xFF AND PUSH1 0x3 DUP2 GT ISZERO PUSH2 0x125E JUMPI PUSH2 0x125D PUSH2 0x409A JUMP JUMPDEST JUMPDEST EQ ISZERO DUP1 ISZERO PUSH2 0x12BF JUMPI POP PUSH0 PUSH1 0x3 DUP2 GT ISZERO PUSH2 0x127A JUMPI PUSH2 0x1279 PUSH2 0x409A JUMP JUMPDEST JUMPDEST PUSH1 0x7 PUSH0 PUSH1 0x1 PUSH1 0x8 SLOAD PUSH2 0x128C SWAP2 SWAP1 PUSH2 0x3EA1 JUMP JUMPDEST DUP2 MSTORE PUSH1 0x20 ADD SWAP1 DUP2 MSTORE PUSH1 0x20 ADD PUSH0 KECCAK256 PUSH1 0x1 ADD PUSH1 0x15 SWAP1 SLOAD SWAP1 PUSH2 0x100 EXP SWAP1 DIV PUSH1 0xFF AND PUSH1 0x3 DUP2 GT ISZERO PUSH2 0x12BC JUMPI PUSH2 0x12BB PUSH2 0x409A JUMP JUMPDEST JUMPDEST EQ ISZERO JUMPDEST ISZERO PUSH2 0x1778 JUMPI PUSH0 PUSH1 0x60 PUSH1 0x7 PUSH0 PUSH1 0x1 PUSH1 0x8 SLOAD PUSH2 0x12D9 SWAP2 SWAP1 PUSH2 0x3EA1 JUMP JUMPDEST DUP2 MSTORE PUSH1 0x20 ADD SWAP1 DUP2 MSTORE PUSH1 0x20 ADD PUSH0 KECCAK256 PUSH1 0x1 ADD PUSH1 0x15 SWAP1 SLOAD SWAP1 PUSH2 0x100 EXP SWAP1 DIV PUSH1 0xFF AND PUSH1 0x3 DUP2 GT ISZERO PUSH2 0x1309 JUMPI PUSH2 0x1308 PUSH2 0x409A JUMP JUMPDEST JUMPDEST PUSH1 0x7 PUSH0 PUSH1 0x1 PUSH1 0x8 SLOAD PUSH2 0x131B SWAP2 SWAP1 PUSH2 0x3EA1 JUMP JUMPDEST DUP2 MSTORE PUSH1 0x20 ADD SWAP1 DUP2 MSTORE PUSH1 0x20 ADD PUSH0 KECCAK256 PUSH1 0x1 ADD PUSH1 0x14 SWAP1 SLOAD SWAP1 PUSH2 0x100 EXP SWAP1 DIV PUSH1 0xFF AND PUSH1 0x3 DUP2 GT ISZERO PUSH2 0x134B JUMPI PUSH2 0x134A PUSH2 0x409A JUMP JUMPDEST JUMPDEST SUB PUSH2 0x1390 JUMPI PUSH0 SWAP2 POP PUSH1 0x40 MLOAD DUP1 PUSH1 0x40 ADD PUSH1 0x40 MSTORE DUP1 PUSH1 0xB DUP2 MSTORE PUSH1 0x20 ADD PUSH32 0x4974277320612074696521000000000000000000000000000000000000000000 DUP2 MSTORE POP SWAP1 POP PUSH2 0x16F1 JUMP JUMPDEST PUSH1 0x1 PUSH1 0x3 DUP2 GT ISZERO PUSH2 0x13A4 JUMPI PUSH2 0x13A3 PUSH2 0x409A JUMP JUMPDEST JUMPDEST PUSH1 0x7 PUSH0 PUSH1 0x1 PUSH1 0x8 SLOAD PUSH2 0x13B6 SWAP2 SWAP1 PUSH2 0x3EA1 JUMP JUMPDEST DUP2 MSTORE PUSH1 0x20 ADD SWAP1 DUP2 MSTORE PUSH1 0x20 ADD PUSH0 KECCAK256 PUSH1 0x1 ADD PUSH1 0x14 SWAP1 SLOAD SWAP1 PUSH2 0x100 EXP SWAP1 DIV PUSH1 0xFF AND PUSH1 0x3 DUP2 GT ISZERO PUSH2 0x13E6 JUMPI PUSH2 0x13E5 PUSH2 0x409A JUMP JUMPDEST JUMPDEST EQ DUP1 ISZERO PUSH2 0x1445 JUMPI POP PUSH1 0x3 DUP1 DUP2 GT ISZERO PUSH2 0x1401 JUMPI PUSH2 0x1400 PUSH2 0x409A JUMP JUMPDEST JUMPDEST PUSH1 0x7 PUSH0 PUSH1 0x1 PUSH1 0x8 SLOAD PUSH2 0x1413 SWAP2 SWAP1 PUSH2 0x3EA1 JUMP JUMPDEST DUP2 MSTORE PUSH1 0x20 ADD SWAP1 DUP2 MSTORE PUSH1 0x20 ADD PUSH0 KECCAK256 PUSH1 0x1 ADD PUSH1 0x15 SWAP1 SLOAD SWAP1 PUSH2 0x100 EXP SWAP1 DIV PUSH1 0xFF AND PUSH1 0x3 DUP2 GT ISZERO PUSH2 0x1443 JUMPI PUSH2 0x1442 PUSH2 0x409A JUMP JUMPDEST JUMPDEST EQ JUMPDEST DUP1 PUSH2 0x1502 JUMPI POP PUSH1 0x2 PUSH1 0x3 DUP2 GT ISZERO PUSH2 0x145F JUMPI PUSH2 0x145E PUSH2 0x409A JUMP JUMPDEST JUMPDEST PUSH1 0x7 PUSH0 PUSH1 0x1 PUSH1 0x8 SLOAD PUSH2 0x1471 SWAP2 SWAP1 PUSH2 0x3EA1 JUMP JUMPDEST DUP2 MSTORE PUSH1 0x20 ADD SWAP1 DUP2 MSTORE PUSH1 0x20 ADD PUSH0 KECCAK256 PUSH1 0x1 ADD PUSH1 0x14 SWAP1 SLOAD SWAP1 PUSH2 0x100 EXP SWAP1 DIV PUSH1 0xFF AND PUSH1 0x3 DUP2 GT ISZERO PUSH2 0x14A1 JUMPI PUSH2 0x14A0 PUSH2 0x409A JUMP JUMPDEST JUMPDEST EQ DUP1 ISZERO PUSH2 0x1501 JUMPI POP PUSH1 0x1 PUSH1 0x3 DUP2 GT ISZERO PUSH2 0x14BD JUMPI PUSH2 0x14BC PUSH2 0x409A JUMP JUMPDEST JUMPDEST PUSH1 0x7 PUSH0 PUSH1 0x1 PUSH1 0x8 SLOAD PUSH2 0x14CF SWAP2 SWAP1 PUSH2 0x3EA1 JUMP JUMPDEST DUP2 MSTORE PUSH1 0x20 ADD SWAP1 DUP2 MSTORE PUSH1 0x20 ADD PUSH0 KECCAK256 PUSH1 0x1 ADD PUSH1 0x15 SWAP1 SLOAD SWAP1 PUSH2 0x100 EXP SWAP1 DIV PUSH1 0xFF AND PUSH1 0x3 DUP2 GT ISZERO PUSH2 0x14FF JUMPI PUSH2 0x14FE PUSH2 0x409A JUMP JUMPDEST JUMPDEST EQ JUMPDEST JUMPDEST DUP1 PUSH2 0x15BE JUMPI POP PUSH1 0x3 DUP1 DUP2 GT ISZERO PUSH2 0x151B JUMPI PUSH2 0x151A PUSH2 0x409A JUMP JUMPDEST JUMPDEST PUSH1 0x7 PUSH0 PUSH1 0x1 PUSH1 0x8 SLOAD PUSH2 0x152D SWAP2 SWAP1 PUSH2 0x3EA1 JUMP JUMPDEST DUP2 MSTORE PUSH1 0x20 ADD SWAP1 DUP2 MSTORE PUSH1 0x20 ADD PUSH0 KECCAK256 PUSH1 0x1 ADD PUSH1 0x14 SWAP1 SLOAD SWAP1 PUSH2 0x100 EXP SWAP1 DIV PUSH1 0xFF AND PUSH1 0x3 DUP2 GT ISZERO PUSH2 0x155D JUMPI PUSH2 0x155C PUSH2 0x409A JUMP JUMPDEST JUMPDEST EQ DUP1 ISZERO PUSH2 0x15BD JUMPI POP PUSH1 0x2 PUSH1 0x3 DUP2 GT ISZERO PUSH2 0x1579 JUMPI PUSH2 0x1578 PUSH2 0x409A JUMP JUMPDEST JUMPDEST PUSH1 0x7 PUSH0 PUSH1 0x1 PUSH1 0x8 SLOAD PUSH2 0x158B SWAP2 SWAP1 PUSH2 0x3EA1 JUMP JUMPDEST DUP2 MSTORE PUSH1 0x20 ADD SWAP1 DUP2 MSTORE PUSH1 0x20 ADD PUSH0 KECCAK256 PUSH1 0x1 ADD PUSH1 0x15 SWAP1 SLOAD SWAP1 PUSH2 0x100 EXP SWAP1 DIV PUSH1 0xFF AND PUSH1 0x3 DUP2 GT ISZERO PUSH2 0x15BB JUMPI PUSH2 0x15BA PUSH2 0x409A JUMP JUMPDEST JUMPDEST EQ JUMPDEST JUMPDEST ISZERO PUSH2 0x165B JUMPI PUSH1 0x7 PUSH0 PUSH1 0x1 PUSH1 0x8 SLOAD PUSH2 0x15D5 SWAP2 SWAP1 PUSH2 0x3EA1 JUMP JUMPDEST DUP2 MSTORE PUSH1 0x20 ADD SWAP1 DUP2 MSTORE PUSH1 0x20 ADD PUSH0 KECCAK256 PUSH0 ADD PUSH0 SWAP1 SLOAD SWAP1 PUSH2 0x100 EXP SWAP1 DIV PUSH20 0xFFFFFFFFFFFFFFFFFFFFFFFFFFFFFFFFFFFFFFFF AND SWAP2 POP PUSH1 0x40 MLOAD DUP1 PUSH1 0x40 ADD PUSH1 0x40 MSTORE DUP1 PUSH1 0xE DUP2 MSTORE PUSH1 0x20 ADD PUSH32 0x506C6179657220312077696E7321000000000000000000000000000000000000 DUP2 MSTORE POP SWAP1 POP PUSH2 0x1656 DUP3 PUSH1 0x1 PUSH1 0x8 SLOAD PUSH2 0x1651 SWAP2 SWAP1 PUSH2 0x3EA1 JUMP JUMPDEST PUSH2 0x2C10 JUMP JUMPDEST PUSH2 0x16F0 JUMP JUMPDEST PUSH1 0x7 PUSH0 PUSH1 0x1 PUSH1 0x8 SLOAD PUSH2 0x166D SWAP2 SWAP1 PUSH2 0x3EA1 JUMP JUMPDEST DUP2 MSTORE PUSH1 0x20 ADD SWAP1 DUP2 MSTORE PUSH1 0x20 ADD PUSH0 KECCAK256 PUSH1 0x1 ADD PUSH0 SWAP1 SLOAD SWAP1 PUSH2 0x100 EXP SWAP1 DIV PUSH20 0xFFFFFFFFFFFFFFFFFFFFFFFFFFFFFFFFFFFFFFFF AND SWAP2 POP PUSH1 0x40 MLOAD DUP1 PUSH1 0x40 ADD PUSH1 0x40 MSTORE DUP1 PUSH1 0xE DUP2 MSTORE PUSH1 0x20 ADD PUSH32 0x506C6179657220322077696E7321000000000000000000000000000000000000 DUP2 MSTORE POP SWAP1 POP PUSH2 0x16EF DUP3 PUSH1 0x1 PUSH1 0x8 SLOAD PUSH2 0x16EA SWAP2 SWAP1 PUSH2 0x3EA1 JUMP JUMPDEST PUSH2 0x2C10 JUMP JUMPDEST JUMPDEST JUMPDEST PUSH32 0x9E58CDE61339304C976B975A6387E3B7D0BE6E96E75824BF92A53D0028F77C10 PUSH1 0x1 PUSH1 0x8 SLOAD PUSH2 0x1721 SWAP2 SWAP1 PUSH2 0x3EA1 JUMP JUMPDEST DUP4 DUP4 PUSH1 0x40 MLOAD PUSH2 0x1732 SWAP4 SWAP3 SWAP2 SWAP1 PUSH2 0x4321 JUMP JUMPDEST PUSH1 0x40 MLOAD DUP1 SWAP2 SUB SWAP1 LOG1 PUSH1 0x1 PUSH1 0x7 PUSH0 PUSH1 0x1 PUSH1 0x8 SLOAD PUSH2 0x174E SWAP2 SWAP1 PUSH2 0x3EA1 JUMP JUMPDEST DUP2 MSTORE PUSH1 0x20 ADD SWAP1 DUP2 MSTORE PUSH1 0x20 ADD PUSH0 KECCAK256 PUSH1 0x1 ADD PUSH1 0x16 PUSH2 0x100 EXP DUP2 SLOAD DUP2 PUSH1 0xFF MUL NOT AND SWAP1 DUP4 ISZERO ISZERO MUL OR SWAP1 SSTORE POP POP POP JUMPDEST POP JUMP JUMPDEST PUSH0 PUSH2 0x1785 DUP3 PUSH2 0x292D JUMP JUMPDEST SWAP1 POP SWAP2 SWAP1 POP JUMP JUMPDEST PUSH0 DUP1 PUSH20 0xFFFFFFFFFFFFFFFFFFFFFFFFFFFFFFFFFFFFFFFF AND DUP3 PUSH20 0xFFFFFFFFFFFFFFFFFFFFFFFFFFFFFFFFFFFFFFFF AND SUB PUSH2 0x17FD JUMPI PUSH0 PUSH1 0x40 MLOAD PUSH32 0x89C62B6400000000000000000000000000000000000000000000000000000000 DUP2 MSTORE PUSH1 0x4 ADD PUSH2 0x17F4 SWAP2 SWAP1 PUSH2 0x3986 JUMP JUMPDEST PUSH1 0x40 MLOAD DUP1 SWAP2 SUB SWAP1 REVERT JUMPDEST PUSH1 0x3 PUSH0 DUP4 PUSH20 0xFFFFFFFFFFFFFFFFFFFFFFFFFFFFFFFFFFFFFFFF AND PUSH20 0xFFFFFFFFFFFFFFFFFFFFFFFFFFFFFFFFFFFFFFFF AND DUP2 MSTORE PUSH1 0x20 ADD SWAP1 DUP2 MSTORE PUSH1 0x20 ADD PUSH0 KECCAK256 SLOAD SWAP1 POP SWAP2 SWAP1 POP JUMP JUMPDEST PUSH2 0x184A PUSH2 0x2C2D JUMP JUMPDEST PUSH2 0x1853 PUSH0 PUSH2 0x2CB4 JUMP JUMPDEST JUMP JUMPDEST PUSH0 CALLER PUSH1 0x7 PUSH0 PUSH1 0x8 SLOAD DUP2 MSTORE PUSH1 0x20 ADD SWAP1 DUP2 MSTORE PUSH1 0x20 ADD PUSH0 KECCAK256 PUSH0 ADD PUSH0 PUSH2 0x100 EXP DUP2 SLOAD DUP2 PUSH20 0xFFFFFFFFFFFFFFFFFFFFFFFFFFFFFFFFFFFFFFFF MUL NOT AND SWAP1 DUP4 PUSH20 0xFFFFFFFFFFFFFFFFFFFFFFFFFFFFFFFFFFFFFFFF AND MUL OR SWAP1 SSTORE POP PUSH32 0xC3E0F84839DC888C892A013D10C8F9D6DC05A21A879D0CE468CA558013E9121C PUSH1 0x8 SLOAD CALLER PUSH1 0x40 MLOAD PUSH2 0x18DC SWAP3 SWAP2 SWAP1 PUSH2 0x435D JUMP JUMPDEST PUSH1 0x40 MLOAD DUP1 SWAP2 SUB SWAP1 LOG1 PUSH1 0x8 PUSH0 DUP2 SLOAD DUP1 SWAP3 SWAP2 SWAP1 PUSH2 0x18F6 SWAP1 PUSH2 0x4384 JUMP JUMPDEST SWAP2 SWAP1 POP SSTORE SWAP1 POP SWAP1 JUMP JUMPDEST PUSH0 PUSH1 0x6 PUSH0 SWAP1 SLOAD SWAP1 PUSH2 0x100 EXP SWAP1 DIV PUSH20 0xFFFFFFFFFFFFFFFFFFFFFFFFFFFFFFFFFFFFFFFF AND SWAP1 POP SWAP1 JUMP JUMPDEST PUSH1 0xC PUSH0 SWAP1 SLOAD SWAP1 PUSH2 0x100 EXP SWAP1 DIV PUSH20 0xFFFFFFFFFFFFFFFFFFFFFFFFFFFFFFFFFFFFFFFF AND DUP2 JUMP JUMPDEST PUSH1 0x1 DUP2 LT ISZERO DUP1 ISZERO PUSH2 0x195E JUMPI POP PUSH1 0x3 DUP2 GT ISZERO JUMPDEST PUSH2 0x199D JUMPI PUSH1 0x40 MLOAD PUSH32 0x8C379A000000000000000000000000000000000000000000000000000000000 DUP2 MSTORE PUSH1 0x4 ADD PUSH2 0x1994 SWAP1 PUSH2 0x3FEE JUMP JUMPDEST PUSH1 0x40 MLOAD DUP1 SWAP2 SUB SWAP1 REVERT JUMPDEST PUSH1 0x1 DUP2 SUB PUSH2 0x1A84 JUMPI PUSH0 PUSH1 0xA PUSH0 SWAP1 SLOAD SWAP1 PUSH2 0x100 EXP SWAP1 DIV PUSH20 0xFFFFFFFFFFFFFFFFFFFFFFFFFFFFFFFFFFFFFFFF AND PUSH20 0xFFFFFFFFFFFFFFFFFFFFFFFFFFFFFFFFFFFFFFFF AND PUSH4 0x70A08231 CALLER PUSH1 0x40 MLOAD DUP3 PUSH4 0xFFFFFFFF AND PUSH1 0xE0 SHL DUP2 MSTORE PUSH1 0x4 ADD PUSH2 0x1A00 SWAP2 SWAP1 PUSH2 0x3986 JUMP JUMPDEST PUSH1 0x20 PUSH1 0x40 MLOAD DUP1 DUP4 SUB DUP2 DUP7 GAS STATICCALL ISZERO DUP1 ISZERO PUSH2 0x1A1B JUMPI RETURNDATASIZE PUSH0 DUP1 RETURNDATACOPY RETURNDATASIZE PUSH0 REVERT JUMPDEST POP POP POP POP PUSH1 0x40 MLOAD RETURNDATASIZE PUSH1 0x1F NOT PUSH1 0x1F DUP3 ADD AND DUP3 ADD DUP1 PUSH1 0x40 MSTORE POP DUP2 ADD SWAP1 PUSH2 0x1A3F SWAP2 SWAP1 PUSH2 0x4143 JUMP JUMPDEST GT PUSH2 0x1A7F JUMPI PUSH1 0x40 MLOAD PUSH32 0x8C379A000000000000000000000000000000000000000000000000000000000 DUP2 MSTORE PUSH1 0x4 ADD PUSH2 0x1A76 SWAP1 PUSH2 0x41B8 JUMP JUMPDEST PUSH1 0x40 MLOAD DUP1 SWAP2 SUB SWAP1 REVERT JUMPDEST PUSH2 0x1C50 JUMP JUMPDEST PUSH1 0x2 DUP2 SUB PUSH2 0x1B6B JUMPI PUSH0 PUSH1 0xB PUSH0 SWAP1 SLOAD SWAP1 PUSH2 0x100 EXP SWAP1 DIV PUSH20 0xFFFFFFFFFFFFFFFFFFFFFFFFFFFFFFFFFFFFFFFF AND PUSH20 0xFFFFFFFFFFFFFFFFFFFFFFFFFFFFFFFFFFFFFFFF AND PUSH4 0x70A08231 CALLER PUSH1 0x40 MLOAD DUP3 PUSH4 0xFFFFFFFF AND PUSH1 0xE0 SHL DUP2 MSTORE PUSH1 0x4 ADD PUSH2 0x1AE7 SWAP2 SWAP1 PUSH2 0x3986 JUMP JUMPDEST PUSH1 0x20 PUSH1 0x40 MLOAD DUP1 DUP4 SUB DUP2 DUP7 GAS STATICCALL ISZERO DUP1 ISZERO PUSH2 0x1B02 JUMPI RETURNDATASIZE PUSH0 DUP1 RETURNDATACOPY RETURNDATASIZE PUSH0 REVERT JUMPDEST POP POP POP POP PUSH1 0x40 MLOAD RETURNDATASIZE PUSH1 0x1F NOT PUSH1 0x1F DUP3 ADD AND DUP3 ADD DUP1 PUSH1 0x40 MSTORE POP DUP2 ADD SWAP1 PUSH2 0x1B26 SWAP2 SWAP1 PUSH2 0x4143 JUMP JUMPDEST GT PUSH2 0x1B66 JUMPI PUSH1 0x40 MLOAD PUSH32 0x8C379A000000000000000000000000000000000000000000000000000000000 DUP2 MSTORE PUSH1 0x4 ADD PUSH2 0x1B5D SWAP1 PUSH2 0x4220 JUMP JUMPDEST PUSH1 0x40 MLOAD DUP1 SWAP2 SUB SWAP1 REVERT JUMPDEST PUSH2 0x1C4F JUMP JUMPDEST PUSH1 0x3 DUP2 SUB PUSH2 0x1C4E JUMPI PUSH0 PUSH1 0xC PUSH0 SWAP1 SLOAD SWAP1 PUSH2 0x100 EXP SWAP1 DIV PUSH20 0xFFFFFFFFFFFFFFFFFFFFFFFFFFFFFFFFFFFFFFFF AND PUSH20 0xFFFFFFFFFFFFFFFFFFFFFFFFFFFFFFFFFFFFFFFF AND PUSH4 0x70A08231 CALLER PUSH1 0x40 MLOAD DUP3 PUSH4 0xFFFFFFFF AND PUSH1 0xE0 SHL DUP2 MSTORE PUSH1 0x4 ADD PUSH2 0x1BCE SWAP2 SWAP1 PUSH2 0x3986 JUMP JUMPDEST PUSH1 0x20 PUSH1 0x40 MLOAD DUP1 DUP4 SUB DUP2 DUP7 GAS STATICCALL ISZERO DUP1 ISZERO PUSH2 0x1BE9 JUMPI RETURNDATASIZE PUSH0 DUP1 RETURNDATACOPY RETURNDATASIZE PUSH0 REVERT JUMPDEST POP POP POP POP PUSH1 0x40 MLOAD RETURNDATASIZE PUSH1 0x1F NOT PUSH1 0x1F DUP3 ADD AND DUP3 ADD DUP1 PUSH1 0x40 MSTORE POP DUP2 ADD SWAP1 PUSH2 0x1C0D SWAP2 SWAP1 PUSH2 0x4143 JUMP JUMPDEST GT PUSH2 0x1C4D JUMPI PUSH1 0x40 MLOAD PUSH32 0x8C379A000000000000000000000000000000000000000000000000000000000 DUP2 MSTORE PUSH1 0x4 ADD PUSH2 0x1C44 SWAP1 PUSH2 0x4288 JUMP JUMPDEST PUSH1 0x40 MLOAD DUP1 SWAP2 SUB SWAP1 REVERT JUMPDEST JUMPDEST JUMPDEST JUMPDEST PUSH0 DUP2 PUSH1 0x3 DUP2 GT ISZERO PUSH2 0x1C64 JUMPI PUSH2 0x1C63 PUSH2 0x409A JUMP JUMPDEST JUMPDEST SWAP1 POP PUSH0 PUSH2 0x1C6F PUSH2 0x2D77 JUMP JUMPDEST PUSH1 0x3 DUP2 GT ISZERO PUSH2 0x1C81 JUMPI PUSH2 0x1C80 PUSH2 0x409A JUMP JUMPDEST JUMPDEST SWAP1 POP PUSH32 0xA6E7005509CADC41086129610194D39FF0B053ED97E916CA2C33FAE378EF83BB PUSH0 CALLER DUP5 PUSH1 0x40 MLOAD PUSH2 0x1CB6 SWAP4 SWAP3 SWAP2 SWAP1 PUSH2 0x4404 JUMP JUMPDEST PUSH1 0x40 MLOAD DUP1 SWAP2 SUB SWAP1 LOG1 PUSH32 0xA6E7005509CADC41086129610194D39FF0B053ED97E916CA2C33FAE378EF83BB PUSH0 ADDRESS DUP4 PUSH1 0x40 MLOAD PUSH2 0x1CF1 SWAP4 SWAP3 SWAP2 SWAP1 PUSH2 0x4404 JUMP JUMPDEST PUSH1 0x40 MLOAD DUP1 SWAP2 SUB SWAP1 LOG1 PUSH0 PUSH1 0x60 DUP3 PUSH1 0x3 DUP2 GT ISZERO PUSH2 0x1D0F JUMPI PUSH2 0x1D0E PUSH2 0x409A JUMP JUMPDEST JUMPDEST DUP5 PUSH1 0x3 DUP2 GT ISZERO PUSH2 0x1D22 JUMPI PUSH2 0x1D21 PUSH2 0x409A JUMP JUMPDEST JUMPDEST SUB PUSH2 0x1D67 JUMPI PUSH0 SWAP2 POP PUSH1 0x40 MLOAD DUP1 PUSH1 0x40 ADD PUSH1 0x40 MSTORE DUP1 PUSH1 0xB DUP2 MSTORE PUSH1 0x20 ADD PUSH32 0x4974277320612074696521000000000000000000000000000000000000000000 DUP2 MSTORE POP SWAP1 POP PUSH2 0x1F11 JUMP JUMPDEST PUSH1 0x1 PUSH1 0x3 DUP2 GT ISZERO PUSH2 0x1D7B JUMPI PUSH2 0x1D7A PUSH2 0x409A JUMP JUMPDEST JUMPDEST DUP5 PUSH1 0x3 DUP2 GT ISZERO PUSH2 0x1D8E JUMPI PUSH2 0x1D8D PUSH2 0x409A JUMP JUMPDEST JUMPDEST EQ DUP1 ISZERO PUSH2 0x1DBE JUMPI POP PUSH1 0x3 DUP1 DUP2 GT ISZERO PUSH2 0x1DA9 JUMPI PUSH2 0x1DA8 PUSH2 0x409A JUMP JUMPDEST JUMPDEST DUP4 PUSH1 0x3 DUP2 GT ISZERO PUSH2 0x1DBC JUMPI PUSH2 0x1DBB PUSH2 0x409A JUMP JUMPDEST JUMPDEST EQ JUMPDEST DUP1 PUSH2 0x1E1D JUMPI POP PUSH1 0x2 PUSH1 0x3 DUP2 GT ISZERO PUSH2 0x1DD8 JUMPI PUSH2 0x1DD7 PUSH2 0x409A JUMP JUMPDEST JUMPDEST DUP5 PUSH1 0x3 DUP2 GT ISZERO PUSH2 0x1DEB JUMPI PUSH2 0x1DEA PUSH2 0x409A JUMP JUMPDEST JUMPDEST EQ DUP1 ISZERO PUSH2 0x1E1C JUMPI POP PUSH1 0x1 PUSH1 0x3 DUP2 GT ISZERO PUSH2 0x1E07 JUMPI PUSH2 0x1E06 PUSH2 0x409A JUMP JUMPDEST JUMPDEST DUP4 PUSH1 0x3 DUP2 GT ISZERO PUSH2 0x1E1A JUMPI PUSH2 0x1E19 PUSH2 0x409A JUMP JUMPDEST JUMPDEST EQ JUMPDEST JUMPDEST DUP1 PUSH2 0x1E7B JUMPI POP PUSH1 0x3 DUP1 DUP2 GT ISZERO PUSH2 0x1E36 JUMPI PUSH2 0x1E35 PUSH2 0x409A JUMP JUMPDEST JUMPDEST DUP5 PUSH1 0x3 DUP2 GT ISZERO PUSH2 0x1E49 JUMPI PUSH2 0x1E48 PUSH2 0x409A JUMP JUMPDEST JUMPDEST EQ DUP1 ISZERO PUSH2 0x1E7A JUMPI POP PUSH1 0x2 PUSH1 0x3 DUP2 GT ISZERO PUSH2 0x1E65 JUMPI PUSH2 0x1E64 PUSH2 0x409A JUMP JUMPDEST JUMPDEST DUP4 PUSH1 0x3 DUP2 GT ISZERO PUSH2 0x1E78 JUMPI PUSH2 0x1E77 PUSH2 0x409A JUMP JUMPDEST JUMPDEST EQ JUMPDEST JUMPDEST ISZERO PUSH2 0x1ECA JUMPI CALLER SWAP2 POP PUSH1 0x40 MLOAD DUP1 PUSH1 0x40 ADD PUSH1 0x40 MSTORE DUP1 PUSH1 0x8 DUP2 MSTORE PUSH1 0x20 ADD PUSH32 0x596F752077696E21000000000000000000000000000000000000000000000000 DUP2 MSTORE POP SWAP1 POP PUSH2 0x1EC5 CALLER PUSH0 PUSH2 0x2C10 JUMP JUMPDEST PUSH2 0x1F10 JUMP JUMPDEST ADDRESS SWAP2 POP PUSH1 0x40 MLOAD DUP1 PUSH1 0x40 ADD PUSH1 0x40 MSTORE DUP1 PUSH1 0x9 DUP2 MSTORE PUSH1 0x20 ADD PUSH32 0x596F75206C6F7365210000000000000000000000000000000000000000000000 DUP2 MSTORE POP SWAP1 POP PUSH2 0x1F0F ADDRESS PUSH0 PUSH2 0x2C10 JUMP JUMPDEST JUMPDEST JUMPDEST PUSH32 0x9E58CDE61339304C976B975A6387E3B7D0BE6E96E75824BF92A53D0028F77C10 PUSH0 DUP4 DUP4 PUSH1 0x40 MLOAD PUSH2 0x1F44 SWAP4 SWAP3 SWAP2 SWAP1 PUSH2 0x4439 JUMP JUMPDEST PUSH1 0x40 MLOAD DUP1 SWAP2 SUB SWAP1 LOG1 POP POP POP POP POP JUMP JUMPDEST PUSH1 0x60 PUSH1 0x1 DUP1 SLOAD PUSH2 0x1F62 SWAP1 PUSH2 0x3E0F JUMP JUMPDEST DUP1 PUSH1 0x1F ADD PUSH1 0x20 DUP1 SWAP2 DIV MUL PUSH1 0x20 ADD PUSH1 0x40 MLOAD SWAP1 DUP2 ADD PUSH1 0x40 MSTORE DUP1 SWAP3 SWAP2 SWAP1 DUP2 DUP2 MSTORE PUSH1 0x20 ADD DUP3 DUP1 SLOAD PUSH2 0x1F8E SWAP1 PUSH2 0x3E0F JUMP JUMPDEST DUP1 ISZERO PUSH2 0x1FD9 JUMPI DUP1 PUSH1 0x1F LT PUSH2 0x1FB0 JUMPI PUSH2 0x100 DUP1 DUP4 SLOAD DIV MUL DUP4 MSTORE SWAP2 PUSH1 0x20 ADD SWAP2 PUSH2 0x1FD9 JUMP JUMPDEST DUP3 ADD SWAP2 SWAP1 PUSH0 MSTORE PUSH1 0x20 PUSH0 KECCAK256 SWAP1 JUMPDEST DUP2 SLOAD DUP2 MSTORE SWAP1 PUSH1 0x1 ADD SWAP1 PUSH1 0x20 ADD DUP1 DUP4 GT PUSH2 0x1FBC JUMPI DUP3 SWAP1 SUB PUSH1 0x1F AND DUP3 ADD SWAP2 JUMPDEST POP POP POP POP POP SWAP1 POP SWAP1 JUMP JUMPDEST PUSH1 0xB PUSH0 SWAP1 SLOAD SWAP1 PUSH2 0x100 EXP SWAP1 DIV PUSH20 0xFFFFFFFFFFFFFFFFFFFFFFFFFFFFFFFFFFFFFFFF AND DUP2 JUMP JUMPDEST PUSH2 0x201A PUSH2 0x2013 PUSH2 0x29EC JUMP JUMPDEST DUP4 DUP4 PUSH2 0x2DC0 JUMP JUMPDEST POP POP JUMP JUMPDEST PUSH1 0xA PUSH0 SWAP1 SLOAD SWAP1 PUSH2 0x100 EXP SWAP1 DIV PUSH20 0xFFFFFFFFFFFFFFFFFFFFFFFFFFFFFFFFFFFFFFFF AND DUP2 JUMP JUMPDEST PUSH2 0x204E DUP5 DUP5 DUP5 PUSH2 0x636 JUMP JUMPDEST PUSH2 0x205A DUP5 DUP5 DUP5 DUP5 PUSH2 0x2F29 JUMP JUMPDEST POP POP POP POP JUMP JUMPDEST PUSH1 0x1 ISZERO ISZERO PUSH1 0x7 PUSH0 PUSH1 0x1 PUSH1 0x8 SLOAD PUSH2 0x2076 SWAP2 SWAP1 PUSH2 0x3EA1 JUMP JUMPDEST DUP2 MSTORE PUSH1 0x20 ADD SWAP1 DUP2 MSTORE PUSH1 0x20 ADD PUSH0 KECCAK256 PUSH1 0x1 ADD PUSH1 0x16 SWAP1 SLOAD SWAP1 PUSH2 0x100 EXP SWAP1 DIV PUSH1 0xFF AND ISZERO ISZERO EQ PUSH2 0x20D6 JUMPI PUSH1 0x40 MLOAD PUSH32 0x8C379A000000000000000000000000000000000000000000000000000000000 DUP2 MSTORE PUSH1 0x4 ADD PUSH2 0x20CD SWAP1 PUSH2 0x44BF JUMP JUMPDEST PUSH1 0x40 MLOAD DUP1 SWAP2 SUB SWAP1 REVERT JUMPDEST PUSH1 0x7 PUSH0 PUSH1 0x1 PUSH1 0x8 SLOAD PUSH2 0x20E8 SWAP2 SWAP1 PUSH2 0x3EA1 JUMP JUMPDEST DUP2 MSTORE PUSH1 0x20 ADD SWAP1 DUP2 MSTORE PUSH1 0x20 ADD PUSH0 KECCAK256 PUSH0 ADD PUSH0 SWAP1 SLOAD SWAP1 PUSH2 0x100 EXP SWAP1 DIV PUSH20 0xFFFFFFFFFFFFFFFFFFFFFFFFFFFFFFFFFFFFFFFF AND PUSH20 0xFFFFFFFFFFFFFFFFFFFFFFFFFFFFFFFFFFFFFFFF AND CALLER PUSH20 0xFFFFFFFFFFFFFFFFFFFFFFFFFFFFFFFFFFFFFFFF AND EQ DUP1 PUSH2 0x21BC JUMPI POP PUSH1 0x7 PUSH0 PUSH1 0x1 PUSH1 0x8 SLOAD PUSH2 0x215D SWAP2 SWAP1 PUSH2 0x3EA1 JUMP JUMPDEST DUP2 MSTORE PUSH1 0x20 ADD SWAP1 DUP2 MSTORE PUSH1 0x20 ADD PUSH0 KECCAK256 PUSH1 0x1 ADD PUSH0 SWAP1 SLOAD SWAP1 PUSH2 0x100 EXP SWAP1 DIV PUSH20 0xFFFFFFFFFFFFFFFFFFFFFFFFFFFFFFFFFFFFFFFF AND PUSH20 0xFFFFFFFFFFFFFFFFFFFFFFFFFFFFFFFFFFFFFFFF AND CALLER PUSH20 0xFFFFFFFFFFFFFFFFFFFFFFFFFFFFFFFFFFFFFFFF AND EQ JUMPDEST PUSH2 0x21FB JUMPI PUSH1 0x40 MLOAD PUSH32 0x8C379A000000000000000000000000000000000000000000000000000000000 DUP2 MSTORE PUSH1 0x4 ADD PUSH2 0x21F2 SWAP1 PUSH2 0x4527 JUMP JUMPDEST PUSH1 0x40 MLOAD DUP1 SWAP2 SUB SWAP1 REVERT JUMPDEST PUSH1 0x7 PUSH0 PUSH1 0x1 PUSH1 0x8 SLOAD PUSH2 0x220D SWAP2 SWAP1 PUSH2 0x3EA1 JUMP JUMPDEST DUP2 MSTORE PUSH1 0x20 ADD SWAP1 DUP2 MSTORE PUSH1 0x20 ADD PUSH0 KECCAK256 PUSH0 ADD PUSH0 SWAP1 SLOAD SWAP1 PUSH2 0x100 EXP SWAP1 DIV PUSH20 0xFFFFFFFFFFFFFFFFFFFFFFFFFFFFFFFFFFFFFFFF AND PUSH20 0xFFFFFFFFFFFFFFFFFFFFFFFFFFFFFFFFFFFFFFFF AND CALLER PUSH20 0xFFFFFFFFFFFFFFFFFFFFFFFFFFFFFFFFFFFFFFFF AND SUB PUSH2 0x22AE JUMPI PUSH1 0x1 PUSH1 0x7 PUSH0 PUSH1 0x1 PUSH1 0x8 SLOAD PUSH2 0x2282 SWAP2 SWAP1 PUSH2 0x3EA1 JUMP JUMPDEST DUP2 MSTORE PUSH1 0x20 ADD SWAP1 DUP2 MSTORE PUSH1 0x20 ADD PUSH0 KECCAK256 PUSH1 0x1 ADD PUSH1 0x17 PUSH2 0x100 EXP DUP2 SLOAD DUP2 PUSH1 0xFF MUL NOT AND SWAP1 DUP4 ISZERO ISZERO MUL OR SWAP1 SSTORE POP PUSH2 0x22EA JUMP JUMPDEST PUSH1 0x1 PUSH1 0x7 PUSH0 PUSH1 0x1 PUSH1 0x8 SLOAD PUSH2 0x22C2 SWAP2 SWAP1 PUSH2 0x3EA1 JUMP JUMPDEST DUP2 MSTORE PUSH1 0x20 ADD SWAP1 DUP2 MSTORE PUSH1 0x20 ADD PUSH0 KECCAK256 PUSH1 0x1 ADD PUSH1 0x18 PUSH2 0x100 EXP DUP2 SLOAD DUP2 PUSH1 0xFF MUL NOT AND SWAP1 DUP4 ISZERO ISZERO MUL OR SWAP1 SSTORE POP JUMPDEST PUSH1 0x7 PUSH0 PUSH1 0x1 PUSH1 0x8 SLOAD PUSH2 0x22FC SWAP2 SWAP1 PUSH2 0x3EA1 JUMP JUMPDEST DUP2 MSTORE PUSH1 0x20 ADD SWAP1 DUP2 MSTORE PUSH1 0x20 ADD PUSH0 KECCAK256 PUSH1 0x1 ADD PUSH1 0x17 SWAP1 SLOAD SWAP1 PUSH2 0x100 EXP SWAP1 DIV PUSH1 0xFF AND DUP1 ISZERO PUSH2 0x2352 JUMPI POP PUSH1 0x7 PUSH0 PUSH1 0x1 PUSH1 0x8 SLOAD PUSH2 0x2333 SWAP2 SWAP1 PUSH2 0x3EA1 JUMP JUMPDEST DUP2 MSTORE PUSH1 0x20 ADD SWAP1 DUP2 MSTORE PUSH1 0x20 ADD PUSH0 KECCAK256 PUSH1 0x1 ADD PUSH1 0x18 SWAP1 SLOAD SWAP1 PUSH2 0x100 EXP SWAP1 DIV PUSH1 0xFF AND JUMPDEST ISZERO PUSH2 0x24D5 JUMPI PUSH0 PUSH1 0x7 PUSH0 PUSH1 0x1 PUSH1 0x8 SLOAD PUSH2 0x236A SWAP2 SWAP1 PUSH2 0x3EA1 JUMP JUMPDEST DUP2 MSTORE PUSH1 0x20 ADD SWAP1 DUP2 MSTORE PUSH1 0x20 ADD PUSH0 KECCAK256 PUSH1 0x1 ADD PUSH1 0x14 PUSH2 0x100 EXP DUP2 SLOAD DUP2 PUSH1 0xFF MUL NOT AND SWAP1 DUP4 PUSH1 0x3 DUP2 GT ISZERO PUSH2 0x239C JUMPI PUSH2 0x239B PUSH2 0x409A JUMP JUMPDEST JUMPDEST MUL OR SWAP1 SSTORE POP PUSH0 PUSH1 0x7 PUSH0 PUSH1 0x1 PUSH1 0x8 SLOAD PUSH2 0x23B4 SWAP2 SWAP1 PUSH2 0x3EA1 JUMP JUMPDEST DUP2 MSTORE PUSH1 0x20 ADD SWAP1 DUP2 MSTORE PUSH1 0x20 ADD PUSH0 KECCAK256 PUSH1 0x1 ADD PUSH1 0x15 PUSH2 0x100 EXP DUP2 SLOAD DUP2 PUSH1 0xFF MUL NOT AND SWAP1 DUP4 PUSH1 0x3 DUP2 GT ISZERO PUSH2 0x23E6 JUMPI PUSH2 0x23E5 PUSH2 0x409A JUMP JUMPDEST JUMPDEST MUL OR SWAP1 SSTORE POP PUSH0 PUSH1 0x7 PUSH0 PUSH1 0x1 PUSH1 0x8 SLOAD PUSH2 0x23FE SWAP2 SWAP1 PUSH2 0x3EA1 JUMP JUMPDEST DUP2 MSTORE PUSH1 0x20 ADD SWAP1 DUP2 MSTORE PUSH1 0x20 ADD PUSH0 KECCAK256 PUSH1 0x1 ADD PUSH1 0x16 PUSH2 0x100 EXP DUP2 SLOAD DUP2 PUSH1 0xFF MUL NOT AND SWAP1 DUP4 ISZERO ISZERO MUL OR SWAP1 SSTORE POP PUSH0 PUSH1 0x7 PUSH0 PUSH1 0x1 PUSH1 0x8 SLOAD PUSH2 0x2438 SWAP2 SWAP1 PUSH2 0x3EA1 JUMP JUMPDEST DUP2 MSTORE PUSH1 0x20 ADD SWAP1 DUP2 MSTORE PUSH1 0x20 ADD PUSH0 KECCAK256 PUSH1 0x1 ADD PUSH1 0x17 PUSH2 0x100 EXP DUP2 SLOAD DUP2 PUSH1 0xFF MUL NOT AND SWAP1 DUP4 ISZERO ISZERO MUL OR SWAP1 SSTORE POP PUSH0 PUSH1 0x7 PUSH0 PUSH1 0x1 PUSH1 0x8 SLOAD PUSH2 0x2472 SWAP2 SWAP1 PUSH2 0x3EA1 JUMP JUMPDEST DUP2 MSTORE PUSH1 0x20 ADD SWAP1 DUP2 MSTORE PUSH1 0x20 ADD PUSH0 KECCAK256 PUSH1 0x1 ADD PUSH1 0x18 PUSH2 0x100 EXP DUP2 SLOAD DUP2 PUSH1 0xFF MUL NOT AND SWAP1 DUP4 ISZERO ISZERO MUL OR SWAP1 SSTORE POP PUSH32 0xC3E0F84839DC888C892A013D10C8F9D6DC05A21A879D0CE468CA558013E9121C PUSH1 0x8 SLOAD CALLER PUSH1 0x40 MLOAD PUSH2 0x24CC SWAP3 SWAP2 SWAP1 PUSH2 0x435D JUMP JUMPDEST PUSH1 0x40 MLOAD DUP1 SWAP2 SUB SWAP1 LOG1 JUMPDEST JUMP JUMPDEST PUSH1 0x60 PUSH2 0x24E2 DUP3 PUSH2 0x292D JUMP JUMPDEST POP PUSH0 PUSH2 0x24EC PUSH2 0x30DB JUMP JUMPDEST SWAP1 POP PUSH0 DUP2 MLOAD GT PUSH2 0x250A JUMPI PUSH1 0x40 MLOAD DUP1 PUSH1 0x20 ADD PUSH1 0x40 MSTORE DUP1 PUSH0 DUP2 MSTORE POP PUSH2 0x2535 JUMP JUMPDEST DUP1 PUSH2 0x2514 DUP5 PUSH2 0x30F1 JUMP JUMPDEST PUSH1 0x40 MLOAD PUSH1 0x20 ADD PUSH2 0x2525 SWAP3 SWAP2 SWAP1 PUSH2 0x457F JUMP JUMPDEST PUSH1 0x40 MLOAD PUSH1 0x20 DUP2 DUP4 SUB SUB DUP2 MSTORE SWAP1 PUSH1 0x40 MSTORE JUMPDEST SWAP2 POP POP SWAP2 SWAP1 POP JUMP JUMPDEST PUSH1 0x8 SLOAD DUP2 JUMP JUMPDEST PUSH0 PUSH1 0x5 PUSH0 DUP5 PUSH20 0xFFFFFFFFFFFFFFFFFFFFFFFFFFFFFFFFFFFFFFFF AND PUSH20 0xFFFFFFFFFFFFFFFFFFFFFFFFFFFFFFFFFFFFFFFF AND DUP2 MSTORE PUSH1 0x20 ADD SWAP1 DUP2 MSTORE PUSH1 0x20 ADD PUSH0 KECCAK256 PUSH0 DUP4 PUSH20 0xFFFFFFFFFFFFFFFFFFFFFFFFFFFFFFFFFFFFFFFF AND PUSH20 0xFFFFFFFFFFFFFFFFFFFFFFFFFFFFFFFFFFFFFFFF AND DUP2 MSTORE PUSH1 0x20 ADD SWAP1 DUP2 MSTORE PUSH1 0x20 ADD PUSH0 KECCAK256 PUSH0 SWAP1 SLOAD SWAP1 PUSH2 0x100 EXP SWAP1 DIV PUSH1 0xFF AND SWAP1 POP SWAP3 SWAP2 POP POP JUMP JUMPDEST PUSH0 PUSH20 0xFFFFFFFFFFFFFFFFFFFFFFFFFFFFFFFFFFFFFFFF AND PUSH1 0x7 PUSH0 DUP4 DUP2 MSTORE PUSH1 0x20 ADD SWAP1 DUP2 MSTORE PUSH1 0x20 ADD PUSH0 KECCAK256 PUSH0 ADD PUSH0 SWAP1 SLOAD SWAP1 PUSH2 0x100 EXP SWAP1 DIV PUSH20 0xFFFFFFFFFFFFFFFFFFFFFFFFFFFFFFFFFFFFFFFF AND PUSH20 0xFFFFFFFFFFFFFFFFFFFFFFFFFFFFFFFFFFFFFFFF AND SUB PUSH2 0x2671 JUMPI PUSH1 0x40 MLOAD PUSH32 0x8C379A000000000000000000000000000000000000000000000000000000000 DUP2 MSTORE PUSH1 0x4 ADD PUSH2 0x2668 SWAP1 PUSH2 0x3F1E JUMP JUMPDEST PUSH1 0x40 MLOAD DUP1 SWAP2 SUB SWAP1 REVERT JUMPDEST PUSH0 PUSH20 0xFFFFFFFFFFFFFFFFFFFFFFFFFFFFFFFFFFFFFFFF AND PUSH1 0x7 PUSH0 DUP4 DUP2 MSTORE PUSH1 0x20 ADD SWAP1 DUP2 MSTORE PUSH1 0x20 ADD PUSH0 KECCAK256 PUSH1 0x1 ADD PUSH0 SWAP1 SLOAD SWAP1 PUSH2 0x100 EXP SWAP1 DIV PUSH20 0xFFFFFFFFFFFFFFFFFFFFFFFFFFFFFFFFFFFFFFFF AND PUSH20 0xFFFFFFFFFFFFFFFFFFFFFFFFFFFFFFFFFFFFFFFF AND EQ PUSH2 0x2712 JUMPI PUSH1 0x40 MLOAD PUSH32 0x8C379A000000000000000000000000000000000000000000000000000000000 DUP2 MSTORE PUSH1 0x4 ADD PUSH2 0x2709 SWAP1 PUSH2 0x45EC JUMP JUMPDEST PUSH1 0x40 MLOAD DUP1 SWAP2 SUB SWAP1 REVERT JUMPDEST CALLER PUSH20 0xFFFFFFFFFFFFFFFFFFFFFFFFFFFFFFFFFFFFFFFF AND PUSH1 0x7 PUSH0 DUP4 DUP2 MSTORE PUSH1 0x20 ADD SWAP1 DUP2 MSTORE PUSH1 0x20 ADD PUSH0 KECCAK256 PUSH0 ADD PUSH0 SWAP1 SLOAD SWAP1 PUSH2 0x100 EXP SWAP1 DIV PUSH20 0xFFFFFFFFFFFFFFFFFFFFFFFFFFFFFFFFFFFFFFFF AND PUSH20 0xFFFFFFFFFFFFFFFFFFFFFFFFFFFFFFFFFFFFFFFF AND SUB PUSH2 0x27B2 JUMPI PUSH1 0x40 MLOAD PUSH32 0x8C379A000000000000000000000000000000000000000000000000000000000 DUP2 MSTORE PUSH1 0x4 ADD PUSH2 0x27A9 SWAP1 PUSH2 0x4654 JUMP JUMPDEST PUSH1 0x40 MLOAD DUP1 SWAP2 SUB SWAP1 REVERT JUMPDEST CALLER PUSH1 0x7 PUSH0 DUP4 DUP2 MSTORE PUSH1 0x20 ADD SWAP1 DUP2 MSTORE PUSH1 0x20 ADD PUSH0 KECCAK256 PUSH1 0x1 ADD PUSH0 PUSH2 0x100 EXP DUP2 SLOAD DUP2 PUSH20 0xFFFFFFFFFFFFFFFFFFFFFFFFFFFFFFFFFFFFFFFF MUL NOT AND SWAP1 DUP4 PUSH20 0xFFFFFFFFFFFFFFFFFFFFFFFFFFFFFFFFFFFFFFFF AND MUL OR SWAP1 SSTORE POP PUSH32 0x45C4F9CBAFE186141862608C493F28B823FDE4C2142BEDC3F5169961A73FDD22 DUP2 CALLER PUSH1 0x40 MLOAD PUSH2 0x2835 SWAP3 SWAP2 SWAP1 PUSH2 0x435D JUMP JUMPDEST PUSH1 0x40 MLOAD DUP1 SWAP2 SUB SWAP1 LOG1 POP JUMP JUMPDEST PUSH2 0x2848 PUSH2 0x2C2D JUMP JUMPDEST PUSH0 PUSH20 0xFFFFFFFFFFFFFFFFFFFFFFFFFFFFFFFFFFFFFFFF AND DUP2 PUSH20 0xFFFFFFFFFFFFFFFFFFFFFFFFFFFFFFFFFFFFFFFF AND SUB PUSH2 0x28B8 JUMPI PUSH0 PUSH1 0x40 MLOAD PUSH32 0x1E4FBDF700000000000000000000000000000000000000000000000000000000 DUP2 MSTORE PUSH1 0x4 ADD PUSH2 0x28AF SWAP2 SWAP1 PUSH2 0x3986 JUMP JUMPDEST PUSH1 0x40 MLOAD DUP1 SWAP2 SUB SWAP1 REVERT JUMPDEST PUSH2 0x28C1 DUP2 PUSH2 0x2CB4 JUMP JUMPDEST POP JUMP JUMPDEST PUSH0 PUSH32 0x1FFC9A700000000000000000000000000000000000000000000000000000000 PUSH28 0xFFFFFFFFFFFFFFFFFFFFFFFFFFFFFFFFFFFFFFFFFFFFFFFFFFFFFFFF NOT AND DUP3 PUSH28 0xFFFFFFFFFFFFFFFFFFFFFFFFFFFFFFFFFFFFFFFFFFFFFFFFFFFFFFFF NOT AND EQ SWAP1 POP SWAP2 SWAP1 POP JUMP JUMPDEST PUSH0 DUP1 PUSH2 0x2938 DUP4 PUSH2 0x31BB JUMP JUMPDEST SWAP1 POP PUSH0 PUSH20 0xFFFFFFFFFFFFFFFFFFFFFFFFFFFFFFFFFFFFFFFF AND DUP2 PUSH20 0xFFFFFFFFFFFFFFFFFFFFFFFFFFFFFFFFFFFFFFFF AND SUB PUSH2 0x29AA JUMPI DUP3 PUSH1 0x40 MLOAD PUSH32 0x7E27328900000000000000000000000000000000000000000000000000000000 DUP2 MSTORE PUSH1 0x4 ADD PUSH2 0x29A1 SWAP2 SWAP1 PUSH2 0x3A91 JUMP JUMPDEST PUSH1 0x40 MLOAD DUP1 SWAP2 SUB SWAP1 REVERT JUMPDEST DUP1 SWAP2 POP POP SWAP2 SWAP1 POP JUMP JUMPDEST PUSH0 PUSH1 0x4 PUSH0 DUP4 DUP2 MSTORE PUSH1 0x20 ADD SWAP1 DUP2 MSTORE PUSH1 0x20 ADD PUSH0 KECCAK256 PUSH0 SWAP1 SLOAD SWAP1 PUSH2 0x100 EXP SWAP1 DIV PUSH20 0xFFFFFFFFFFFFFFFFFFFFFFFFFFFFFFFFFFFFFFFF AND SWAP1 POP SWAP2 SWAP1 POP JUMP JUMPDEST PUSH0 CALLER SWAP1 POP SWAP1 JUMP JUMPDEST PUSH2 0x2A00 DUP4 DUP4 DUP4 PUSH1 0x1 PUSH2 0x31F4 JUMP JUMPDEST POP POP POP JUMP JUMPDEST PUSH0 DUP1 PUSH2 0x2A10 DUP5 PUSH2 0x31BB JUMP JUMPDEST SWAP1 POP PUSH0 PUSH20 0xFFFFFFFFFFFFFFFFFFFFFFFFFFFFFFFFFFFFFFFF AND DUP4 PUSH20 0xFFFFFFFFFFFFFFFFFFFFFFFFFFFFFFFFFFFFFFFF AND EQ PUSH2 0x2A51 JUMPI PUSH2 0x2A50 DUP2 DUP5 DUP7 PUSH2 0x33B3 JUMP JUMPDEST JUMPDEST PUSH0 PUSH20 0xFFFFFFFFFFFFFFFFFFFFFFFFFFFFFFFFFFFFFFFF AND DUP2 PUSH20 0xFFFFFFFFFFFFFFFFFFFFFFFFFFFFFFFFFFFFFFFF AND EQ PUSH2 0x2ADC JUMPI PUSH2 0x2A90 PUSH0 DUP6 PUSH0 DUP1 PUSH2 0x31F4 JUMP JUMPDEST PUSH1 0x1 PUSH1 0x3 PUSH0 DUP4 PUSH20 0xFFFFFFFFFFFFFFFFFFFFFFFFFFFFFFFFFFFFFFFF AND PUSH20 0xFFFFFFFFFFFFFFFFFFFFFFFFFFFFFFFFFFFFFFFF AND DUP2 MSTORE PUSH1 0x20 ADD SWAP1 DUP2 MSTORE PUSH1 0x20 ADD PUSH0 KECCAK256 PUSH0 DUP3 DUP3 SLOAD SUB SWAP3 POP POP DUP2 SWAP1 SSTORE POP JUMPDEST PUSH0 PUSH20 0xFFFFFFFFFFFFFFFFFFFFFFFFFFFFFFFFFFFFFFFF AND DUP6 PUSH20 0xFFFFFFFFFFFFFFFFFFFFFFFFFFFFFFFFFFFFFFFF AND EQ PUSH2 0x2B5B JUMPI PUSH1 0x1 PUSH1 0x3 PUSH0 DUP8 PUSH20 0xFFFFFFFFFFFFFFFFFFFFFFFFFFFFFFFFFFFFFFFF AND PUSH20 0xFFFFFFFFFFFFFFFFFFFFFFFFFFFFFFFFFFFFFFFF AND DUP2 MSTORE PUSH1 0x20 ADD SWAP1 DUP2 MSTORE PUSH1 0x20 ADD PUSH0 KECCAK256 PUSH0 DUP3 DUP3 SLOAD ADD SWAP3 POP POP DUP2 SWAP1 SSTORE POP JUMPDEST DUP5 PUSH1 0x2 PUSH0 DUP7 DUP2 MSTORE PUSH1 0x20 ADD SWAP1 DUP2 MSTORE PUSH1 0x20 ADD PUSH0 KECCAK256 PUSH0 PUSH2 0x100 EXP DUP2 SLOAD DUP2 PUSH20 0xFFFFFFFFFFFFFFFFFFFFFFFFFFFFFFFFFFFFFFFF MUL NOT AND SWAP1 DUP4 PUSH20 0xFFFFFFFFFFFFFFFFFFFFFFFFFFFFFFFFFFFFFFFF AND MUL OR SWAP1 SSTORE POP DUP4 DUP6 PUSH20 0xFFFFFFFFFFFFFFFFFFFFFFFFFFFFFFFFFFFFFFFF AND DUP3 PUSH20 0xFFFFFFFFFFFFFFFFFFFFFFFFFFFFFFFFFFFFFFFF AND PUSH32 0xDDF252AD1BE2C89B69C2B068FC378DAA952BA7F163C4A11628F55A4DF523B3EF PUSH1 0x40 MLOAD PUSH1 0x40 MLOAD DUP1 SWAP2 SUB SWAP1 LOG4 DUP1 SWAP2 POP POP SWAP4 SWAP3 POP POP POP JUMP JUMPDEST PUSH2 0x2C29 DUP3 DUP3 PUSH1 0x40 MLOAD DUP1 PUSH1 0x20 ADD PUSH1 0x40 MSTORE DUP1 PUSH0 DUP2 MSTORE POP PUSH2 0x3476 JUMP JUMPDEST POP POP JUMP JUMPDEST PUSH2 0x2C35 PUSH2 0x29EC JUMP JUMPDEST PUSH20 0xFFFFFFFFFFFFFFFFFFFFFFFFFFFFFFFFFFFFFFFF AND PUSH2 0x2C53 PUSH2 0x18FF JUMP JUMPDEST PUSH20 0xFFFFFFFFFFFFFFFFFFFFFFFFFFFFFFFFFFFFFFFF AND EQ PUSH2 0x2CB2 JUMPI PUSH2 0x2C76 PUSH2 0x29EC JUMP JUMPDEST PUSH1 0x40 MLOAD PUSH32 0x118CDAA700000000000000000000000000000000000000000000000000000000 DUP2 MSTORE PUSH1 0x4 ADD PUSH2 0x2CA9 SWAP2 SWAP1 PUSH2 0x3986 JUMP JUMPDEST PUSH1 0x40 MLOAD DUP1 SWAP2 SUB SWAP1 REVERT JUMPDEST JUMP JUMPDEST PUSH0 PUSH1 0x6 PUSH0 SWAP1 SLOAD SWAP1 PUSH2 0x100 EXP SWAP1 DIV PUSH20 0xFFFFFFFFFFFFFFFFFFFFFFFFFFFFFFFFFFFFFFFF AND SWAP1 POP DUP2 PUSH1 0x6 PUSH0 PUSH2 0x100 EXP DUP2 SLOAD DUP2 PUSH20 0xFFFFFFFFFFFFFFFFFFFFFFFFFFFFFFFFFFFFFFFF MUL NOT AND SWAP1 DUP4 PUSH20 0xFFFFFFFFFFFFFFFFFFFFFFFFFFFFFFFFFFFFFFFF AND MUL OR SWAP1 SSTORE POP DUP2 PUSH20 0xFFFFFFFFFFFFFFFFFFFFFFFFFFFFFFFFFFFFFFFF AND DUP2 PUSH20 0xFFFFFFFFFFFFFFFFFFFFFFFFFFFFFFFFFFFFFFFF AND PUSH32 0x8BE0079C531659141344CD1FD0A4F28419497F9722A3DAAFE3B4186F6B6457E0 PUSH1 0x40 MLOAD PUSH1 0x40 MLOAD DUP1 SWAP2 SUB SWAP1 LOG3 POP POP JUMP JUMPDEST PUSH0 PUSH1 0x1 PUSH1 0x3 TIMESTAMP PREVRANDAO PUSH1 0x40 MLOAD PUSH1 0x20 ADD PUSH2 0x2D8F SWAP3 SWAP2 SWAP1 PUSH2 0x4692 JUMP JUMPDEST PUSH1 0x40 MLOAD PUSH1 0x20 DUP2 DUP4 SUB SUB DUP2 MSTORE SWAP1 PUSH1 0x40 MSTORE DUP1 MLOAD SWAP1 PUSH1 0x20 ADD KECCAK256 PUSH0 SHR PUSH2 0x2DB1 SWAP2 SWAP1 PUSH2 0x46EA JUMP JUMPDEST PUSH2 0x2DBB SWAP2 SWAP1 PUSH2 0x471A JUMP JUMPDEST SWAP1 POP SWAP1 JUMP JUMPDEST PUSH0 PUSH20 0xFFFFFFFFFFFFFFFFFFFFFFFFFFFFFFFFFFFFFFFF AND DUP3 PUSH20 0xFFFFFFFFFFFFFFFFFFFFFFFFFFFFFFFFFFFFFFFF AND SUB PUSH2 0x2E30 JUMPI DUP2 PUSH1 0x40 MLOAD PUSH32 0x5B08BA1800000000000000000000000000000000000000000000000000000000 DUP2 MSTORE PUSH1 0x4 ADD PUSH2 0x2E27 SWAP2 SWAP1 PUSH2 0x3986 JUMP JUMPDEST PUSH1 0x40 MLOAD DUP1 SWAP2 SUB SWAP1 REVERT JUMPDEST DUP1 PUSH1 0x5 PUSH0 DUP6 PUSH20 0xFFFFFFFFFFFFFFFFFFFFFFFFFFFFFFFFFFFFFFFF AND PUSH20 0xFFFFFFFFFFFFFFFFFFFFFFFFFFFFFFFFFFFFFFFF AND DUP2 MSTORE PUSH1 0x20 ADD SWAP1 DUP2 MSTORE PUSH1 0x20 ADD PUSH0 KECCAK256 PUSH0 DUP5 PUSH20 0xFFFFFFFFFFFFFFFFFFFFFFFFFFFFFFFFFFFFFFFF AND PUSH20 0xFFFFFFFFFFFFFFFFFFFFFFFFFFFFFFFFFFFFFFFF AND DUP2 MSTORE PUSH1 0x20 ADD SWAP1 DUP2 MSTORE PUSH1 0x20 ADD PUSH0 KECCAK256 PUSH0 PUSH2 0x100 EXP DUP2 SLOAD DUP2 PUSH1 0xFF MUL NOT AND SWAP1 DUP4 ISZERO ISZERO MUL OR SWAP1 SSTORE POP DUP2 PUSH20 0xFFFFFFFFFFFFFFFFFFFFFFFFFFFFFFFFFFFFFFFF AND DUP4 PUSH20 0xFFFFFFFFFFFFFFFFFFFFFFFFFFFFFFFFFFFFFFFF AND PUSH32 0x17307EAB39AB6107E8899845AD3D59BD9653F200F220920489CA2B5937696C31 DUP4 PUSH1 0x40 MLOAD PUSH2 0x2F1C SWAP2 SWAP1 PUSH2 0x3840 JUMP JUMPDEST PUSH1 0x40 MLOAD DUP1 SWAP2 SUB SWAP1 LOG3 POP POP POP JUMP JUMPDEST PUSH0 DUP4 PUSH20 0xFFFFFFFFFFFFFFFFFFFFFFFFFFFFFFFFFFFFFFFF AND EXTCODESIZE GT ISZERO PUSH2 0x30D5 JUMPI DUP3 PUSH20 0xFFFFFFFFFFFFFFFFFFFFFFFFFFFFFFFFFFFFFFFF AND PUSH4 0x150B7A02 PUSH2 0x2F6C PUSH2 0x29EC JUMP JUMPDEST DUP7 DUP6 DUP6 PUSH1 0x40 MLOAD DUP6 PUSH4 0xFFFFFFFF AND PUSH1 0xE0 SHL DUP2 MSTORE PUSH1 0x4 ADD PUSH2 0x2F8E SWAP5 SWAP4 SWAP3 SWAP2 SWAP1 PUSH2 0x479F JUMP JUMPDEST PUSH1 0x20 PUSH1 0x40 MLOAD DUP1 DUP4 SUB DUP2 PUSH0 DUP8 GAS CALL SWAP3 POP POP POP DUP1 ISZERO PUSH2 0x2FC9 JUMPI POP PUSH1 0x40 MLOAD RETURNDATASIZE PUSH1 0x1F NOT PUSH1 0x1F DUP3 ADD AND DUP3 ADD DUP1 PUSH1 0x40 MSTORE POP DUP2 ADD SWAP1 PUSH2 0x2FC6 SWAP2 SWAP1 PUSH2 0x47FD JUMP JUMPDEST PUSH1 0x1 JUMPDEST PUSH2 0x304A JUMPI RETURNDATASIZE DUP1 PUSH0 DUP2 EQ PUSH2 0x2FF7 JUMPI PUSH1 0x40 MLOAD SWAP2 POP PUSH1 0x1F NOT PUSH1 0x3F RETURNDATASIZE ADD AND DUP3 ADD PUSH1 0x40 MSTORE RETURNDATASIZE DUP3 MSTORE RETURNDATASIZE PUSH0 PUSH1 0x20 DUP5 ADD RETURNDATACOPY PUSH2 0x2FFC JUMP JUMPDEST PUSH1 0x60 SWAP2 POP JUMPDEST POP PUSH0 DUP2 MLOAD SUB PUSH2 0x3042 JUMPI DUP4 PUSH1 0x40 MLOAD PUSH32 0x64A0AE9200000000000000000000000000000000000000000000000000000000 DUP2 MSTORE PUSH1 0x4 ADD PUSH2 0x3039 SWAP2 SWAP1 PUSH2 0x3986 JUMP JUMPDEST PUSH1 0x40 MLOAD DUP1 SWAP2 SUB SWAP1 REVERT JUMPDEST DUP1 MLOAD DUP2 PUSH1 0x20 ADD REVERT JUMPDEST PUSH4 0x150B7A02 PUSH1 0xE0 SHL PUSH28 0xFFFFFFFFFFFFFFFFFFFFFFFFFFFFFFFFFFFFFFFFFFFFFFFFFFFFFFFF NOT AND DUP2 PUSH28 0xFFFFFFFFFFFFFFFFFFFFFFFFFFFFFFFFFFFFFFFFFFFFFFFFFFFFFFFF NOT AND EQ PUSH2 0x30D3 JUMPI DUP4 PUSH1 0x40 MLOAD PUSH32 0x64A0AE9200000000000000000000000000000000000000000000000000000000 DUP2 MSTORE PUSH1 0x4 ADD PUSH2 0x30CA SWAP2 SWAP1 PUSH2 0x3986 JUMP JUMPDEST PUSH1 0x40 MLOAD DUP1 SWAP2 SUB SWAP1 REVERT JUMPDEST POP JUMPDEST POP POP POP POP JUMP JUMPDEST PUSH1 0x60 PUSH1 0x40 MLOAD DUP1 PUSH1 0x20 ADD PUSH1 0x40 MSTORE DUP1 PUSH0 DUP2 MSTORE POP SWAP1 POP SWAP1 JUMP JUMPDEST PUSH1 0x60 PUSH0 PUSH1 0x1 PUSH2 0x30FF DUP5 PUSH2 0x3491 JUMP JUMPDEST ADD SWAP1 POP PUSH0 DUP2 PUSH8 0xFFFFFFFFFFFFFFFF DUP2 GT ISZERO PUSH2 0x311D JUMPI PUSH2 0x311C PUSH2 0x3C00 JUMP JUMPDEST JUMPDEST PUSH1 0x40 MLOAD SWAP1 DUP1 DUP3 MSTORE DUP1 PUSH1 0x1F ADD PUSH1 0x1F NOT AND PUSH1 0x20 ADD DUP3 ADD PUSH1 0x40 MSTORE DUP1 ISZERO PUSH2 0x314F JUMPI DUP2 PUSH1 0x20 ADD PUSH1 0x1 DUP3 MUL DUP1 CALLDATASIZE DUP4 CALLDATACOPY DUP1 DUP3 ADD SWAP2 POP POP SWAP1 POP JUMPDEST POP SWAP1 POP PUSH0 DUP3 PUSH1 0x20 ADD DUP3 ADD SWAP1 POP JUMPDEST PUSH1 0x1 ISZERO PUSH2 0x31B0 JUMPI DUP1 DUP1 PUSH1 0x1 SWAP1 SUB SWAP2 POP POP PUSH32 0x3031323334353637383961626364656600000000000000000000000000000000 PUSH1 0xA DUP7 MOD BYTE DUP2 MSTORE8 PUSH1 0xA DUP6 DUP2 PUSH2 0x31A5 JUMPI PUSH2 0x31A4 PUSH2 0x46BD JUMP JUMPDEST JUMPDEST DIV SWAP5 POP PUSH0 DUP6 SUB PUSH2 0x315C JUMPI JUMPDEST DUP2 SWAP4 POP POP POP POP SWAP2 SWAP1 POP JUMP JUMPDEST PUSH0 PUSH1 0x2 PUSH0 DUP4 DUP2 MSTORE PUSH1 0x20 ADD SWAP1 DUP2 MSTORE PUSH1 0x20 ADD PUSH0 KECCAK256 PUSH0 SWAP1 SLOAD SWAP1 PUSH2 0x100 EXP SWAP1 DIV PUSH20 0xFFFFFFFFFFFFFFFFFFFFFFFFFFFFFFFFFFFFFFFF AND SWAP1 POP SWAP2 SWAP1 POP JUMP JUMPDEST DUP1 DUP1 PUSH2 0x322C JUMPI POP PUSH0 PUSH20 0xFFFFFFFFFFFFFFFFFFFFFFFFFFFFFFFFFFFFFFFF AND DUP3 PUSH20 0xFFFFFFFFFFFFFFFFFFFFFFFFFFFFFFFFFFFFFFFF AND EQ ISZERO JUMPDEST ISZERO PUSH2 0x335E JUMPI PUSH0 PUSH2 0x323B DUP5 PUSH2 0x292D JUMP JUMPDEST SWAP1 POP PUSH0 PUSH20 0xFFFFFFFFFFFFFFFFFFFFFFFFFFFFFFFFFFFFFFFF AND DUP4 PUSH20 0xFFFFFFFFFFFFFFFFFFFFFFFFFFFFFFFFFFFFFFFF AND EQ ISZERO DUP1 ISZERO PUSH2 0x32A5 JUMPI POP DUP3 PUSH20 0xFFFFFFFFFFFFFFFFFFFFFFFFFFFFFFFFFFFFFFFF AND DUP2 PUSH20 0xFFFFFFFFFFFFFFFFFFFFFFFFFFFFFFFFFFFFFFFF AND EQ ISZERO JUMPDEST DUP1 ISZERO PUSH2 0x32B8 JUMPI POP PUSH2 0x32B6 DUP2 DUP5 PUSH2 0x2543 JUMP JUMPDEST ISZERO JUMPDEST ISZERO PUSH2 0x32FA JUMPI DUP3 PUSH1 0x40 MLOAD PUSH32 0xA9FBF51F00000000000000000000000000000000000000000000000000000000 DUP2 MSTORE PUSH1 0x4 ADD PUSH2 0x32F1 SWAP2 SWAP1 PUSH2 0x3986 JUMP JUMPDEST PUSH1 0x40 MLOAD DUP1 SWAP2 SUB SWAP1 REVERT JUMPDEST DUP2 ISZERO PUSH2 0x335C JUMPI DUP4 DUP6 PUSH20 0xFFFFFFFFFFFFFFFFFFFFFFFFFFFFFFFFFFFFFFFF AND DUP3 PUSH20 0xFFFFFFFFFFFFFFFFFFFFFFFFFFFFFFFFFFFFFFFF AND PUSH32 0x8C5BE1E5EBEC7D5BD14F71427D1E84F3DD0314C0F7B2291E5B200AC8C7C3B925 PUSH1 0x40 MLOAD PUSH1 0x40 MLOAD DUP1 SWAP2 SUB SWAP1 LOG4 JUMPDEST POP JUMPDEST DUP4 PUSH1 0x4 PUSH0 DUP6 DUP2 MSTORE PUSH1 0x20 ADD SWAP1 DUP2 MSTORE PUSH1 0x20 ADD PUSH0 KECCAK256 PUSH0 PUSH2 0x100 EXP DUP2 SLOAD DUP2 PUSH20 0xFFFFFFFFFFFFFFFFFFFFFFFFFFFFFFFFFFFFFFFF MUL NOT AND SWAP1 DUP4 PUSH20 0xFFFFFFFFFFFFFFFFFFFFFFFFFFFFFFFFFFFFFFFF AND MUL OR SWAP1 SSTORE POP POP POP POP POP JUMP JUMPDEST PUSH2 0x33BE DUP4 DUP4 DUP4 PUSH2 0x35E2 JUMP JUMPDEST PUSH2 0x3471 JUMPI PUSH0 PUSH20 0xFFFFFFFFFFFFFFFFFFFFFFFFFFFFFFFFFFFFFFFF AND DUP4 PUSH20 0xFFFFFFFFFFFFFFFFFFFFFFFFFFFFFFFFFFFFFFFF AND SUB PUSH2 0x3432 JUMPI DUP1 PUSH1 0x40 MLOAD PUSH32 0x7E27328900000000000000000000000000000000000000000000000000000000 DUP2 MSTORE PUSH1 0x4 ADD PUSH2 0x3429 SWAP2 SWAP1 PUSH2 0x3A91 JUMP JUMPDEST PUSH1 0x40 MLOAD DUP1 SWAP2 SUB SWAP1 REVERT JUMPDEST DUP2 DUP2 PUSH1 0x40 MLOAD PUSH32 0x177E802F00000000000000000000000000000000000000000000000000000000 DUP2 MSTORE PUSH1 0x4 ADD PUSH2 0x3468 SWAP3 SWAP2 SWAP1 PUSH2 0x4828 JUMP JUMPDEST PUSH1 0x40 MLOAD DUP1 SWAP2 SUB SWAP1 REVERT JUMPDEST POP POP POP JUMP JUMPDEST PUSH2 0x3480 DUP4 DUP4 PUSH2 0x36A2 JUMP JUMPDEST PUSH2 0x348C PUSH0 DUP5 DUP5 DUP5 PUSH2 0x2F29 JUMP JUMPDEST POP POP POP JUMP JUMPDEST PUSH0 DUP1 PUSH0 SWAP1 POP PUSH27 0x184F03E93FF9F4DAA797ED6E38ED64BF6A1F010000000000000000 DUP4 LT PUSH2 0x34ED JUMPI PUSH27 0x184F03E93FF9F4DAA797ED6E38ED64BF6A1F010000000000000000 DUP4 DUP2 PUSH2 0x34E3 JUMPI PUSH2 0x34E2 PUSH2 0x46BD JUMP JUMPDEST JUMPDEST DIV SWAP3 POP PUSH1 0x40 DUP2 ADD SWAP1 POP JUMPDEST PUSH14 0x4EE2D6D415B85ACEF8100000000 DUP4 LT PUSH2 0x352A JUMPI PUSH14 0x4EE2D6D415B85ACEF8100000000 DUP4 DUP2 PUSH2 0x3520 JUMPI PUSH2 0x351F PUSH2 0x46BD JUMP JUMPDEST JUMPDEST DIV SWAP3 POP PUSH1 0x20 DUP2 ADD SWAP1 POP JUMPDEST PUSH7 0x2386F26FC10000 DUP4 LT PUSH2 0x3559 JUMPI PUSH7 0x2386F26FC10000 DUP4 DUP2 PUSH2 0x354F JUMPI PUSH2 0x354E PUSH2 0x46BD JUMP JUMPDEST JUMPDEST DIV SWAP3 POP PUSH1 0x10 DUP2 ADD SWAP1 POP JUMPDEST PUSH4 0x5F5E100 DUP4 LT PUSH2 0x3582 JUMPI PUSH4 0x5F5E100 DUP4 DUP2 PUSH2 0x3578 JUMPI PUSH2 0x3577 PUSH2 0x46BD JUMP JUMPDEST JUMPDEST DIV SWAP3 POP PUSH1 0x8 DUP2 ADD SWAP1 POP JUMPDEST PUSH2 0x2710 DUP4 LT PUSH2 0x35A7 JUMPI PUSH2 0x2710 DUP4 DUP2 PUSH2 0x359D JUMPI PUSH2 0x359C PUSH2 0x46BD JUMP JUMPDEST JUMPDEST DIV SWAP3 POP PUSH1 0x4 DUP2 ADD SWAP1 POP JUMPDEST PUSH1 0x64 DUP4 LT PUSH2 0x35CA JUMPI PUSH1 0x64 DUP4 DUP2 PUSH2 0x35C0 JUMPI PUSH2 0x35BF PUSH2 0x46BD JUMP JUMPDEST JUMPDEST DIV SWAP3 POP PUSH1 0x2 DUP2 ADD SWAP1 POP JUMPDEST PUSH1 0xA DUP4 LT PUSH2 0x35D9 JUMPI PUSH1 0x1 DUP2 ADD SWAP1 POP JUMPDEST DUP1 SWAP2 POP POP SWAP2 SWAP1 POP JUMP JUMPDEST PUSH0 DUP1 PUSH20 0xFFFFFFFFFFFFFFFFFFFFFFFFFFFFFFFFFFFFFFFF AND DUP4 PUSH20 0xFFFFFFFFFFFFFFFFFFFFFFFFFFFFFFFFFFFFFFFF AND EQ ISZERO DUP1 ISZERO PUSH2 0x3699 JUMPI POP DUP3 PUSH20 0xFFFFFFFFFFFFFFFFFFFFFFFFFFFFFFFFFFFFFFFF AND DUP5 PUSH20 0xFFFFFFFFFFFFFFFFFFFFFFFFFFFFFFFFFFFFFFFF AND EQ DUP1 PUSH2 0x365A JUMPI POP PUSH2 0x3659 DUP5 DUP5 PUSH2 0x2543 JUMP JUMPDEST JUMPDEST DUP1 PUSH2 0x3698 JUMPI POP DUP3 PUSH20 0xFFFFFFFFFFFFFFFFFFFFFFFFFFFFFFFFFFFFFFFF AND PUSH2 0x3680 DUP4 PUSH2 0x29B3 JUMP JUMPDEST PUSH20 0xFFFFFFFFFFFFFFFFFFFFFFFFFFFFFFFFFFFFFFFF AND EQ JUMPDEST JUMPDEST SWAP1 POP SWAP4 SWAP3 POP POP POP JUMP JUMPDEST PUSH0 PUSH20 0xFFFFFFFFFFFFFFFFFFFFFFFFFFFFFFFFFFFFFFFF AND DUP3 PUSH20 0xFFFFFFFFFFFFFFFFFFFFFFFFFFFFFFFFFFFFFFFF AND SUB PUSH2 0x3712 JUMPI PUSH0 PUSH1 0x40 MLOAD PUSH32 0x64A0AE9200000000000000000000000000000000000000000000000000000000 DUP2 MSTORE PUSH1 0x4 ADD PUSH2 0x3709 SWAP2 SWAP1 PUSH2 0x3986 JUMP JUMPDEST PUSH1 0x40 MLOAD DUP1 SWAP2 SUB SWAP1 REVERT JUMPDEST PUSH0 PUSH2 0x371E DUP4 DUP4 PUSH0 PUSH2 0x2A05 JUMP JUMPDEST SWAP1 POP PUSH0 PUSH20 0xFFFFFFFFFFFFFFFFFFFFFFFFFFFFFFFFFFFFFFFF AND DUP2 PUSH20 0xFFFFFFFFFFFFFFFFFFFFFFFFFFFFFFFFFFFFFFFF AND EQ PUSH2 0x3790 JUMPI PUSH0 PUSH1 0x40 MLOAD PUSH32 0x73C6AC6E00000000000000000000000000000000000000000000000000000000 DUP2 MSTORE PUSH1 0x4 ADD PUSH2 0x3787 SWAP2 SWAP1 PUSH2 0x3986 JUMP JUMPDEST PUSH1 0x40 MLOAD DUP1 SWAP2 SUB SWAP1 REVERT JUMPDEST POP POP POP JUMP JUMPDEST PUSH0 PUSH1 0x40 MLOAD SWAP1 POP SWAP1 JUMP JUMPDEST PUSH0 DUP1 REVERT JUMPDEST PUSH0 DUP1 REVERT JUMPDEST PUSH0 PUSH32 0xFFFFFFFF00000000000000000000000000000000000000000000000000000000 DUP3 AND SWAP1 POP SWAP2 SWAP1 POP JUMP JUMPDEST PUSH2 0x37DA DUP2 PUSH2 0x37A6 JUMP JUMPDEST DUP2 EQ PUSH2 0x37E4 JUMPI PUSH0 DUP1 REVERT JUMPDEST POP JUMP JUMPDEST PUSH0 DUP2 CALLDATALOAD SWAP1 POP PUSH2 0x37F5 DUP2 PUSH2 0x37D1 JUMP JUMPDEST SWAP3 SWAP2 POP POP JUMP JUMPDEST PUSH0 PUSH1 0x20 DUP3 DUP5 SUB SLT ISZERO PUSH2 0x3810 JUMPI PUSH2 0x380F PUSH2 0x379E JUMP JUMPDEST JUMPDEST PUSH0 PUSH2 0x381D DUP5 DUP3 DUP6 ADD PUSH2 0x37E7 JUMP JUMPDEST SWAP2 POP POP SWAP3 SWAP2 POP POP JUMP JUMPDEST PUSH0 DUP2 ISZERO ISZERO SWAP1 POP SWAP2 SWAP1 POP JUMP JUMPDEST PUSH2 0x383A DUP2 PUSH2 0x3826 JUMP JUMPDEST DUP3 MSTORE POP POP JUMP JUMPDEST PUSH0 PUSH1 0x20 DUP3 ADD SWAP1 POP PUSH2 0x3853 PUSH0 DUP4 ADD DUP5 PUSH2 0x3831 JUMP JUMPDEST SWAP3 SWAP2 POP POP JUMP JUMPDEST PUSH0 DUP2 MLOAD SWAP1 POP SWAP2 SWAP1 POP JUMP JUMPDEST PUSH0 DUP3 DUP3 MSTORE PUSH1 0x20 DUP3 ADD SWAP1 POP SWAP3 SWAP2 POP POP JUMP JUMPDEST DUP3 DUP2 DUP4 MCOPY PUSH0 DUP4 DUP4 ADD MSTORE POP POP POP JUMP JUMPDEST PUSH0 PUSH1 0x1F NOT PUSH1 0x1F DUP4 ADD AND SWAP1 POP SWAP2 SWAP1 POP JUMP JUMPDEST PUSH0 PUSH2 0x389B DUP3 PUSH2 0x3859 JUMP JUMPDEST PUSH2 0x38A5 DUP2 DUP6 PUSH2 0x3863 JUMP JUMPDEST SWAP4 POP PUSH2 0x38B5 DUP2 DUP6 PUSH1 0x20 DUP7 ADD PUSH2 0x3873 JUMP JUMPDEST PUSH2 0x38BE DUP2 PUSH2 0x3881 JUMP JUMPDEST DUP5 ADD SWAP2 POP POP SWAP3 SWAP2 POP POP JUMP JUMPDEST PUSH0 PUSH1 0x20 DUP3 ADD SWAP1 POP DUP2 DUP2 SUB PUSH0 DUP4 ADD MSTORE PUSH2 0x38E1 DUP2 DUP5 PUSH2 0x3891 JUMP JUMPDEST SWAP1 POP SWAP3 SWAP2 POP POP JUMP JUMPDEST PUSH0 DUP2 SWAP1 POP SWAP2 SWAP1 POP JUMP JUMPDEST PUSH2 0x38FB DUP2 PUSH2 0x38E9 JUMP JUMPDEST DUP2 EQ PUSH2 0x3905 JUMPI PUSH0 DUP1 REVERT JUMPDEST POP JUMP JUMPDEST PUSH0 DUP2 CALLDATALOAD SWAP1 POP PUSH2 0x3916 DUP2 PUSH2 0x38F2 JUMP JUMPDEST SWAP3 SWAP2 POP POP JUMP JUMPDEST PUSH0 PUSH1 0x20 DUP3 DUP5 SUB SLT ISZERO PUSH2 0x3931 JUMPI PUSH2 0x3930 PUSH2 0x379E JUMP JUMPDEST JUMPDEST PUSH0 PUSH2 0x393E DUP5 DUP3 DUP6 ADD PUSH2 0x3908 JUMP JUMPDEST SWAP2 POP POP SWAP3 SWAP2 POP POP JUMP JUMPDEST PUSH0 PUSH20 0xFFFFFFFFFFFFFFFFFFFFFFFFFFFFFFFFFFFFFFFF DUP3 AND SWAP1 POP SWAP2 SWAP1 POP JUMP JUMPDEST PUSH0 PUSH2 0x3970 DUP3 PUSH2 0x3947 JUMP JUMPDEST SWAP1 POP SWAP2 SWAP1 POP JUMP JUMPDEST PUSH2 0x3980 DUP2 PUSH2 0x3966 JUMP JUMPDEST DUP3 MSTORE POP POP JUMP JUMPDEST PUSH0 PUSH1 0x20 DUP3 ADD SWAP1 POP PUSH2 0x3999 PUSH0 DUP4 ADD DUP5 PUSH2 0x3977 JUMP JUMPDEST SWAP3 SWAP2 POP POP JUMP JUMPDEST PUSH2 0x39A8 DUP2 PUSH2 0x3966 JUMP JUMPDEST DUP2 EQ PUSH2 0x39B2 JUMPI PUSH0 DUP1 REVERT JUMPDEST POP JUMP JUMPDEST PUSH0 DUP2 CALLDATALOAD SWAP1 POP PUSH2 0x39C3 DUP2 PUSH2 0x399F JUMP JUMPDEST SWAP3 SWAP2 POP POP JUMP JUMPDEST PUSH0 DUP1 PUSH1 0x40 DUP4 DUP6 SUB SLT ISZERO PUSH2 0x39DF JUMPI PUSH2 0x39DE PUSH2 0x379E JUMP JUMPDEST JUMPDEST PUSH0 PUSH2 0x39EC DUP6 DUP3 DUP7 ADD PUSH2 0x39B5 JUMP JUMPDEST SWAP3 POP POP PUSH1 0x20 PUSH2 0x39FD DUP6 DUP3 DUP7 ADD PUSH2 0x3908 JUMP JUMPDEST SWAP2 POP POP SWAP3 POP SWAP3 SWAP1 POP JUMP JUMPDEST PUSH0 DUP1 PUSH0 PUSH1 0x60 DUP5 DUP7 SUB SLT ISZERO PUSH2 0x3A1E JUMPI PUSH2 0x3A1D PUSH2 0x379E JUMP JUMPDEST JUMPDEST PUSH0 PUSH2 0x3A2B DUP7 DUP3 DUP8 ADD PUSH2 0x39B5 JUMP JUMPDEST SWAP4 POP POP PUSH1 0x20 PUSH2 0x3A3C DUP7 DUP3 DUP8 ADD PUSH2 0x39B5 JUMP JUMPDEST SWAP3 POP POP PUSH1 0x40 PUSH2 0x3A4D DUP7 DUP3 DUP8 ADD PUSH2 0x3908 JUMP JUMPDEST SWAP2 POP POP SWAP3 POP SWAP3 POP SWAP3 JUMP JUMPDEST PUSH0 PUSH1 0x20 DUP3 DUP5 SUB SLT ISZERO PUSH2 0x3A6C JUMPI PUSH2 0x3A6B PUSH2 0x379E JUMP JUMPDEST JUMPDEST PUSH0 PUSH2 0x3A79 DUP5 DUP3 DUP6 ADD PUSH2 0x39B5 JUMP JUMPDEST SWAP2 POP POP SWAP3 SWAP2 POP POP JUMP JUMPDEST PUSH2 0x3A8B DUP2 PUSH2 0x38E9 JUMP JUMPDEST DUP3 MSTORE POP POP JUMP JUMPDEST PUSH0 PUSH1 0x20 DUP3 ADD SWAP1 POP PUSH2 0x3AA4 PUSH0 DUP4 ADD DUP5 PUSH2 0x3A82 JUMP JUMPDEST SWAP3 SWAP2 POP POP JUMP JUMPDEST PUSH0 DUP2 SWAP1 POP SWAP2 SWAP1 POP JUMP JUMPDEST PUSH0 PUSH2 0x3ACD PUSH2 0x3AC8 PUSH2 0x3AC3 DUP5 PUSH2 0x3947 JUMP JUMPDEST PUSH2 0x3AAA JUMP JUMPDEST PUSH2 0x3947 JUMP JUMPDEST SWAP1 POP SWAP2 SWAP1 POP JUMP JUMPDEST PUSH0 PUSH2 0x3ADE DUP3 PUSH2 0x3AB3 JUMP JUMPDEST SWAP1 POP SWAP2 SWAP1 POP JUMP JUMPDEST PUSH0 PUSH2 0x3AEF DUP3 PUSH2 0x3AD4 JUMP JUMPDEST SWAP1 POP SWAP2 SWAP1 POP JUMP JUMPDEST PUSH2 0x3AFF DUP2 PUSH2 0x3AE5 JUMP JUMPDEST DUP3 MSTORE POP POP JUMP JUMPDEST PUSH0 PUSH1 0x20 DUP3 ADD SWAP1 POP PUSH2 0x3B18 PUSH0 DUP4 ADD DUP5 PUSH2 0x3AF6 JUMP JUMPDEST SWAP3 SWAP2 POP POP JUMP JUMPDEST PUSH0 PUSH2 0x3B28 DUP3 PUSH2 0x3AD4 JUMP JUMPDEST SWAP1 POP SWAP2 SWAP1 POP JUMP JUMPDEST PUSH2 0x3B38 DUP2 PUSH2 0x3B1E JUMP JUMPDEST DUP3 MSTORE POP POP JUMP JUMPDEST PUSH0 PUSH1 0x20 DUP3 ADD SWAP1 POP PUSH2 0x3B51 PUSH0 DUP4 ADD DUP5 PUSH2 0x3B2F JUMP JUMPDEST SWAP3 SWAP2 POP POP JUMP JUMPDEST PUSH2 0x3B60 DUP2 PUSH2 0x3826 JUMP JUMPDEST DUP2 EQ PUSH2 0x3B6A JUMPI PUSH0 DUP1 REVERT JUMPDEST POP JUMP JUMPDEST PUSH0 DUP2 CALLDATALOAD SWAP1 POP PUSH2 0x3B7B DUP2 PUSH2 0x3B57 JUMP JUMPDEST SWAP3 SWAP2 POP POP JUMP JUMPDEST PUSH0 DUP1 PUSH1 0x40 DUP4 DUP6 SUB SLT ISZERO PUSH2 0x3B97 JUMPI PUSH2 0x3B96 PUSH2 0x379E JUMP JUMPDEST JUMPDEST PUSH0 PUSH2 0x3BA4 DUP6 DUP3 DUP7 ADD PUSH2 0x39B5 JUMP JUMPDEST SWAP3 POP POP PUSH1 0x20 PUSH2 0x3BB5 DUP6 DUP3 DUP7 ADD PUSH2 0x3B6D JUMP JUMPDEST SWAP2 POP POP SWAP3 POP SWAP3 SWAP1 POP JUMP JUMPDEST PUSH0 PUSH2 0x3BC9 DUP3 PUSH2 0x3AD4 JUMP JUMPDEST SWAP1 POP SWAP2 SWAP1 POP JUMP JUMPDEST PUSH2 0x3BD9 DUP2 PUSH2 0x3BBF JUMP JUMPDEST DUP3 MSTORE POP POP JUMP JUMPDEST PUSH0 PUSH1 0x20 DUP3 ADD SWAP1 POP PUSH2 0x3BF2 PUSH0 DUP4 ADD DUP5 PUSH2 0x3BD0 JUMP JUMPDEST SWAP3 SWAP2 POP POP JUMP JUMPDEST PUSH0 DUP1 REVERT JUMPDEST PUSH0 DUP1 REVERT JUMPDEST PUSH32 0x4E487B7100000000000000000000000000000000000000000000000000000000 PUSH0 MSTORE PUSH1 0x41 PUSH1 0x4 MSTORE PUSH1 0x24 PUSH0 REVERT JUMPDEST PUSH2 0x3C36 DUP3 PUSH2 0x3881 JUMP JUMPDEST DUP2 ADD DUP2 DUP2 LT PUSH8 0xFFFFFFFFFFFFFFFF DUP3 GT OR ISZERO PUSH2 0x3C55 JUMPI PUSH2 0x3C54 PUSH2 0x3C00 JUMP JUMPDEST JUMPDEST DUP1 PUSH1 0x40 MSTORE POP POP POP JUMP JUMPDEST PUSH0 PUSH2 0x3C67 PUSH2 0x3795 JUMP JUMPDEST SWAP1 POP PUSH2 0x3C73 DUP3 DUP3 PUSH2 0x3C2D JUMP JUMPDEST SWAP2 SWAP1 POP JUMP JUMPDEST PUSH0 PUSH8 0xFFFFFFFFFFFFFFFF DUP3 GT ISZERO PUSH2 0x3C92 JUMPI PUSH2 0x3C91 PUSH2 0x3C00 JUMP JUMPDEST JUMPDEST PUSH2 0x3C9B DUP3 PUSH2 0x3881 JUMP JUMPDEST SWAP1 POP PUSH1 0x20 DUP2 ADD SWAP1 POP SWAP2 SWAP1 POP JUMP JUMPDEST DUP3 DUP2 DUP4 CALLDATACOPY PUSH0 DUP4 DUP4 ADD MSTORE POP POP POP JUMP JUMPDEST PUSH0 PUSH2 0x3CC8 PUSH2 0x3CC3 DUP5 PUSH2 0x3C78 JUMP JUMPDEST PUSH2 0x3C5E JUMP JUMPDEST SWAP1 POP DUP3 DUP2 MSTORE PUSH1 0x20 DUP2 ADD DUP5 DUP5 DUP5 ADD GT ISZERO PUSH2 0x3CE4 JUMPI PUSH2 0x3CE3 PUSH2 0x3BFC JUMP JUMPDEST JUMPDEST PUSH2 0x3CEF DUP5 DUP3 DUP6 PUSH2 0x3CA8 JUMP JUMPDEST POP SWAP4 SWAP3 POP POP POP JUMP JUMPDEST PUSH0 DUP3 PUSH1 0x1F DUP4 ADD SLT PUSH2 0x3D0B JUMPI PUSH2 0x3D0A PUSH2 0x3BF8 JUMP JUMPDEST JUMPDEST DUP2 CALLDATALOAD PUSH2 0x3D1B DUP5 DUP3 PUSH1 0x20 DUP7 ADD PUSH2 0x3CB6 JUMP JUMPDEST SWAP2 POP POP SWAP3 SWAP2 POP POP JUMP JUMPDEST PUSH0 DUP1 PUSH0 DUP1 PUSH1 0x80 DUP6 DUP8 SUB SLT ISZERO PUSH2 0x3D3C JUMPI PUSH2 0x3D3B PUSH2 0x379E JUMP JUMPDEST JUMPDEST PUSH0 PUSH2 0x3D49 DUP8 DUP3 DUP9 ADD PUSH2 0x39B5 JUMP JUMPDEST SWAP5 POP POP PUSH1 0x20 PUSH2 0x3D5A DUP8 DUP3 DUP9 ADD PUSH2 0x39B5 JUMP JUMPDEST SWAP4 POP POP PUSH1 0x40 PUSH2 0x3D6B DUP8 DUP3 DUP9 ADD PUSH2 0x3908 JUMP JUMPDEST SWAP3 POP POP PUSH1 0x60 DUP6 ADD CALLDATALOAD PUSH8 0xFFFFFFFFFFFFFFFF DUP2 GT ISZERO PUSH2 0x3D8C JUMPI PUSH2 0x3D8B PUSH2 0x37A2 JUMP JUMPDEST JUMPDEST PUSH2 0x3D98 DUP8 DUP3 DUP9 ADD PUSH2 0x3CF7 JUMP JUMPDEST SWAP2 POP POP SWAP3 SWAP6 SWAP2 SWAP5 POP SWAP3 POP JUMP JUMPDEST PUSH0 DUP1 PUSH1 0x40 DUP4 DUP6 SUB SLT ISZERO PUSH2 0x3DBA JUMPI PUSH2 0x3DB9 PUSH2 0x379E JUMP JUMPDEST JUMPDEST PUSH0 PUSH2 0x3DC7 DUP6 DUP3 DUP7 ADD PUSH2 0x39B5 JUMP JUMPDEST SWAP3 POP POP PUSH1 0x20 PUSH2 0x3DD8 DUP6 DUP3 DUP7 ADD PUSH2 0x39B5 JUMP JUMPDEST SWAP2 POP POP SWAP3 POP SWAP3 SWAP1 POP JUMP JUMPDEST PUSH32 0x4E487B7100000000000000000000000000000000000000000000000000000000 PUSH0 MSTORE PUSH1 0x22 PUSH1 0x4 MSTORE PUSH1 0x24 PUSH0 REVERT JUMPDEST PUSH0 PUSH1 0x2 DUP3 DIV SWAP1 POP PUSH1 0x1 DUP3 AND DUP1 PUSH2 0x3E26 JUMPI PUSH1 0x7F DUP3 AND SWAP2 POP JUMPDEST PUSH1 0x20 DUP3 LT DUP2 SUB PUSH2 0x3E39 JUMPI PUSH2 0x3E38 PUSH2 0x3DE2 JUMP JUMPDEST JUMPDEST POP SWAP2 SWAP1 POP JUMP JUMPDEST PUSH0 PUSH1 0x60 DUP3 ADD SWAP1 POP PUSH2 0x3E52 PUSH0 DUP4 ADD DUP7 PUSH2 0x3977 JUMP JUMPDEST PUSH2 0x3E5F PUSH1 0x20 DUP4 ADD DUP6 PUSH2 0x3A82 JUMP JUMPDEST PUSH2 0x3E6C PUSH1 0x40 DUP4 ADD DUP5 PUSH2 0x3977 JUMP JUMPDEST SWAP5 SWAP4 POP POP POP POP JUMP JUMPDEST PUSH32 0x4E487B7100000000000000000000000000000000000000000000000000000000 PUSH0 MSTORE PUSH1 0x11 PUSH1 0x4 MSTORE PUSH1 0x24 PUSH0 REVERT JUMPDEST PUSH0 PUSH2 0x3EAB DUP3 PUSH2 0x38E9 JUMP JUMPDEST SWAP2 POP PUSH2 0x3EB6 DUP4 PUSH2 0x38E9 JUMP JUMPDEST SWAP3 POP DUP3 DUP3 SUB SWAP1 POP DUP2 DUP2 GT ISZERO PUSH2 0x3ECE JUMPI PUSH2 0x3ECD PUSH2 0x3E74 JUMP JUMPDEST JUMPDEST SWAP3 SWAP2 POP POP JUMP JUMPDEST PUSH32 0x47616D6520646F6573206E6F7420657869737400000000000000000000000000 PUSH0 DUP3 ADD MSTORE POP JUMP JUMPDEST PUSH0 PUSH2 0x3F08 PUSH1 0x13 DUP4 PUSH2 0x3863 JUMP JUMPDEST SWAP2 POP PUSH2 0x3F13 DUP3 PUSH2 0x3ED4 JUMP JUMPDEST PUSH1 0x20 DUP3 ADD SWAP1 POP SWAP2 SWAP1 POP JUMP JUMPDEST PUSH0 PUSH1 0x20 DUP3 ADD SWAP1 POP DUP2 DUP2 SUB PUSH0 DUP4 ADD MSTORE PUSH2 0x3F35 DUP2 PUSH2 0x3EFC JUMP JUMPDEST SWAP1 POP SWAP2 SWAP1 POP JUMP JUMPDEST PUSH32 0x47616D652068617320616C7265616479206265656E20706C6179656400000000 PUSH0 DUP3 ADD MSTORE POP JUMP JUMPDEST PUSH0 PUSH2 0x3F70 PUSH1 0x1C DUP4 PUSH2 0x3863 JUMP JUMPDEST SWAP2 POP PUSH2 0x3F7B DUP3 PUSH2 0x3F3C JUMP JUMPDEST PUSH1 0x20 DUP3 ADD SWAP1 POP SWAP2 SWAP1 POP JUMP JUMPDEST PUSH0 PUSH1 0x20 DUP3 ADD SWAP1 POP DUP2 DUP2 SUB PUSH0 DUP4 ADD MSTORE PUSH2 0x3F9D DUP2 PUSH2 0x3F64 JUMP JUMPDEST SWAP1 POP SWAP2 SWAP1 POP JUMP JUMPDEST PUSH32 0x496E76616C6964206D6F76650000000000000000000000000000000000000000 PUSH0 DUP3 ADD MSTORE POP JUMP JUMPDEST PUSH0 PUSH2 0x3FD8 PUSH1 0xC DUP4 PUSH2 0x3863 JUMP JUMPDEST SWAP2 POP PUSH2 0x3FE3 DUP3 PUSH2 0x3FA4 JUMP JUMPDEST PUSH1 0x20 DUP3 ADD SWAP1 POP SWAP2 SWAP1 POP JUMP JUMPDEST PUSH0 PUSH1 0x20 DUP3 ADD SWAP1 POP DUP2 DUP2 SUB PUSH0 DUP4 ADD MSTORE PUSH2 0x4005 DUP2 PUSH2 0x3FCC JUMP JUMPDEST SWAP1 POP SWAP2 SWAP1 POP JUMP JUMPDEST PUSH32 0x596F7520617265206E6F7420616C6C6F77656420746F20706C61792074686973 PUSH0 DUP3 ADD MSTORE PUSH32 0x2067616D65000000000000000000000000000000000000000000000000000000 PUSH1 0x20 DUP3 ADD MSTORE POP JUMP JUMPDEST PUSH0 PUSH2 0x4066 PUSH1 0x25 DUP4 PUSH2 0x3863 JUMP JUMPDEST SWAP2 POP PUSH2 0x4071 DUP3 PUSH2 0x400C JUMP JUMPDEST PUSH1 0x40 DUP3 ADD SWAP1 POP SWAP2 SWAP1 POP JUMP JUMPDEST PUSH0 PUSH1 0x20 DUP3 ADD SWAP1 POP DUP2 DUP2 SUB PUSH0 DUP4 ADD MSTORE PUSH2 0x4093 DUP2 PUSH2 0x405A JUMP JUMPDEST SWAP1 POP SWAP2 SWAP1 POP JUMP JUMPDEST PUSH32 0x4E487B7100000000000000000000000000000000000000000000000000000000 PUSH0 MSTORE PUSH1 0x21 PUSH1 0x4 MSTORE PUSH1 0x24 PUSH0 REVERT JUMPDEST PUSH32 0x596F75206861766520616C72656164792073656C65637465642061206D6F7665 PUSH0 DUP3 ADD MSTORE POP JUMP JUMPDEST PUSH0 PUSH2 0x40FB PUSH1 0x20 DUP4 PUSH2 0x3863 JUMP JUMPDEST SWAP2 POP PUSH2 0x4106 DUP3 PUSH2 0x40C7 JUMP JUMPDEST PUSH1 0x20 DUP3 ADD SWAP1 POP SWAP2 SWAP1 POP JUMP JUMPDEST PUSH0 PUSH1 0x20 DUP3 ADD SWAP1 POP DUP2 DUP2 SUB PUSH0 DUP4 ADD MSTORE PUSH2 0x4128 DUP2 PUSH2 0x40EF JUMP JUMPDEST SWAP1 POP SWAP2 SWAP1 POP JUMP JUMPDEST PUSH0 DUP2 MLOAD SWAP1 POP PUSH2 0x413D DUP2 PUSH2 0x38F2 JUMP JUMPDEST SWAP3 SWAP2 POP POP JUMP JUMPDEST PUSH0 PUSH1 0x20 DUP3 DUP5 SUB SLT ISZERO PUSH2 0x4158 JUMPI PUSH2 0x4157 PUSH2 0x379E JUMP JUMPDEST JUMPDEST PUSH0 PUSH2 0x4165 DUP5 DUP3 DUP6 ADD PUSH2 0x412F JUMP JUMPDEST SWAP2 POP POP SWAP3 SWAP2 POP POP JUMP JUMPDEST PUSH32 0x596F7520646F6E277420686176652074686520526F636B20746F6B656E000000 PUSH0 DUP3 ADD MSTORE POP JUMP JUMPDEST PUSH0 PUSH2 0x41A2 PUSH1 0x1D DUP4 PUSH2 0x3863 JUMP JUMPDEST SWAP2 POP PUSH2 0x41AD DUP3 PUSH2 0x416E JUMP JUMPDEST PUSH1 0x20 DUP3 ADD SWAP1 POP SWAP2 SWAP1 POP JUMP JUMPDEST PUSH0 PUSH1 0x20 DUP3 ADD SWAP1 POP DUP2 DUP2 SUB PUSH0 DUP4 ADD MSTORE PUSH2 0x41CF DUP2 PUSH2 0x4196 JUMP JUMPDEST SWAP1 POP SWAP2 SWAP1 POP JUMP JUMPDEST PUSH32 0x596F7520646F6E277420686176652074686520506170657220746F6B656E0000 PUSH0 DUP3 ADD MSTORE POP JUMP JUMPDEST PUSH0 PUSH2 0x420A PUSH1 0x1E DUP4 PUSH2 0x3863 JUMP JUMPDEST SWAP2 POP PUSH2 0x4215 DUP3 PUSH2 0x41D6 JUMP JUMPDEST PUSH1 0x20 DUP3 ADD SWAP1 POP SWAP2 SWAP1 POP JUMP JUMPDEST PUSH0 PUSH1 0x20 DUP3 ADD SWAP1 POP DUP2 DUP2 SUB PUSH0 DUP4 ADD MSTORE PUSH2 0x4237 DUP2 PUSH2 0x41FE JUMP JUMPDEST SWAP1 POP SWAP2 SWAP1 POP JUMP JUMPDEST PUSH32 0x596F7520646F6E27742068617665207468652053636973736F7220746F6B656E PUSH0 DUP3 ADD MSTORE POP JUMP JUMPDEST PUSH0 PUSH2 0x4272 PUSH1 0x20 DUP4 PUSH2 0x3863 JUMP JUMPDEST SWAP2 POP PUSH2 0x427D DUP3 PUSH2 0x423E JUMP JUMPDEST PUSH1 0x20 DUP3 ADD SWAP1 POP SWAP2 SWAP1 POP JUMP JUMPDEST PUSH0 PUSH1 0x20 DUP3 ADD SWAP1 POP DUP2 DUP2 SUB PUSH0 DUP4 ADD MSTORE PUSH2 0x429F DUP2 PUSH2 0x4266 JUMP JUMPDEST SWAP1 POP SWAP2 SWAP1 POP JUMP JUMPDEST PUSH1 0x4 DUP2 LT PUSH2 0x42B7 JUMPI PUSH2 0x42B6 PUSH2 0x409A JUMP JUMPDEST JUMPDEST POP JUMP JUMPDEST PUSH0 DUP2 SWAP1 POP PUSH2 0x42C7 DUP3 PUSH2 0x42A6 JUMP JUMPDEST SWAP2 SWAP1 POP JUMP JUMPDEST PUSH0 PUSH2 0x42D6 DUP3 PUSH2 0x42BA JUMP JUMPDEST SWAP1 POP SWAP2 SWAP1 POP JUMP JUMPDEST PUSH2 0x42E6 DUP2 PUSH2 0x42CC JUMP JUMPDEST DUP3 MSTORE POP POP JUMP JUMPDEST PUSH0 PUSH1 0x60 DUP3 ADD SWAP1 POP PUSH2 0x42FF PUSH0 DUP4 ADD DUP7 PUSH2 0x3A82 JUMP JUMPDEST PUSH2 0x430C PUSH1 0x20 DUP4 ADD DUP6 PUSH2 0x3977 JUMP JUMPDEST PUSH2 0x4319 PUSH1 0x40 DUP4 ADD DUP5 PUSH2 0x42DD JUMP JUMPDEST SWAP5 SWAP4 POP POP POP POP JUMP JUMPDEST PUSH0 PUSH1 0x60 DUP3 ADD SWAP1 POP PUSH2 0x4334 PUSH0 DUP4 ADD DUP7 PUSH2 0x3A82 JUMP JUMPDEST PUSH2 0x4341 PUSH1 0x20 DUP4 ADD DUP6 PUSH2 0x3977 JUMP JUMPDEST DUP2 DUP2 SUB PUSH1 0x40 DUP4 ADD MSTORE PUSH2 0x4353 DUP2 DUP5 PUSH2 0x3891 JUMP JUMPDEST SWAP1 POP SWAP5 SWAP4 POP POP POP POP JUMP JUMPDEST PUSH0 PUSH1 0x40 DUP3 ADD SWAP1 POP PUSH2 0x4370 PUSH0 DUP4 ADD DUP6 PUSH2 0x3A82 JUMP JUMPDEST PUSH2 0x437D PUSH1 0x20 DUP4 ADD DUP5 PUSH2 0x3977 JUMP JUMPDEST SWAP4 SWAP3 POP POP POP JUMP JUMPDEST PUSH0 PUSH2 0x438E DUP3 PUSH2 0x38E9 JUMP JUMPDEST SWAP2 POP PUSH32 0xFFFFFFFFFFFFFFFFFFFFFFFFFFFFFFFFFFFFFFFFFFFFFFFFFFFFFFFFFFFFFFFF DUP3 SUB PUSH2 0x43C0 JUMPI PUSH2 0x43BF PUSH2 0x3E74 JUMP JUMPDEST JUMPDEST PUSH1 0x1 DUP3 ADD SWAP1 POP SWAP2 SWAP1 POP JUMP JUMPDEST PUSH0 DUP2 SWAP1 POP SWAP2 SWAP1 POP JUMP JUMPDEST PUSH0 PUSH2 0x43EE PUSH2 0x43E9 PUSH2 0x43E4 DUP5 PUSH2 0x43CB JUMP JUMPDEST PUSH2 0x3AAA JUMP JUMPDEST PUSH2 0x38E9 JUMP JUMPDEST SWAP1 POP SWAP2 SWAP1 POP JUMP JUMPDEST PUSH2 0x43FE DUP2 PUSH2 0x43D4 JUMP JUMPDEST DUP3 MSTORE POP POP JUMP JUMPDEST PUSH0 PUSH1 0x60 DUP3 ADD SWAP1 POP PUSH2 0x4417 PUSH0 DUP4 ADD DUP7 PUSH2 0x43F5 JUMP JUMPDEST PUSH2 0x4424 PUSH1 0x20 DUP4 ADD DUP6 PUSH2 0x3977 JUMP JUMPDEST PUSH2 0x4431 PUSH1 0x40 DUP4 ADD DUP5 PUSH2 0x42DD JUMP JUMPDEST SWAP5 SWAP4 POP POP POP POP JUMP JUMPDEST PUSH0 PUSH1 0x60 DUP3 ADD SWAP1 POP PUSH2 0x444C PUSH0 DUP4 ADD DUP7 PUSH2 0x43F5 JUMP JUMPDEST PUSH2 0x4459 PUSH1 0x20 DUP4 ADD DUP6 PUSH2 0x3977 JUMP JUMPDEST DUP2 DUP2 SUB PUSH1 0x40 DUP4 ADD MSTORE PUSH2 0x446B DUP2 DUP5 PUSH2 0x3891 JUMP JUMPDEST SWAP1 POP SWAP5 SWAP4 POP POP POP POP JUMP JUMPDEST PUSH32 0x47616D65206973207374696C6C20696E2070726F677265737300000000000000 PUSH0 DUP3 ADD MSTORE POP JUMP JUMPDEST PUSH0 PUSH2 0x44A9 PUSH1 0x19 DUP4 PUSH2 0x3863 JUMP JUMPDEST SWAP2 POP PUSH2 0x44B4 DUP3 PUSH2 0x4475 JUMP JUMPDEST PUSH1 0x20 DUP3 ADD SWAP1 POP SWAP2 SWAP1 POP JUMP JUMPDEST PUSH0 PUSH1 0x20 DUP3 ADD SWAP1 POP DUP2 DUP2 SUB PUSH0 DUP4 ADD MSTORE PUSH2 0x44D6 DUP2 PUSH2 0x449D JUMP JUMPDEST SWAP1 POP SWAP2 SWAP1 POP JUMP JUMPDEST PUSH32 0x596F7520617265206E6F742070617274206F6620746869732067616D65000000 PUSH0 DUP3 ADD MSTORE POP JUMP JUMPDEST PUSH0 PUSH2 0x4511 PUSH1 0x1D DUP4 PUSH2 0x3863 JUMP JUMPDEST SWAP2 POP PUSH2 0x451C DUP3 PUSH2 0x44DD JUMP JUMPDEST PUSH1 0x20 DUP3 ADD SWAP1 POP SWAP2 SWAP1 POP JUMP JUMPDEST PUSH0 PUSH1 0x20 DUP3 ADD SWAP1 POP DUP2 DUP2 SUB PUSH0 DUP4 ADD MSTORE PUSH2 0x453E DUP2 PUSH2 0x4505 JUMP JUMPDEST SWAP1 POP SWAP2 SWAP1 POP JUMP JUMPDEST PUSH0 DUP2 SWAP1 POP SWAP3 SWAP2 POP POP JUMP JUMPDEST PUSH0 PUSH2 0x4559 DUP3 PUSH2 0x3859 JUMP JUMPDEST PUSH2 0x4563 DUP2 DUP6 PUSH2 0x4545 JUMP JUMPDEST SWAP4 POP PUSH2 0x4573 DUP2 DUP6 PUSH1 0x20 DUP7 ADD PUSH2 0x3873 JUMP JUMPDEST DUP1 DUP5 ADD SWAP2 POP POP SWAP3 SWAP2 POP POP JUMP JUMPDEST PUSH0 PUSH2 0x458A DUP3 DUP6 PUSH2 0x454F JUMP JUMPDEST SWAP2 POP PUSH2 0x4596 DUP3 DUP5 PUSH2 0x454F JUMP JUMPDEST SWAP2 POP DUP2 SWAP1 POP SWAP4 SWAP3 POP POP POP JUMP JUMPDEST PUSH32 0x47616D6520616C7265616479206861732074776F20706C617965727300000000 PUSH0 DUP3 ADD MSTORE POP JUMP JUMPDEST PUSH0 PUSH2 0x45D6 PUSH1 0x1C DUP4 PUSH2 0x3863 JUMP JUMPDEST SWAP2 POP PUSH2 0x45E1 DUP3 PUSH2 0x45A2 JUMP JUMPDEST PUSH1 0x20 DUP3 ADD SWAP1 POP SWAP2 SWAP1 POP JUMP JUMPDEST PUSH0 PUSH1 0x20 DUP3 ADD SWAP1 POP DUP2 DUP2 SUB PUSH0 DUP4 ADD MSTORE PUSH2 0x4603 DUP2 PUSH2 0x45CA JUMP JUMPDEST SWAP1 POP SWAP2 SWAP1 POP JUMP JUMPDEST PUSH32 0x596F752063616E6E6F74206A6F696E20796F7572206F776E2067616D65000000 PUSH0 DUP3 ADD MSTORE POP JUMP JUMPDEST PUSH0 PUSH2 0x463E PUSH1 0x1D DUP4 PUSH2 0x3863 JUMP JUMPDEST SWAP2 POP PUSH2 0x4649 DUP3 PUSH2 0x460A JUMP JUMPDEST PUSH1 0x20 DUP3 ADD SWAP1 POP SWAP2 SWAP1 POP JUMP JUMPDEST PUSH0 PUSH1 0x20 DUP3 ADD SWAP1 POP DUP2 DUP2 SUB PUSH0 DUP4 ADD MSTORE PUSH2 0x466B DUP2 PUSH2 0x4632 JUMP JUMPDEST SWAP1 POP SWAP2 SWAP1 POP JUMP JUMPDEST PUSH0 DUP2 SWAP1 POP SWAP2 SWAP1 POP JUMP JUMPDEST PUSH2 0x468C PUSH2 0x4687 DUP3 PUSH2 0x38E9 JUMP JUMPDEST PUSH2 0x4672 JUMP JUMPDEST DUP3 MSTORE POP POP JUMP JUMPDEST PUSH0 PUSH2 0x469D DUP3 DUP6 PUSH2 0x467B JUMP JUMPDEST PUSH1 0x20 DUP3 ADD SWAP2 POP PUSH2 0x46AD DUP3 DUP5 PUSH2 0x467B JUMP JUMPDEST PUSH1 0x20 DUP3 ADD SWAP2 POP DUP2 SWAP1 POP SWAP4 SWAP3 POP POP POP JUMP JUMPDEST PUSH32 0x4E487B7100000000000000000000000000000000000000000000000000000000 PUSH0 MSTORE PUSH1 0x12 PUSH1 0x4 MSTORE PUSH1 0x24 PUSH0 REVERT JUMPDEST PUSH0 PUSH2 0x46F4 DUP3 PUSH2 0x38E9 JUMP JUMPDEST SWAP2 POP PUSH2 0x46FF DUP4 PUSH2 0x38E9 JUMP JUMPDEST SWAP3 POP DUP3 PUSH2 0x470F JUMPI PUSH2 0x470E PUSH2 0x46BD JUMP JUMPDEST JUMPDEST DUP3 DUP3 MOD SWAP1 POP SWAP3 SWAP2 POP POP JUMP JUMPDEST PUSH0 PUSH2 0x4724 DUP3 PUSH2 0x38E9 JUMP JUMPDEST SWAP2 POP PUSH2 0x472F DUP4 PUSH2 0x38E9 JUMP JUMPDEST SWAP3 POP DUP3 DUP3 ADD SWAP1 POP DUP1 DUP3 GT ISZERO PUSH2 0x4747 JUMPI PUSH2 0x4746 PUSH2 0x3E74 JUMP JUMPDEST JUMPDEST SWAP3 SWAP2 POP POP JUMP JUMPDEST PUSH0 DUP2 MLOAD SWAP1 POP SWAP2 SWAP1 POP JUMP JUMPDEST PUSH0 DUP3 DUP3 MSTORE PUSH1 0x20 DUP3 ADD SWAP1 POP SWAP3 SWAP2 POP POP JUMP JUMPDEST PUSH0 PUSH2 0x4771 DUP3 PUSH2 0x474D JUMP JUMPDEST PUSH2 0x477B DUP2 DUP6 PUSH2 0x4757 JUMP JUMPDEST SWAP4 POP PUSH2 0x478B DUP2 DUP6 PUSH1 0x20 DUP7 ADD PUSH2 0x3873 JUMP JUMPDEST PUSH2 0x4794 DUP2 PUSH2 0x3881 JUMP JUMPDEST DUP5 ADD SWAP2 POP POP SWAP3 SWAP2 POP POP JUMP JUMPDEST PUSH0 PUSH1 0x80 DUP3 ADD SWAP1 POP PUSH2 0x47B2 PUSH0 DUP4 ADD DUP8 PUSH2 0x3977 JUMP JUMPDEST PUSH2 0x47BF PUSH1 0x20 DUP4 ADD DUP7 PUSH2 0x3977 JUMP JUMPDEST PUSH2 0x47CC PUSH1 0x40 DUP4 ADD DUP6 PUSH2 0x3A82 JUMP JUMPDEST DUP2 DUP2 SUB PUSH1 0x60 DUP4 ADD MSTORE PUSH2 0x47DE DUP2 DUP5 PUSH2 0x4767 JUMP JUMPDEST SWAP1 POP SWAP6 SWAP5 POP POP POP POP POP JUMP JUMPDEST PUSH0 DUP2 MLOAD SWAP1 POP PUSH2 0x47F7 DUP2 PUSH2 0x37D1 JUMP JUMPDEST SWAP3 SWAP2 POP POP JUMP JUMPDEST PUSH0 PUSH1 0x20 DUP3 DUP5 SUB SLT ISZERO PUSH2 0x4812 JUMPI PUSH2 0x4811 PUSH2 0x379E JUMP JUMPDEST JUMPDEST PUSH0 PUSH2 0x481F DUP5 DUP3 DUP6 ADD PUSH2 0x47E9 JUMP JUMPDEST SWAP2 POP POP SWAP3 SWAP2 POP POP JUMP JUMPDEST PUSH0 PUSH1 0x40 DUP3 ADD SWAP1 POP PUSH2 0x483B PUSH0 DUP4 ADD DUP6 PUSH2 0x3977 JUMP JUMPDEST PUSH2 0x4848 PUSH1 0x20 DUP4 ADD DUP5 PUSH2 0x3A82 JUMP JUMPDEST SWAP4 SWAP3 POP POP POP JUMP INVALID LOG2 PUSH5 0x6970667358 0x22 SLT KECCAK256 0xAD SDIV MSTORE PUSH27 0xFA1DB0FEDE1BF9546A1DE3B6A1F0C50F0E468BBC2FA74FE94DDAFE ADD PUSH5 0x736F6C6343 STOP ADDMOD NOT STOP CALLER "
		},
		"gasEstimates": {
			"creation": {
				"codeDepositCost": "3713000",
				"executionCost": "infinite",
				"totalCost": "infinite"
			},
			"external": {
				"approve(address,uint256)": "infinite",
				"balanceOf(address)": "infinite",
				"createGame()": "infinite",
				"gameId()": "2469",
				"getApproved(uint256)": "infinite",
				"isApprovedForAll(address,address)": "infinite",
				"joinGame(uint256)": "infinite",
				"name()": "infinite",
				"owner()": "2648",
				"ownerOf(uint256)": "infinite",
				"paperToken()": "infinite",
				"playAgain()": "infinite",
				"playAgainstMachine(uint256)": "infinite",
				"playGame(uint256)": "infinite",
				"renounceOwnership()": "infinite",
				"rockToken()": "infinite",
				"safeTransferFrom(address,address,uint256)": "infinite",
				"safeTransferFrom(address,address,uint256,bytes)": "infinite",
				"scissorToken()": "infinite",
				"setApprovalForAll(address,bool)": "infinite",
				"supportsInterface(bytes4)": "787",
				"symbol()": "infinite",
				"tokenURI(uint256)": "infinite",
				"transferFrom(address,address,uint256)": "infinite",
				"transferOwnership(address)": "infinite"
			},
			"internal": {
				"random()": "infinite"
			}
		},
		"methodIdentifiers": {
			"approve(address,uint256)": "095ea7b3",
			"balanceOf(address)": "70a08231",
			"createGame()": "7255d729",
			"gameId()": "d7c81b55",
			"getApproved(uint256)": "081812fc",
			"isApprovedForAll(address,address)": "e985e9c5",
			"joinGame(uint256)": "efaa55a0",
			"name()": "06fdde03",
			"owner()": "8da5cb5b",
			"ownerOf(uint256)": "6352211e",
			"paperToken()": "98255e15",
			"playAgain()": "bcfa2208",
			"playAgainstMachine(uint256)": "90e22eef",
			"playGame(uint256)": "5873533d",
			"renounceOwnership()": "715018a6",
			"rockToken()": "a7214bc2",
			"safeTransferFrom(address,address,uint256)": "42842e0e",
			"safeTransferFrom(address,address,uint256,bytes)": "b88d4fde",
			"scissorToken()": "8eb507bc",
			"setApprovalForAll(address,bool)": "a22cb465",
			"supportsInterface(bytes4)": "01ffc9a7",
			"symbol()": "95d89b41",
			"tokenURI(uint256)": "c87b56dd",
			"transferFrom(address,address,uint256)": "23b872dd",
			"transferOwnership(address)": "f2fde38b"
		}
	},
	"abi": [
		{
			"inputs": [
				{
					"internalType": "address",
					"name": "_rockAddress",
					"type": "address"
				},
				{
					"internalType": "address",
					"name": "_paperAddress",
					"type": "address"
				},
				{
					"internalType": "address",
					"name": "_scissorAddress",
					"type": "address"
				}
			],
			"stateMutability": "nonpayable",
			"type": "constructor"
		},
		{
			"inputs": [
				{
					"internalType": "address",
					"name": "sender",
					"type": "address"
				},
				{
					"internalType": "uint256",
					"name": "tokenId",
					"type": "uint256"
				},
				{
					"internalType": "address",
					"name": "owner",
					"type": "address"
				}
			],
			"name": "ERC721IncorrectOwner",
			"type": "error"
		},
		{
			"inputs": [
				{
					"internalType": "address",
					"name": "operator",
					"type": "address"
				},
				{
					"internalType": "uint256",
					"name": "tokenId",
					"type": "uint256"
				}
			],
			"name": "ERC721InsufficientApproval",
			"type": "error"
		},
		{
			"inputs": [
				{
					"internalType": "address",
					"name": "approver",
					"type": "address"
				}
			],
			"name": "ERC721InvalidApprover",
			"type": "error"
		},
		{
			"inputs": [
				{
					"internalType": "address",
					"name": "operator",
					"type": "address"
				}
			],
			"name": "ERC721InvalidOperator",
			"type": "error"
		},
		{
			"inputs": [
				{
					"internalType": "address",
					"name": "owner",
					"type": "address"
				}
			],
			"name": "ERC721InvalidOwner",
			"type": "error"
		},
		{
			"inputs": [
				{
					"internalType": "address",
					"name": "receiver",
					"type": "address"
				}
			],
			"name": "ERC721InvalidReceiver",
			"type": "error"
		},
		{
			"inputs": [
				{
					"internalType": "address",
					"name": "sender",
					"type": "address"
				}
			],
			"name": "ERC721InvalidSender",
			"type": "error"
		},
		{
			"inputs": [
				{
					"internalType": "uint256",
					"name": "tokenId",
					"type": "uint256"
				}
			],
			"name": "ERC721NonexistentToken",
			"type": "error"
		},
		{
			"inputs": [
				{
					"internalType": "address",
					"name": "owner",
					"type": "address"
				}
			],
			"name": "OwnableInvalidOwner",
			"type": "error"
		},
		{
			"inputs": [
				{
					"internalType": "address",
					"name": "account",
					"type": "address"
				}
			],
			"name": "OwnableUnauthorizedAccount",
			"type": "error"
		},
		{
			"anonymous": false,
			"inputs": [
				{
					"indexed": true,
					"internalType": "address",
					"name": "owner",
					"type": "address"
				},
				{
					"indexed": true,
					"internalType": "address",
					"name": "approved",
					"type": "address"
				},
				{
					"indexed": true,
					"internalType": "uint256",
					"name": "tokenId",
					"type": "uint256"
				}
			],
			"name": "Approval",
			"type": "event"
		},
		{
			"anonymous": false,
			"inputs": [
				{
					"indexed": true,
					"internalType": "address",
					"name": "owner",
					"type": "address"
				},
				{
					"indexed": true,
					"internalType": "address",
					"name": "operator",
					"type": "address"
				},
				{
					"indexed": false,
					"internalType": "bool",
					"name": "approved",
					"type": "bool"
				}
			],
			"name": "ApprovalForAll",
			"type": "event"
		},
		{
			"anonymous": false,
			"inputs": [
				{
					"indexed": false,
					"internalType": "uint256",
					"name": "gameId",
					"type": "uint256"
				},
				{
					"indexed": false,
					"internalType": "address",
					"name": "player1",
					"type": "address"
				}
			],
			"name": "GameCreated",
			"type": "event"
		},
		{
			"anonymous": false,
			"inputs": [
				{
					"indexed": false,
					"internalType": "uint256",
					"name": "gameId",
					"type": "uint256"
				},
				{
					"indexed": false,
					"internalType": "address",
					"name": "winner",
					"type": "address"
				},
				{
					"indexed": false,
					"internalType": "string",
					"name": "result",
					"type": "string"
				}
			],
			"name": "GameFinished",
			"type": "event"
		},
		{
			"anonymous": false,
			"inputs": [
				{
					"indexed": false,
					"internalType": "uint256",
					"name": "gameId",
					"type": "uint256"
				},
				{
					"indexed": false,
					"internalType": "address",
					"name": "player2",
					"type": "address"
				}
			],
			"name": "GameJoined",
			"type": "event"
		},
		{
			"anonymous": false,
			"inputs": [
				{
					"indexed": false,
					"internalType": "uint256",
					"name": "gameId",
					"type": "uint256"
				},
				{
					"indexed": false,
					"internalType": "address",
					"name": "player",
					"type": "address"
				},
				{
					"indexed": false,
					"internalType": "enum RockPaperScissors.Move",
					"name": "move",
					"type": "uint8"
				}
			],
			"name": "GamePlayed",
			"type": "event"
		},
		{
			"anonymous": false,
			"inputs": [
				{
					"indexed": true,
					"internalType": "address",
					"name": "previousOwner",
					"type": "address"
				},
				{
					"indexed": true,
					"internalType": "address",
					"name": "newOwner",
					"type": "address"
				}
			],
			"name": "OwnershipTransferred",
			"type": "event"
		},
		{
			"anonymous": false,
			"inputs": [
				{
					"indexed": true,
					"internalType": "address",
					"name": "from",
					"type": "address"
				},
				{
					"indexed": true,
					"internalType": "address",
					"name": "to",
					"type": "address"
				},
				{
					"indexed": true,
					"internalType": "uint256",
					"name": "tokenId",
					"type": "uint256"
				}
			],
			"name": "Transfer",
			"type": "event"
		},
		{
			"inputs": [
				{
					"internalType": "address",
					"name": "to",
					"type": "address"
				},
				{
					"internalType": "uint256",
					"name": "tokenId",
					"type": "uint256"
				}
			],
			"name": "approve",
			"outputs": [],
			"stateMutability": "nonpayable",
			"type": "function"
		},
		{
			"inputs": [
				{
					"internalType": "address",
					"name": "owner",
					"type": "address"
				}
			],
			"name": "balanceOf",
			"outputs": [
				{
					"internalType": "uint256",
					"name": "",
					"type": "uint256"
				}
			],
			"stateMutability": "view",
			"type": "function"
		},
		{
			"inputs": [],
			"name": "createGame",
			"outputs": [
				{
					"internalType": "uint256",
					"name": "",
					"type": "uint256"
				}
			],
			"stateMutability": "nonpayable",
			"type": "function"
		},
		{
			"inputs": [],
			"name": "gameId",
			"outputs": [
				{
					"internalType": "uint256",
					"name": "",
					"type": "uint256"
				}
			],
			"stateMutability": "view",
			"type": "function"
		},
		{
			"inputs": [
				{
					"internalType": "uint256",
					"name": "tokenId",
					"type": "uint256"
				}
			],
			"name": "getApproved",
			"outputs": [
				{
					"internalType": "address",
					"name": "",
					"type": "address"
				}
			],
			"stateMutability": "view",
			"type": "function"
		},
		{
			"inputs": [
				{
					"internalType": "address",
					"name": "owner",
					"type": "address"
				},
				{
					"internalType": "address",
					"name": "operator",
					"type": "address"
				}
			],
			"name": "isApprovedForAll",
			"outputs": [
				{
					"internalType": "bool",
					"name": "",
					"type": "bool"
				}
			],
			"stateMutability": "view",
			"type": "function"
		},
		{
			"inputs": [
				{
					"internalType": "uint256",
					"name": "_gameId",
					"type": "uint256"
				}
			],
			"name": "joinGame",
			"outputs": [],
			"stateMutability": "nonpayable",
			"type": "function"
		},
		{
			"inputs": [],
			"name": "name",
			"outputs": [
				{
					"internalType": "string",
					"name": "",
					"type": "string"
				}
			],
			"stateMutability": "view",
			"type": "function"
		},
		{
			"inputs": [],
			"name": "owner",
			"outputs": [
				{
					"internalType": "address",
					"name": "",
					"type": "address"
				}
			],
			"stateMutability": "view",
			"type": "function"
		},
		{
			"inputs": [
				{
					"internalType": "uint256",
					"name": "tokenId",
					"type": "uint256"
				}
			],
			"name": "ownerOf",
			"outputs": [
				{
					"internalType": "address",
					"name": "",
					"type": "address"
				}
			],
			"stateMutability": "view",
			"type": "function"
		},
		{
			"inputs": [],
			"name": "paperToken",
			"outputs": [
				{
					"internalType": "contract Paper",
					"name": "",
					"type": "address"
				}
			],
			"stateMutability": "view",
			"type": "function"
		},
		{
			"inputs": [],
			"name": "playAgain",
			"outputs": [],
			"stateMutability": "nonpayable",
			"type": "function"
		},
		{
			"inputs": [
				{
					"internalType": "uint256",
					"name": "_move",
					"type": "uint256"
				}
			],
			"name": "playAgainstMachine",
			"outputs": [],
			"stateMutability": "nonpayable",
			"type": "function"
		},
		{
			"inputs": [
				{
					"internalType": "uint256",
					"name": "_move",
					"type": "uint256"
				}
			],
			"name": "playGame",
			"outputs": [],
			"stateMutability": "nonpayable",
			"type": "function"
		},
		{
			"inputs": [],
			"name": "renounceOwnership",
			"outputs": [],
			"stateMutability": "nonpayable",
			"type": "function"
		},
		{
			"inputs": [],
			"name": "rockToken",
			"outputs": [
				{
					"internalType": "contract Rock",
					"name": "",
					"type": "address"
				}
			],
			"stateMutability": "view",
			"type": "function"
		},
		{
			"inputs": [
				{
					"internalType": "address",
					"name": "from",
					"type": "address"
				},
				{
					"internalType": "address",
					"name": "to",
					"type": "address"
				},
				{
					"internalType": "uint256",
					"name": "tokenId",
					"type": "uint256"
				}
			],
			"name": "safeTransferFrom",
			"outputs": [],
			"stateMutability": "nonpayable",
			"type": "function"
		},
		{
			"inputs": [
				{
					"internalType": "address",
					"name": "from",
					"type": "address"
				},
				{
					"internalType": "address",
					"name": "to",
					"type": "address"
				},
				{
					"internalType": "uint256",
					"name": "tokenId",
					"type": "uint256"
				},
				{
					"internalType": "bytes",
					"name": "data",
					"type": "bytes"
				}
			],
			"name": "safeTransferFrom",
			"outputs": [],
			"stateMutability": "nonpayable",
			"type": "function"
		},
		{
			"inputs": [],
			"name": "scissorToken",
			"outputs": [
				{
					"internalType": "contract Scissor",
					"name": "",
					"type": "address"
				}
			],
			"stateMutability": "view",
			"type": "function"
		},
		{
			"inputs": [
				{
					"internalType": "address",
					"name": "operator",
					"type": "address"
				},
				{
					"internalType": "bool",
					"name": "approved",
					"type": "bool"
				}
			],
			"name": "setApprovalForAll",
			"outputs": [],
			"stateMutability": "nonpayable",
			"type": "function"
		},
		{
			"inputs": [
				{
					"internalType": "bytes4",
					"name": "interfaceId",
					"type": "bytes4"
				}
			],
			"name": "supportsInterface",
			"outputs": [
				{
					"internalType": "bool",
					"name": "",
					"type": "bool"
				}
			],
			"stateMutability": "view",
			"type": "function"
		},
		{
			"inputs": [],
			"name": "symbol",
			"outputs": [
				{
					"internalType": "string",
					"name": "",
					"type": "string"
				}
			],
			"stateMutability": "view",
			"type": "function"
		},
		{
			"inputs": [
				{
					"internalType": "uint256",
					"name": "tokenId",
					"type": "uint256"
				}
			],
			"name": "tokenURI",
			"outputs": [
				{
					"internalType": "string",
					"name": "",
					"type": "string"
				}
			],
			"stateMutability": "view",
			"type": "function"
		},
		{
			"inputs": [
				{
					"internalType": "address",
					"name": "from",
					"type": "address"
				},
				{
					"internalType": "address",
					"name": "to",
					"type": "address"
				},
				{
					"internalType": "uint256",
					"name": "tokenId",
					"type": "uint256"
				}
			],
			"name": "transferFrom",
			"outputs": [],
			"stateMutability": "nonpayable",
			"type": "function"
		},
		{
			"inputs": [
				{
					"internalType": "address",
					"name": "newOwner",
					"type": "address"
				}
			],
			"name": "transferOwnership",
			"outputs": [],
			"stateMutability": "nonpayable",
			"type": "function"
		}
	]
}